:020000040800F2
:10000000F02F002001010008B11700085D0E000864
:10001000E51300088D0A0008CD2300080000000049
:100020000000000000000000000000008D1A000821
:10003000210D00080000000059190008A91A000845
:100040001B0100081B0100081B0100081B01000820
:100050001B0100081B0100081B0100081B01000810
:100060001B0100081B0100081B0100081B01000800
:100070001B0100081B0100081B0100081B010008F0
:100080001B0100081B0100081B0100081B010008E0
:100090001B0100081B0100081B0100081B010008D0
:1000A0001B010008B91B00081B0100081B01000808
:1000B000DD1B0008711C0008411D00081B01000821
:1000C0001B0100081B0100081B0100081B010008A0
:1000D0001B010008A1210008D92100081B0100080C
:1000E0001B0100081B0100081B010008DFF80CD0F1
:1000F00000F062FA00480047752C0008F02F00203D
:100100000648804706480047FEE7FEE7FEE7FEE7B1
:10011000FEE7FEE7FEE7FEE7FEE7FEE7AD1A0008B2
:10012000ED00000810B5431A934209D283188818CD
:1001300003E010F8011D03F8011D521EF9D210BD95
:1001400040EA01039B0703D009E008C9121F08C059
:10015000042AFAD203E011F8013B00F8013B521ED9
:10016000F9D210BDD2B201E000F8012B491EFBD23A
:1001700070470022F6E710B513460A4604461946B2
:10018000FFF7F0FF204610BD30B505462A460B4666
:1001900012F8010B13F8014B08B1A042F8D01CB1C2
:1001A000002802D06D1CF1E7284630BD421C10F833
:1001B000011B0029FBD1801A704730B50B46014660
:1001C00000202022012409E021FA02F59D4205D3F6
:1001D00003FA02F5491B04FA02F52844151EA2F1A0
:1001E0000102F1DC30BD2DE9F05F054600209246AA
:1001F0009B4688460646814640241BE028464146E9
:100200004746224600F0FFF953465A46C01A91412C
:1002100010D311461846224600F0E6F92D1A67EB76
:1002200001084F4622460120002100F0DDF917EBBE
:1002300000094E41201EA4F10104DFDC484631468E
:100240002A464346BDE8F09F2DE9FE4F804681EAED
:100250000300C00F0C46009021F0004123F0004540
:10026000B8EB0200A94105D24046214690461C4603
:100270000B46024623F00040104347D0270DC7F33A
:100280000A00C3F30A510290401A019040286BDA29
:10029000C3F3130040F4801B0098924620B1002362
:1002A000D2EB030A63EB0B0B01985946C0F14002F5
:1002B000504600F099F906460D4650465946019AB7
:1002C00000F0B1F910EB08006141002487EA1152F7
:1002D00084EAE7731A4340D0009A62B3019A012A74
:1002E0004FEA075215DC001B61EB02014FF00042A0
:1002F00002EA0752CDE90042001C41F58011324666
:100300002B4600F0B1F903B0BDE8F08F404621461E
:10031000F9E7001B61EB0201001C41F58013001896
:100320005B412018A2F5001747EB030140EAD570A6
:10033000B6196D4111E06D084FEA360645EAC07501
:100340004FEA0752001B61EB0201001C41F58011CE
:1003500049084FEA30000019514132462B4603B09C
:10036000BDE8F04F00F071B9009801224000002371
:10037000D0EB020263EBE073009821464FEAE07491
:10038000B8EB000061EB0401E9E783F000435BE7B1
:1003900081F0004158E72DE9FE4F81EA030404F0A3
:1003A000004421F0004100944FF0000B23F0004383
:1003B00050EA01045ED052EA03045BD0C3F30A544E
:1003C000C1F30A552C44A4F2F3340194A0FB025467
:1003D000C1F3130141F48011C3F3130343F48013F9
:1003E00001FB024400FB034E840A970A44EA81544D
:1003F00047EA8357A4FB076802958D0A05FB07852A
:100400004FEA932C04FB0C542705029D4FEA065833
:1004100047EA1637B5EB08056EEB070C870E920E10
:1004200047EA811742EA8312A7FB0201B6EB0B01F0
:1004300064EB00042B0D43EA0C335E1844EB1C50B4
:10044000DA465146E7FB0201C5F313044FEA0B33CA
:1004500043EA14534FEA0432019C43EA0603A4F131
:100460000C040294009CCDE900B400F0FDF803B048
:10047000BDE8F08F00200146F9E72DE9F04D81EA53
:10048000030404F0004B21F0004514464FF0000A2D
:1004900023F0004150EA050220D054EA01021DD0A9
:1004A000C5F30A570246C5F31303C1F31300C1F3A2
:1004B0000A5640F4801543F48013A7EB0608101B7E
:1004C000D64608F2FD3873EB050002D308F10108A7
:1004D00001E092185B41B8F1000F03DA00200146F9
:1004E000BDE8F08D00204FF48011064684460EE0F2
:1004F000171B73EB050705D3121B63EB05030643BC
:100500004CEA010C49084FEA300092185B4150EA6E
:100510000107EDD152EA030012D082EA040083EA17
:100520000501084305D0101BAB4106D20122002370
:1005300006E000224FF0004302E06FF0010253108A
:100540001AEB06004CEB085110EB0A0041EB0B01D3
:10055000BDE8F04D00F079B8C1F30A52C1F31301C0
:1005600040F2FF3341F480119A4202DA0020014642
:10057000704740F233439A42A2F2334202DC5242C5
:1005800000F041B800F030B830B5041E71F100043D
:1005900004DB4FF00044404264EB0101141E73F190
:1005A000000405DB1C464FF00043524263EB04039A
:1005B000994208BF904230BD1CB5094800900948D7
:1005C00001900546009C06E0E06840F0010394E8D5
:1005D000070098471034AC42F6D3FFF78BFD0000BC
:1005E00094690008B4690008202A04DB203A00FA64
:1005F00002F1002070479140C2F1200320FA03F37A
:10060000194390407047202A04DB203A21FA02F077
:100610000021704721FA02F3D040C2F1200291403C
:10062000084319467047202A06DBCB17203A41FAC7
:1006300002F043EAE07306E041FA02F3D040C2F16F
:100640002002914008431946704710B5141E73F1FB
:10065000000408DA401C41F1000192185B411A4382
:1006600001D120F0010010BD2DE9F04D92469B46CE
:1006700011B1B1FA81F202E0B0FA80F22032904674
:10068000FFF7B2FF04460F4640EA0A0041EA0B01B9
:1006900053465A46084313D0114653EA010019D075
:1006A000C8F140025046FFF7AEFF05460E465046E1
:1006B00059464246FFF798FF084305D0012004E061
:1006C00020463946BDE8F08D0020054346EAE07635
:1006D0002C4337430A986305E40AA0EB0800002284
:1006E000FD0A44EA47540A3002D500200146E9E7F2
:1006F000010510196941DDE9084500196941BDE8A6
:10070000F04DA2E78268002922F0010218BF0132F1
:100710008260704710B542F20041C4F20101884284
:1007200012D043F60041C4F20101884209D042F6DA
:100730000001C4F20101884218BF10BD4FF480646B
:1007400004E04FF4004401E04FF40074204601211E
:1007500001F026F920460021BDE8104001F020B943
:100760008068C0F380007047C06C80B270470000A2
:100770000068084018BF0120704700008068C0F37F
:10078000C000704780B542684FF6FF63CFF6F07344
:1007900002EA030C0B680A7943EA0C0343EA0222DB
:1007A000426082684FF2FD73CFF6F1731A40D1E9CF
:1007B00002C391F805E01A4342EA0C0242EA4E02F3
:1007C0008260C26A097C22F470020139C9B242EA2D
:1007D0000151C16280BD0000B0B501EB410C4FF08A
:1007E000100E092988BFACF11E0C88BF4FF00C0E0B
:1007F00050F80E40072505FA0CF5AC4303FA0CF34C
:1008000023432C256FF0400440F80E300D2A38BFEA
:10081000302538BF6FF0220402EB8203072A3CBF69
:1008200034256FF004041A1943591F249440A3433C
:10083000914019434151B0BD816841F00801816088
:10084000704700008268002922F4A00218BF02F558
:10085000A002826070470000816841F0040181605D
:100860007047000070B586B042F200444FF401704A
:100870000121C4F20104012501F086F84FF4004083
:1008800001F06CF88220ADF800000026A4F5E050DD
:1008900069468DF8036000F045FA2046FFF73AFFFD
:1008A0004FF46020CDE9030601A920460196ADF87A
:1008B00008608DF81450FFF765FF20460121FFF70F
:1008C00021FF2046FFF7B8FF2046FFF757FF00281B
:1008D000FAD12046FFF7C0FF2046FFF741FF00286E
:1008E000FAD106B070BD000010B540F2D064C2F27B
:1008F000000404F111006F21FFF73BFC28A1C86838
:10090000DFF89CC0D1E90123097CE0602046C4E9FE
:1009100000C2A3602174FFF749FC40F2507142F617
:100920006C34C2F20001C2F200040860204680214B
:10093000FFF71FFC2046FFF739FC42F6EC3142F688
:10094000E824C2F20001C2F20004086020468021BF
:10095000FFF70FFC2046FFF729FC42F6683140F212
:100960002C04C2F20001C2F20004086004F112007B
:100970006E21FFF7FEFB0FA1C868D1E90123098AA8
:10098000DFF830C0E06040F2AC002182C2F200002B
:1009900040F25B71C4E900C2A360016010BD00BFFA
:1009A00073746D33325F666C6F7765725F303031B0
:1009B0000000000062726F6B65722E686976656D6B
:1009C000712E636F6D00000070B540F2547040F2FC
:1009D000BA05C2F20000C2F200058078697840F6DC
:1009E0000044C4F20104884220464FF4007102D250
:1009F00000F0FCF901E000F0FBF940F21C06C2F245
:100A000000067078E978884208D9053181420AD217
:100A100020464FF4807100F0E9F904E020464FF4DD
:100A2000807100F0E5F930782978884207D904F51B
:100A300080604FF40051BDE8704000F0D7B904F574
:100A400080604FF40051BDE8704000F0D1B9000063
:100A5000B0B582B041F20300ADF8060004200121D8
:100A600000F092FF40F60004C4F201044FF48075D8
:100A700001A92046ADF8045000F054F920464FF487
:100A8000807100F0B5F9656102B0B0BDFEE700000D
:100A900010B582B00420012100F076FF102040F64E
:100AA0000004C1F20300C4F20104019001A9204630
:100AB00000F038F92046102100F09AF902B010BD7C
:100AC0002DE9F04383B040F60005C4F2010540F281
:100AD00010088146C1F2030869462846CDF8008017
:100AE00000F020F928461021102400F07FF9122090
:100AF00002F084F82846102100F07AF91E2002F056
:100B00009BF848208DF8070001A92846ADF804405D
:100B100000F008F92846102100F062F920B1002009
:100B200003B0BDE8F08300BF2846102100F058F95B
:100B30000028F9D02846102100F052F90128F9D0F8
:100B400000278026002409E026FA04F080F0FF0048
:100B50000740072C04F101041AD200BF28461021D7
:100B600000F03EF90028F9D0282002F065F8284668
:100B7000102100F035F90128E6D100BF28461021E8
:100B800000F02EF90128F9D026FA04F00743E0E737
:100B900089F8007000278026002409E026FA04F076
:100BA00080F0FF000740072C04F101041AD200BFB7
:100BB0002846102100F014F90028F9D0282002F06E
:100BC0003BF82846102100F00BF90128E6D100BFC0
:100BD0002846102100F004F90128F9D026FA04F083
:100BE0000743E0E789F8017000278026002409E028
:100BF00026FA04F080F0FF000740072C04F10104FE
:100C00001AD200BF2846102100F0EAF80028F9D0D7
:100C1000282002F011F82846102100F0E1F8012800
:100C2000E6D100BF2846102100F0DAF80128F9D0FB
:100C300026FA04F00743E0E789F8027000278026CF
:100C4000002409E026FA04F080F0FF000740072C9A
:100C500004F101041AD200BF2846102100F0C0F8A8
:100C60000028F9D0282001F0E7FF2846102100F0E5
:100C7000B7F80128E6D100BF2846102100F0B0F8EF
:100C80000128F9D026FA04F00743E0E789F8037059
:100C900000278026002409E026FA04F080F0FF00F7
:100CA0000740072C04F101041AD200BF2846102186
:100CB00000F096F80028F9D0282001F0BDFF284662
:100CC000102100F08DF80128E6D100BF2846102140
:100CD00000F086F80128F9D026FA04F00743E0E78F
:100CE00002A9284689F80470CDF8088000F01AF8A7
:100CF0002846102100F07CF899F8001099F801209E
:100D000099F8023099F80370114499F804001944D5
:100D10003944081AB0FA80F0400903B0BDE8F08306
:100D200070470000CA7802F00F0CD30644BF8B78DE
:100D30004CEA030C2DE9F04709880B0624D08646BF
:100D40005EF8143B00F1100800254FF0010A4FF047
:100D50000F09002406E000BF37600134082C05F1BC
:100D6000040510D00AFA04F70F42F6D009FA05F686
:100D7000B3430CFA05F63343282A7646ECD0482ACA
:100D8000EBD14646E8E70360B1F5807F38BFBDE8A8
:100D9000F087436800F1100E00F1140A00254FF4AB
:100DA00080794FF00F08002706E000BF266001376A
:100DB000082F05F1040510D009FA07F60E42F6D007
:100DC00008FA05F4A3430CFA05F42343282A5446F1
:100DD000ECD0482AEBD17446E8E74360BDE8F087E1
:100DE0008068084018BF01207047000041617047CB
:100DF000016170471023002A08BF1423C1507047B7
:100E00002DE9F041884611B342F20046054600271D
:100E1000C4F20106002400BF304629460122072300
:100E2000FFF7DAFC30460121FFF70CFD30460221C6
:100E3000FFF79EFC0028F9D03046FFF795FC0444EC
:100E4000052001F0DBFE01374745E5D300E0002433
:100E5000B4FBF8F080B2BDE8F0810000FEE70000CE
:100E6000B0B582B0102000210E22102402F076FED0
:100E7000202000210F2202F071FE302000211022DC
:100E800002F06CFE40200021112202F067FE50208B
:100E90000021122202F062FE60200021132202F0E3
:100EA0005DFE00200221002202F058FE10200221E7
:100EB000022202F053FE202002213A22102300F0E9
:100EC000F3FC00200421082202F048FE1020042137
:100ED000092202F043FE202004213A22102300F0D0
:100EE000E3FC00200621062202F038FE1020062135
:100EF000072202F033FE202006213A22102300F0C0
:100F0000D3FC40F25470C2F20000827830200221FB
:100F10000223009402F05EFE40F21C05C2F20005BE
:100F20006A78302004210223009402F053FE2A78CC
:100F3000302006210223009402F04CFE50200221B2
:100F4000032202F00BFE502004212522102300F082
:100F5000ABFC502006212522102302B0BDE8B04092
:100F600000F0A2BCB0B582B00C20012100F00CFD55
:100F70004FF4704040F60044ADF804004820C4F23D
:100F8000010401AD8DF8070020462946FFF7CAFE8F
:100F900020462946FFF7C6FE20462946FFF7C2FE37
:100FA00020462946FFF7BEFE02B0B0BDB0B540F204
:100FB0001205C2F20005287840F60044C4F201048C
:100FC000F8B120464FF48051FFF70AFF012868D19D
:100FD00020464FF40051FFF703FF012818BFB0BDB2
:100FE00020464FF48041FFF7FBFE012859D12046EF
:100FF0004FF40041FFF7F4FE012804BF00202870E1
:10100000B0BD20464FF48051FFF7EAFE90B1204674
:101010004FF40051FFF7E4FE60B120464FF48041E9
:10102000FFF7DEFE30B120464FF40041FFF7D8FE57
:101030000028C6D10A2001F0E1FD012028702046D9
:101040004FF48051FFF7CCFED8B120464FF4005149
:10105000FFF7C6FED0B120464FF48041FFF7C0FE37
:10106000C8B120464FF40041FFF7BAFE40F260716C
:10107000C2F200010A781043000612D10120087064
:10108000B0BD40F25D70C2F2000008E040F25E7058
:10109000C2F2000003E040F25F70C2F2000001788B
:1010A00001B1B0BD01210170B0BD000080B582B0BA
:1010B0001020012100F068FC42F20000C1F20300A0
:1010C000019041F20000C4F2010001A9FFF72AFEDD
:1010D00002B080BD70B540F21100C2F200000021E4
:1010E000017040F21000C2F20000017040F2B00046
:1010F000C2F20000017040F21500C2F2000001705F
:1011000040F2140041F65C64C2F20000C2F2000436
:10111000017020464FF42F61FFF72BF841F2603544
:10112000C2F2000528464FF42F61FFF722F840F67F
:101130006406C2F2000630464FF42F61FFF719F83B
:1011400042F65010C2F20000046042F65410C2F29F
:10115000000042F64C11046004F51660C2F2000172
:10116000086041F65460C2F20000056041F6586024
:10117000C2F2000041F65061056005F51660C2F24A
:101180000001086041F25830C2F20000066041F2EE
:101190005C30C2F2000041F25431066006F5166080
:1011A000C2F20001086000F07BF946F25B60C0F615
:1011B00000000121BDE8704000F016BAF0B581B022
:1011C00020200021142202F0C9FC30200021152229
:1011D00002F0C4FC40200021162202F0BFFC502087
:1011E0000021172202F0BAFC40F25E75C2F200053F
:1011F000287840F2010440F20006C2F20004C2F274
:101200000006A8B12078411CC8B2042808BF0121FB
:10121000C8B201380528217008D8DFE800F0DD03E6
:1012200005070305022000E003203070002028702D
:1012300040F25F70C2F20000017889B12178013973
:10124000C9B202290AD844F23C72C0F6000252F830
:1012500021100A78B2FA82F252090A700021017054
:10126000207840F2B1050328C2F200055BD81020B7
:1012700002211C2202F072FC202002211D2202F019
:101280006DFC302002213A22102300F00DFB1020CB
:1012900004210A2202F062FC202004210B2202F029
:1012A0005DFC302004213A22102300F0FDFA1020CA
:1012B0000621212202F052FC20200621222202F0E7
:1012C0004DFC302006213A22102300F0EDFAE87898
:1012D00046F2FA34C0F6000446F2FE3700282246F1
:1012E0004FF048004FF002014FF01003C0F6000726
:1012F00008BF3A4602F0BCFC2879224600284FF08D
:1013000048004FF004014FF0100308BF3A4602F0C6
:10131000AFFC68790621002808BF3C4648202246D9
:10132000102302F0A5FC307842F620220138C0B22A
:10133000C00042F22A01C0F22002C0F2200122FACB
:1013400000F642F22002C140C0F22A0240F60044F8
:1013500022FA00F7CAB2002002211023C4F20104CD
:1013600000F0A2FAF2B200200421102300F09CFA4F
:10137000FAB200200621102300F096FAE87828B18E
:1013800020464FF40071FFF733FD04E020464FF490
:101390000071FFF72BFD287928B120464FF48071AA
:1013A000FFF726FD04E020464FF48071FFF71EFD95
:1013B000687940B104F580604FF4005101B0BDE898
:1013C000F040FFF715BD04F580604FF4005101B007
:1013D000BDE8F040FFF70ABD0120307002F010FBBD
:1013E00024E70000FEE70000B0B540F25D70C2F2F5
:1013F0000000017840F21304C2F20004B1B140F2DF
:101400006071C2F2000100220A7040F25F71C2F204
:1014100000010A7040F25E71C2F200010A700270AF
:1014200002F0EEFA20780130207014E040F25E7194
:10143000C2F200010A7872B1227862B940F2607299
:10144000C2F200020023137040F25F72C2F2000287
:1014500013700B700370207840F2B105032824BF8D
:1014600000202070C2F20005A87818B102F0C8FA76
:101470000020A870207802280ED0012808D000286B
:1014800018BFB0BDFFF7ECFCBDE8B040FFF79CBA59
:10149000BDE8B040FFF792BEBDE8B04000F03ABDF5
:1014A0002DE9F04F81B040F25070C2F200000768A1
:1014B00042F6EC30C2F20000D0F800B042F66830DC
:1014C000C2F20000D0F800A00BEB0700504400F17E
:1014D000060842F65814C2F20004102018F1090F51
:1014E000207010DB08F10A01012000BF41F08002EA
:1014F000802938BF01F07F02C909451C2254002908
:101500002846F3D100E0012540F20041C5F24D111B
:10151000615145F254416019CCF2042141604FF40D
:10152000C8410181F91707EB1161090A05F10A09A0
:1015300004F8091005F10C0640F2D061C772A01939
:10154000C2F200013A46FEF7EDFD4FEAEB700BEBFD
:101550001060000AF1196054781900F10E0642F685
:101560006C310519A019C2F200015A4685F80DB078
:10157000FEF7D8FD4FEAEA700AEB1060000A06EBAE
:101580000B01605405EB0B0042F6E82180F80FA038
:101590001030C2F200015246FEF7C4FD09EB08020A
:1015A00042F65015D017C2F2000502EB1060296810
:1015B000000A087028682146427028680230FEF749
:1015C000B1FD42F64C112868C2F20001096841F6EB
:1015D0005C6200F5C870C2F20002884218BF024681
:1015E0002A6001B0BDE8F08F2DE9F0478846064635
:1015F000FEF7DCFD411D42F65814C2F200048222BF
:10160000012922700DDB012241F08003802938BFBF
:1016100001F07F03C909571CA35400293A46F3D1AE
:1016200000E00127BD1C00EB05094FF42060E053EA
:10163000304604EB070AFEF7B9FD000A6055304654
:10164000FEF7B4FD8AF803003D1D30466719FEF72A
:10165000ADFD024638463146FEF764FD3046FEF7E2
:10166000A5FD284409F1030242F6501504F8008054
:10167000D017C2F2000502EB10602968000A08705A
:1016800028682146427028680230FEF74BFD42F67A
:101690004C112868C2F20001096841F65C6200F54D
:1016A000C870C2F20002884218BF02462A60BDE834
:1016B000F0870000F0B585B004200121042700F078
:1016C00063F94FF48040012100F05EF943F6000415
:1016D00040F20020C4F20104C1F60100A4F5405517
:1016E00004AE049028463146FFF71CFB4FF480609F
:1016F000ADF81000284631468DF81370FFF712FB45
:101700004FF4E130009000204FF44021ADF80C0080
:10171000CDE901016946204600F0E6FD204640F291
:101720002551012200F0C8FD2046012100F09AFD5C
:1017300005B0F0BDF0B585B004200121042700F00C
:1017400023F94FF40030012100F012F944F2004473
:101750000420C4F20004C1F6010004F5444504AEBF
:10176000049028463146FFF7DDFA0820ADF8100056
:10177000284631468DF81370FFF7D4FA4FF4E13064
:10178000009000204FF44021ADF80C00CDE901019C
:101790006946204600F0A8FD204640F2255101226E
:1017A00000F08AFD2046012100F05CFD05B0F0BD8F
:1017B0007047000010B582B04FF4A06000F06AF8E6
:1017C00040F22520C0F2021001AC0190204600F04A
:1017D00031F82620C0F200100190204600F02AF8CF
:1017E00040F22620C0F202100190204600F022F8BC
:1017F0002720C0F200100190204600F01BF840F2B4
:101800001E20C0F202100190204600F013F840F2B2
:101810001D20C0F202100190204600F00BF840F2AB
:101820001C20C0F202100190204600F003F802B024
:1018300010BD000010B5C17800294EF20011CEF2A3
:1018400000011AD04EF60C52CEF2000212680723A5
:1018500023EA12220F23C2F1040C23FA02F2437886
:10186000847890F800E003FA0CF322401A43120146
:1018700001EB0E0383F8002300E0803100780123A0
:1018800000F01F0203FA02F2C0F3421041F82020D8
:1018900010BD000040F080604EF60C5140F0FD702D
:1018A000CEF20001086070472DE9F0411E4643B2B8
:1018B000C0F3C01001EB4008A8F15000C0B2A2F183
:1018C000200723EAE37501F009F8102040EA151417
:1018D000204601F003F805F00F05284600F0FEFF52
:1018E000102EF8B223D144F68411C0F6000101EBAA
:1018F00000164FF0FF3700BFF019407801F09EF856
:101900000137072FF8D1A8F14F00C0B200F0E6FF71
:10191000E0B200F0E3FF284600F0E0FFF41D0825E8
:1019200014F8010F01F08AF8013DF9D111E044F2F9
:101930005C7100EB4000C0F6000101EB40044FF089
:10194000FF3500BF6019407801F078F80135052DAA
:10195000F8D1BDE8F08100007047000041F20401B9
:10196000C4F202010A6822F4404210430860704742
:10197000002941F21C01C4F202010A680CBF22EAEC
:101980000000104308607047002941F21801C4F2BA
:1019900002010A680CBF22EA000010430860704789
:1019A000002941F20C01C4F202010A680CBF22EACC
:1019B000000010430860704710B541F20404C4F2FF
:1019C0000204226802F00C02082A41F20022C0F24E
:1019D0007A0212D12368D4F800C0C3F3834E5FEAC1
:1019E000CC330EF1020C02D523689B0303D540F6DD
:1019F0000012C0F23D020CFB02F20260226844F2C7
:101A00004C73C2F30312C0F600039A5C0168D14024
:101A100041602268C2F302229A5C21FA02F28260DB
:101A20002268C2F3C2229A5C44F24873D140C1607A
:101A30002268C0F60003C2F381329A5CB1FBF2F176
:101A4000016110BD10B582B008200121FFF79CFF95
:101A500040F2803040F60044C1F20300C4F20104B9
:101A6000019001A92046FFF75DF920464FF400716F
:101A7000FFF7BCF920464FF48071FFF7B7F9204615
:101A80008021FFF7B3F902B010BD000070470000DD
:101A90004EF21001CEF200010A68042822F004027E
:101AA00008BF04320A6070477047000082B041F2FC
:101AB0000400C4F2020050F8041C002241F00101AD
:101AC00040F8041C0168CFF6FF021140016050F895
:101AD000041C4FF6FF72CFF6F662114040F8041C6A
:101AE00050F8041C21F4802140F8041C016821F402
:101AF000FE0101604FF41F0141600021019100913E
:101B000050F8041C41F4803140F8041C50F8041CC7
:101B100001F400310091019901310191009919B945
:101B20000199B1F5A06FF1D150F8041CC1F3404107
:101B300000910099012936D142F20001C4F202015C
:101B40000A6842F010020A600A6822F003020A6082
:101B50000A6842F002020A600168016001680160DF
:101B6000016841F480610160016821F47C11016029
:101B7000016841F4E811016050F8041C41F08071E3
:101B800040F8041C50F8041C8901FBD5016821F0C1
:101B900003010160016841F002010160016801F088
:101BA0000C010829FAD14EF60850CEF200004FF091
:101BB0000061016002B0704710B542F60044C4F203
:101BC00001042046012100F039F9002808BF10BDAA
:101BD00020460121BDE8104000F022B980B54FF049
:101BE0008040012100F02AF9002808BF80BDFFF7DE
:101BF000DDF940F2B100C2F20000017869B940F2AB
:101C0000C001C2F200010A780132D3B21E2B0A7061
:101C100003D300220A70012101704FF0804001219E
:101C2000BDE8804000F0FCB8B0B584B00C46054675
:101C300001200121FFF79CFE0020ADF80C00ADF85B
:101C400008000DF106014FF08040ADF80A50ADF8E4
:101C5000064000F009F94FF080400121012200F018
:101C6000F9F84FF08040012100F0DEF804B0B0BD7B
:101C7000B0B540F20044C4F200042046012100F057
:101C8000DDF8002808BFB0BD40F2C100C2F200007C
:101C900001780131CAB2052A01700AD340F2140555
:101CA0000021C2F20005017001F0E0FD287801304A
:101CB000287040F21501C2F200010878002840F2B5
:101CC0001400C2F200000CD1017802290CD30021CB
:101CD000017040F2110140F21500C2F20001C2F29F
:101CE0000000002202700A7020460121BDE8B040C9
:101CF00000F096B8B0B584B00C460546022001212C
:101D0000FFF736FEADF8064040F200440020C4F272
:101D10000004ADF80C00ADF808000DF106012046F6
:101D2000ADF80A5000F0A0F820460121012200F091
:101D300091F82046012100F077F804B0B0BD000012
:101D4000F0B581B040F60004C4F200042046012141
:101D500000F074F8C0B341F6546640F2C857C2F2BE
:101D60000006C2F2000730683D8840F2C811023018
:101D7000C2F200012A46FEF7D5F93068290A01703F
:101D80003878316841F26032487041F6506130680D
:101D9000C2F20001096800F5C870C2F20002884270
:101DA00018BF02460020388020460021326000F033
:101DB0003BF82046002100F055F82046012101B0F3
:101DC000BDE8F04000F02CB801B0F0BDB0B584B073
:101DD0000C46054604200121FFF7CAFDADF8064078
:101DE00040F600040020C4F20004ADF80C00ADF889
:101DF00008000DF106012046ADF80A5000F034F855
:101E000020460121012200F025F82046012100F0A2
:101E100007F82046002100F007F804B0B0BD00002C
:101E2000C9430182704700000288002918BF0121C0
:101E300022F001021144018070470000028A80896B
:101E40000A4000EA010018BF0122002818BF012043
:101E500010407047002A82890CBF22EA0101114319
:101E6000818170478184704740F6FF33B0F800C02D
:101E7000C4F2000398420FDCB0F1804F1ED040F254
:101E80000043C4F20003984218D040F60003C4F2A5
:101E90000003984212D016E040F60043C4F200035B
:101EA00098420BD043F20043C4F20103984205D09C
:101EB00042F60043C4F20103984204D14B882CF04F
:101EC000700243EA020C41F2004240F48063C4F223
:101ED0000002934204D0CA882CF4407342EA030CF7
:101EE000A0F800C08A888285A0F18042A2F59632CF
:101EF0000B884FEAB222072A038507D8012303FA89
:101F000002F212F0E50F1CBF097A018601218182DD
:101F100070470000F0B581B020200021182201F0A8
:101F20001DFE30200021192201F018FE4020002162
:101F30001A2201F013FE502000211B2201F00EFE98
:101F400040F25E77C2F20007387840F2090640F2AC
:101F5000080540F2BA04C2F20006C2F20005C2F25D
:101F6000000488B13078411CC8B2042808BF0121A0
:101F7000C8B20138052831701FD8DFE800F0EC0343
:101F80001C1E031C022017E040F25F70C2F200002A
:101F90000178002900F0CA803178002202290270FD
:101FA00000F0DE80012940F0E180607862289CBF6B
:101FB0000130607003E00320287000203870307812
:101FC000032874D8102002210022102601F0C6FD3B
:101FD00020200221022201F0C1FD30200221252211
:101FE00001F0BCFD40200221272201F0B7FD502066
:101FF00002213A221023FFF757FC10200421062269
:1020000001F0ACFD20200421072201F0A7FD3020C3
:102010000421262201F0A2FD40200421272201F004
:102020009DFD502004213A221023FFF73DFC102093
:102030000621082201F092FD20200621092201F04C
:102040008DFD30200621262201F088FD402006214A
:10205000272201F083FD502006213A221023FFF7AA
:1020600023FC62785A2002210223009601F0B2FD7F
:1020700022785A2004210223009601F0ABFDE27879
:102080005A2006210223009601F0A4FD70200221AF
:10209000032201F063FD7020042125221023FFF7A5
:1020A00003FC7020062125221023FFF7FDFB287872
:1020B00042F620220138C0B2C00042F22A01C0F22A
:1020C0002002C0F2200122FA00F542F22002C140B3
:1020D000C0F22A0222FA00F6CAB20020022110231E
:1020E000FFF7E2FBEAB2002004211023FFF7DCFB3C
:1020F000F2B2002006211023FFF7D6FB6078642897
:1021000024BF632060702078652824BF642020707D
:10211000E078642824BF6420E070A088B0F57A7F5E
:1021200024BF4FF47A70A08001B0F0BD40F260701F
:10213000C2F20000017800293FF441AF317800225B
:10214000022902701BD001291FD1607800281CBF12
:102150000138607033E70120287001F051FC2CE752
:10216000207863289CBF0130207028E703297FF482
:1021700026AFE07863283FF622AF01300DE02078EB
:1021800000281CBF0138207019E703297FF417AF1E
:10219000E07800283FF413AF0138E0700FE700004B
:1021A00010B543F60004C4F20104204640F2255164
:1021B00000F068F8002808BF10BD204640F2255105
:1021C00000F048F8204600F0EBF8C1B22046BDE828
:1021D000104000F0F7B80000B0B540F21100C2F2B4
:1021E0000000007844F20044C4F2000440F2C855F4
:1021F0000028C2F2000520460ED000F0D1F8298850
:1022000040F2C812C2F200025054A4F57050D1B18D
:102210000021FFF727FE19E040F2255100F032F8C7
:10222000B8B144F20440C4F200000088002808BF9E
:10223000B0BD204600F0B4F8298840F2C812C2F2BE
:102240000002505403E00121FFF7EEFD2988481CED
:102250002880B0BD090A012202FA01F1C9430180B8
:10226000704700008289002918BF012122F4005222
:1022700042EA4131818170470088084018BF01203F
:1022800070470000C1F342121423022A08BF102332
:10229000012A08BF0C2301F01F02C35A090A4FF09C
:1022A000010C00880CFA01F1084023FA02F118BF72
:1022B0000120084070470000C1F3421301F01F0CD9
:1022C0001421022B08BF1021012B4FF0010308BF7E
:1022D0000C21002A03FA0CF243580CBF23EA020235
:1022E0001A4342507047000070B586B00446008A19
:1022F0000D46C98820F4405008432082A0894EF63C
:10230000F3110840A9882A896B89084310431843B0
:10231000A081A08AA98920F44070084301AEA08260
:102320003046FFF749FB43F6000106F10800C4F20E
:1023300001018C4208BF06F10C0000681922B4F9B3
:102340000C1050432A680123B1F1FF3FC8BF02239C
:1023500002FA03F1B0FBF1F048F21F51C5F2EB11A4
:10236000A0FB01235A096FF0630302FB0300B4F9D9
:102370000C300326B3F1FF3FC8BF042600FA06F075
:1023800000F13200A0FB01014FF00700C8BF0F2091
:1023900000EA511040EA0210208106B070BD000032
:1023A00080886FF35F20704710B504466FF35F219C
:1023B000818000BF20468021FFF75EFF0028F9D012
:1023C00010BD00006FF35F2181807047FEE70000C1
:1023D000F0B581B0044640F2C8100E46C2F20000CB
:1023E0004FF480611546FDF7C4FE40F2C850C2F2BA
:1023F00000000021018046F24240C0F60000314654
:1024000001F0B2FCF4B140F2C81646F66F17C2F202
:102410000006C0F6000700BF642000F0EFFB304666
:102420002946FDF7B1FE38B9013C3846214601F096
:102430003FFC002CF0D100240020022CB8BF01206A
:1024400001B0F0BD012001B0F0BD00002DE9F04168
:1024500001F0B8FCD1A001F02BFC40F2C814C2F28C
:10246000000420464FF48061FDF783FE40F2C85817
:10247000C2F200080020A8F8000046F24240C0F670
:102480000000CCA101F070FC46F6861646F66F17E8
:102490000A25C0F60006C0F6000700BF642000F061
:1024A000ADFB20463146FDF76FFE38B9013D384699
:1024B000294601F0FDFB002DF0D10025022DC0F2D0
:1024C000EA80C6A001F0F4FB46F2B750C0F6000067
:1024D00001F0EEFBC6A001F0EBFB40F2C814C2F223
:1024E000000420464FF48061FDF743FE0020A8F869
:1024F000000046F24240C0F60000C3A101F034FCE7
:1025000046F68E1646F66F171425C0F60006C0F67E
:10251000000700BF642000F071FB20463146FDF744
:1025200033FE38B9013D3846294601F0C1FB002D84
:10253000F0D10025022DC0F2B18046F67A00C0F637
:10254000000001F0B5FB46F2B750C0F6000001F004
:10255000AFFB46F62810C0F6000001F0A9FB40F2E0
:10256000C814C2F2000420464FF48061FDF701FE5A
:102570000020A8F8000046F24240C0F60000A9A1E1
:1025800001F0F2FB46F6861646F66F170A25C0F6EE
:102590000006C0F6000700BF642000F02FFB2046B5
:1025A0003146FDF7F1FD38B9013D3846294601F0C5
:1025B0007FFB002DF0D10025022D72DB46F65F0077
:1025C000C0F6000001F074FB46F2B750C0F6000000
:1025D00001F06EFB46F61110C0F6000001F068FB3A
:1025E00040F2C814C2F2000420464FF48061FDF7A7
:1025F000C0FD0020A8F8000046F6860046F68911C6
:1026000046F67312C0F60000C0F60001C0F60002E4
:1026100001F0AAFB46F6861646F66F170825C0F6A7
:102620000006C0F6000700BF4FF47A7000F0E6FA2B
:1026300020463146FDF7A8FD38B9013D3846294608
:1026400001F036FB002DEFD10025022D2FDB46F6E1
:102650004A00C0F6000001F02BFB46F2B750C0F66E
:10266000000001F025FB46F6AF00C0F6000001F0C7
:102670001FFB46F6451146F68612C0F60001C0F66D
:1026800000020A20FFF7A4FED8B146F23C700624EF
:10269000C0F6000010E002244AA00DE003245DA073
:1026A0000AE046F2BD700424C0F6000004E046F2E1
:1026B000A4700524C0F6000001F0FAFA2046BDE837
:1026C000F08146F2EE70C0F6000001F0F1FA46F239
:1026D000B750C0F6000001F0EBFA46F6D200C0F6A3
:1026E000000001F0E5FA46F6531146F68612C0F6F0
:1026F0000001C0F600020A20FFF76AFE28B146F288
:1027000061700724C0F60000D6E746F60F00C0F659
:10271000000001F0CDFA46F2B750C0F6000001F01B
:10272000C7FA46F69B00C0F6000001F0C1FA082087
:10273000082400F081F820B146F22670C0F60000AF
:10274000BAE746F2DC70C0F6000001F0B1FA46F2DA
:10275000B750C0F6000001F0ABFA46F6F200C0F642
:10276000000001F0A5FA46F6621146F67C12C0F6AA
:102770000001C0F600021420FFF72AFE28B146F23D
:1027800083700924C0F6000096E7642000F036FA52
:1027900046F62D000024C0F600008DE7312E2053B0
:1027A00065742057494649206D6F64652E2E2E0DA5
:1027B0000A00000041542B43574D4F44453D310D15
:1027C0000A0000005365742057494649206D6F6424
:1027D00065206661696C6564210D0A00536574208B
:1027E00057494649206D6F6465206F6B210D0A00C3
:1027F000322E205265736574206D6F64756C652E82
:102800002E2E0D0A0000000041542B5253540D0A85
:10281000000000005265736574206661696C656430
:10282000210D0A0041542B43574155544F434F4EFD
:102830004E3D300D0A000000F0B581B0044640F274
:10284000C810C2F200004FF48061FDF792FC40F224
:10285000C85040F2AC02C2F200000021C2F20002F5
:102860001268018040F22C0115A0C2F2000101F0B3
:102870007BFA14B340F2C81546F6861646F66F1773
:10288000C2F20005C0F60006C0F600074FF47A70E9
:1028900000F0B4F928463146FDF776FC38B9013C22
:1028A0003846214601F004FA002CEFD10024002024
:1028B000022CB8BF012001B0F0BD012001B0F0BD75
:1028C00041542B43495053544152543D2254435098
:1028D000222C222573222C25640D0A00F0B581B02C
:1028E00040F60004C4F20104054620464FF480512E
:1028F000FEF77EFA20464FF40061FEF779FA204693
:102900004FF40061FEF772FA20464FF48051FEF753
:102910006DFA20464FF48051FEF768FA00277826BA
:1029200014E000BF20464FF40061FEF75FFA204636
:102930004FF480517600FEF75BFA20464FF4805149
:10294000FEF754FA072F07F1010709D270B2B0F170
:10295000FF3FE7DC20464FF40061FEF749FAE6E767
:1029600020464FF48051FEF743FA20464FF4805141
:10297000FEF73CFA20464FF48051FEF737FA002666
:1029800020464FF40061FEF731FA20464FF48051A3
:10299000FEF72EFA20464FF48051FEF727FA072E55
:1029A00006F10106ECD320464FF48051FEF720FAE1
:1029B00020464FF48051FEF719FA20464FF480511B
:1029C000FEF714FA002613E020464FF40061FEF7EC
:1029D0000DFA20464FF480516D00FEF709FA2046AB
:1029E0004FF48051FEF702FA072E06F1010609D2D4
:1029F00068B2B0F1FF3FE7DC20464FF40061FEF71C
:102A0000F7F9E6E720464FF48051FEF7F1F920464A
:102A10004FF48051FEF7EAF920464FF48051FEF75B
:102A2000E7F920464FF40061FEF7E0F920464FF445
:102A3000006101B0BDE8F040FEF7DAB9F0B581B051
:102A400040F60004C4F20104054620464FF48051CC
:102A5000FEF7CEF920464FF40061FEF7C9F9204693
:102A60004FF40061FEF7C2F920464FF48051FEF7A3
:102A7000BDF920464FF48051FEF7B8F900277826BB
:102A800014E000BF20464FF40061FEF7AFF9204686
:102A90004FF480517600FEF7ABF920464FF4805199
:102AA000FEF7A4F9072F07F1010709D270B2B0F1C0
:102AB000FF3FE7DC20464FF40061FEF799F9E6E7B7
:102AC00020464FF48051FEF793F920464FF4805191
:102AD000FEF78CF920464FF48051FEF787F9002766
:102AE000402613E020464FF40061FEF77FF92046B0
:102AF0004FF480517600FEF77BF920464FF4805169
:102B0000FEF774F9072F07F1010709D270B2B0F18F
:102B1000FF3FE7DC20464FF40061FEF769F9E6E786
:102B200020464FF48051FEF763F920464FF4805160
:102B3000FEF75CF920464FF48051FEF757F9002666
:102B400014E000BF20464FF40061FEF74FF9204625
:102B50004FF480516D00FEF74BF920464FF4805141
:102B6000FEF744F9072E06F1010609D268B2B0F16A
:102B7000FF3FE7DC20464FF40061FEF739F9E6E756
:102B800020464FF48051FEF733F920464FF4805130
:102B9000FEF72CF920464FF48051FEF729F9204624
:102BA0004FF40061FEF722F920464FF4006101B0B6
:102BB000BDE8F040FEF71CB980B56FF00400FEF7E9
:102BC00067FF40F20400C2F2000000684DF6836126
:102BD000C4F21B31A0FB010140F25C72480DC2F24D
:102BE00000021070C1F347504FF47A71484340F22D
:102BF0005A71C2F20001088080BD000040F25A7193
:102C0000C2F200010A884EF21001CEF200015043D8
:102C1000486000208860086840F00100086000BF3C
:102C2000086800F001100128FAD0086820F00100BF
:102C3000086000208860704740F25C71C2F20001B9
:102C40000A784EF21001CEF2000150434860002095
:102C50008860086840F00100086000BF086800F064
:102C600001100128FAD0086820F001000860002057
:102C700088607047CCB0FFF79FFF4FF47A6041F651
:102C80001F41FFF7A3F840F2F31041F61F41FEF792
:102C9000CBFFFEF78FFD4FF4A060FEF7FBFDFEF7C4
:102CA00009FDFEF747FDFEF7CDFEFDF7DBFD00F069
:102CB000C3FE01F087F8FDF717FEFDF7C9FEFEF72A
:102CC000F5F9FDF7E5FEFEF74DF940F2BA0142F2E3
:102CD000322040F2B107C2F20001C2F61900C2F27E
:102CE0000007002408603C70C7F80240C7F80540A0
:102CF00000F086FE40F26070C2F20000047040F204
:102D00005F70C2F20000047040F25E70C2F2000018
:102D1000047040F25D70C2F20000047040F2547A18
:102D200040F2180B40F2160840F2190440F21C055C
:102D3000C2F2000AC2F2000BC2F20008C2F20004A2
:102D4000C2F2000503E000BF3220FFF757FFFEF795
:102D50002DF95046FDF7B4FE01200821FEF750F88A
:102D60009BF8001021B3B8F8001042F2934201EB37
:102D700041010844C0F38F01C1F57A61C9F24922CB
:102D800081FB022382085818011101EBD0706421E5
:102D90006428A8BF0846217820EAE0708142A8F89C
:102DA00000201FD2411A0129C8BF20701FE000BFB8
:102DB00042F29342C0F57A61C9F2492281FB0223B3
:102DC000A8F800005818011101EBD07064284FF0EA
:102DD0006401A8BF084620EAE070012120708BF84A
:102DE000001005E003D9091A022900DB20702078C1
:102DF000687005200521FEF703F848F69D714143F0
:102E0000A0EB1140400800EB114040092870FEF78C
:102E1000EBFA40F21100C2F20000007820B100F09D
:102E2000C5F8C82008E000BF40F20200C2F200006E
:102E30000088002861D0013840F20201C2F200018E
:102E40000880387800283FF47FAF40F21100C2F2CA
:102E50000000007800283FF477AF40F21000C2F283
:102E60000000007800283FF46FAF40F2B000C2F2DB
:102E70000000007800283FF467AF9AF8020040F2A3
:102E8000BA010B906878C2F200010A9008782246D5
:102E90004C78CE7840F21301C2F2000197F805E0B9
:102EA00095F800C02B460D7897F803903979CDF846
:102EB00024E0CDE900C41446CDE9026004951D4626
:102EC000CDE905190DF1310946F282310B9ADDE9A0
:102ED00009634846C0F60001079600F09BFF48468C
:102EE000FDF764F9024646F27430C0F60000494628
:102EF00000F0E0FC0020387026E700F057F840F2C0
:102F00001100C2F20000007800289AD14FF4167028
:102F100092E7000070B582B0144601AA0D4606463D
:102F200000F030FD20B10198002818BF012014E006
:102F300030462946FDF728F980B114A10546FDF772
:102F400023F948B912A12846FDF71EF920B911A1AD
:102F50002846FDF719F918B10120207002B070BDA4
:102F60000EA12846FDF710F948B90DA12846FDF736
:102F70000BF920B90BA12846FDF706F908B100208E
:102F8000EBE72078B0FA80F04009E6E74F6E0000EA
:102F90004F4E00006F70656E000000004F666600C7
:102FA0004F464600636C6F73650000002DE9F04FDB
:102FB00081B040F21106C2F20006307858B342F6F2
:102FC000541842F6501AC2F20008C2F2000AD8F8A9
:102FD0000000DAF8001088426ED08178102958D1AC
:102FE0000FF2F07000F064FED8F8000000F092FEDE
:102FF00042F64C11D8F80000C2F20001096841F60F
:103000005C6200F5C870C2F20002884218BF024636
:10301000C8F8002050E040F21000C2F20000002783
:10302000077040F2B000C2F20000077040F21500D5
:10303000C2F20000077040F21400C2F200000770F4
:1030400040F2C81040F20048C2F200004FF4806124
:10305000C4F20008FDF78DF840F2C85408F5806509
:10306000C2F20004284600212780FEF7DDFE40461C
:103070000021FEF7D9FE46F24740C0F6000000F0FE
:1030800017FEFFF7E3F9002800F0978001B0BDE8D4
:10309000F08F40F21000C2F20000007881F082024E
:1030A000C0B280F0010010439AD040F2B000C2F2EA
:1030B00000000078012893D041F6586741F6546922
:1030C000C2F20007C2F200093868D9F8001041F2D4
:1030D0005C3541F2583B8842C2F20005C2F2000B57
:1030E00000F09F81817841F6506241F260348F296F
:1030F000C2F20002C2F200044CDC202900F0C180C0
:10310000302940F086810FF2E0609146A84600F039
:10311000CFFD386801220138002100BF90F904304A
:10312000013003F07F0602FB0611D201002BF5D41B
:10313000828812BAA1EB124100EB1240DBF80020AA
:103140008D1E811D901C2A46FCF7ECFFE81705EB4D
:103150001060DBF80010000A0870DBF800000021A6
:103160004570DBF8000040F664022844817041F2AB
:103170005431DBF80000C2F20001096800F5C870A4
:10318000C2F20002884218BF0246CBF80020454632
:103190004A463EE1902900F08B80D02940F03981E9
:1031A0000FF26860164600F083FD40F21500C2F28F
:1031B00000000121324601702BE10120307046F2FF
:1031C0002040C0F6000000F073FD40F2C810C2F2CB
:1031D00000004FF48061FCF7CCFF42F6501041F63E
:1031E0005C61C2F20000C2F20001016042F65410BC
:1031F000C2F20000016001F5166042F64C11C2F205
:103200000001086041F6546041F26031C2F20000F2
:10321000C2F20001016041F65860C2F20000016094
:1032200001F5166041F65061C2F20001086041F2FA
:10323000583040F66401C2F20000C2F200010160A1
:1032400041F25C30C2F20000016001F5166041F20B
:103250005431C2F2000127800860FEF721F946F2DE
:103260005B60C0F600000121FEF7BEF9284601218F
:10327000FEF7DAFD4046012101B0BDE8F04FFEF750
:10328000D3BD4079052800F2BA801646DFE800F089
:1032900003ADA3A89EB246F20240C0F6000000F0C3
:1032A00007FD40F21000C2F2000001210170AFE002
:1032B000807901282BD10FF28C5000F0F9FC40F2FC
:1032C000B000C2F20000012101704EF65F2041F60D
:1032D0001F41FEF70FFD40F2150040F26175C2F28A
:1032E00000000021C2F2000501702846FCF75EFFD5
:1032F00002460FF26450294600F0DCFA41F25C35D8
:1033000041F65062C2F20005C2F2000281E00FF203
:10331000145000F0CDFC40F210010020C2F2000178
:10332000087040F2B001C2F20001087040F21501CD
:10333000C2F200013070087040F2140141F65C6680
:10334000C2F20001C2F20006087030464FF42F614D
:10335000FCF70FFF20464FF42F61FCF70AFF40F601
:103360006405C2F2000528464FF42F61FCF701FF07
:1033700042F64C1106F51660C2F20001CAF8006070
:10338000C8F80060086041F6506641F25C3104F50F
:103390001660C2F20006C2F200013060CBF80050A5
:1033A0000D6005F516600D4641F25431C2F2000180
:1033B000C9F800403C600860FEF772F846F25B60B6
:1033C000C0F600000121FEF70FF921E046F263404C
:1033D000C0F6000018E046F2F940C0F6000013E025
:1033E00046F24050C0F600000EE046F27A50C0F6B9
:1033F000000009E046F2A740C0F6000004E046F2F3
:10340000D840C0F60000164600F052FCFDF762FE00
:1034100032463868116800F5C870884218BF044603
:103420003C602868DBF8001088423FF42FAE811C16
:1034300046F23B40C0F6000000F03AFC286846F235
:103440009361841CC0F6000120462F46FCF79CFEC9
:1034500040F21305C2F2000538B946F28361C0F6A6
:1034600000012046FCF790FE18B100F0C9FA0120D7
:10347000287046F21961C0F600012046FCF784FE70
:1034800038B946F20B71C0F600012046FCF77CFE0D
:1034900018B100F0B5FA0020287046F29A61C0F623
:1034A00000012046FCF770FE38B946F27061C0F6A4
:1034B00000012046FCF768FE18B100F0A1FA0220D6
:1034C000287046F27E61C0F600016A46204600F090
:1034D00059FA28B1009E022E02D800F091FA2E70FF
:1034E00040F2B106C2F20006F51C46F2C551C0F624
:1034F000000120462A46FFF70DFDDBA120462A46A3
:10350000FFF708FD351D46F2D851C0F600012046F0
:103510002A46FFF7FFFC46F21071C0F60001204674
:103520002A46FFF7F7FC46F2C761C0F600012046C5
:10353000FCF72AFE00281CBF0120307146F28A6188
:10354000C0F600012046FCF71FFE00281CBF00202B
:10355000307146F2EB51721DC0F600012046FFF7B4
:10356000D9FC46F2FE51B21DC0F600012046FFF71D
:10357000D1FC46F21161F21DC0F600012046FFF7B2
:10358000C9FC46F2CF61C0F600012046FCF7FCFD05
:1035900040F2BA05C2F2000520B1687800281CBFCD
:1035A0000138687046F22361C0F600012046FCF73E
:1035B000EBFD20B1687862289CBF0130687046F24C
:1035C000DE61C0F600012046FCF7DEFD20B1A878E0
:1035D00000281CBF0138A87046F23161C0F6000116
:1035E0002046FCF7D1FD20B1A87863289CBF0130AC
:1035F000A87046F2ED61C0F600012046FCF7C4FD5C
:1036000020B1E87800281CBF0138E87046F23F611D
:10361000C0F600012046FCF7B7FD20B1E87863282A
:103620009CBF0130E87046F2FC61C0F60001204604
:10363000FCF7AAFD20B1287800281CBF01382870AB
:1036400046F24D61C0F600012046FCF79DFD20B119
:10365000287863289CBF0130287046F21E71C0F69E
:1036600000016A46204600F08DF918B10098002844
:103670000DD510E046F2BA51C0F600016A46204668
:1036800000F080F938B10098B0F1FF3F03DD0098F9
:103690006328D8BF687046F2AE61C0F600016A4682
:1036A000204600F06FF918B1009800280DD510E001
:1036B00046F2CD51C0F600016A46204600F062F99C
:1036C00038B10098B0F1FF3F03DD00986428D8BFFF
:1036D000A87046F2A661C0F600016A46204600F0D6
:1036E00051F948B946F2B661C0F600016A46204673
:1036F00000F048F900285ED00098002803D4009814
:103700006428D8BFE87046F2BE61C0F600016A4680
:10371000204600F037F918B1009800280DD510E0C8
:1037200046F2F351C0F600016A46204600F02AF93D
:1037300038B10098B0F1FF3F03DD00986428D8BF8E
:10374000287046F21571C0F600016A46204600F066
:1037500019F918B1009800280DD511E046F206615C
:10376000C0F600016A46204600F00CF940B100980E
:10377000B0F1FF3F04DD0098B0F57A7FD8BFA88094
:103780003C680120B0703070A01C4FF4C771FCF78A
:10379000F0FC41F25431C2F20001096840F66402C3
:1037A00004F5C870C2F20002884218BF02463A60AF
:1037B00001B0BDE8F08F46F2E051C0F600016A4664
:1037C000204600F0DFF800289DD00098B0F1FF3FC0
:1037D00095DC98E753656E6420646174613A20302B
:1037E0007825780D0A0000004D515454E69C8DE573
:1037F0008AA1E599A8E68EA8E98081E79A84E58602
:1038000085E5AEB9E698AF0D0A00000050696E6715
:10381000E59B9EE5A48DE6ADA3E5B8B8EFBC810DB0
:103820000A000000E8AEA2E99885E5A4B1E8B4A5D5
:10383000EFBC8CE58786E5A487E9878DE590AF0D21
:103840000A000000E8AEA2E99885E68890E58A9F24
:103850000D0A0D0A00000000536D617274686F6DEF
:10386000655075623200000046616E0042F65810E5
:10387000C2F20000C021018042F65011C2F20001E4
:103880000A68002313700A68022353700A680088CC
:1038900041F65C63508042F64C120868C2F20002A6
:1038A000126800F5C870C2F20003904218BF0346C8
:1038B0000B6070472DE9F04F81B09146884607466E
:1038C000FCF774FC023000EB090A42F65814C2F20D
:1038D00000043020BAF1010F20700EDB01205146A8
:1038E00041F08002802938BF01F07F02C909451CE0
:1038F000225400292846F3D100E001253846FCF780
:1039000055FC000A605538466619FCF74FFC70708C
:10391000AE1C384604EB060BFCF748FC0246584642
:103920003946FCF7FFFB3846FCF740FC30442044A6
:1039300041464A46FCF7F6FB0AEB050242F65015F3
:10394000D017C2F2000502EB10602968000A087067
:1039500028682146427028680230FCF7E3FB42F6F3
:103960004C112868C2F20001096841F65C6200F55A
:10397000C870C2F20002884218BF02462A6001B035
:10398000BDE8F08F70B514460D46FCF7FDFBF8B1AD
:1039900006462846FCF70AFC304400BF013010F808
:1039A000011C392906DD3A2909D07D2910D03D298D
:1039B000F4D104E061B12C29F0D109E001300178A3
:1039C00041F00202222AF9D03A3911F10A0F01D24C
:1039D000002070BD0178A1F13002092A0CD8002224
:1039E00002EB820201EB420210F8011F303AA1F112
:1039F00030030A2BF4D300E000220120226070BDC6
:103A0000B0B5002444F0B000C0B2FEF767FF00205C
:103A10000025FEF763FF1020FEF760FF0020FFF790
:103A20000DF8681C45B2B5F1FF3FF7DCE0B2013498
:103A3000072828BFB0BDE5E7B0B582B0042001215A
:103A4000FDF7A2FF41F2000040F60004C1F20300BE
:103A5000C4F2010401AD019020462946FDF762F948
:103A60004FF40060ADF8040020462946FDF75AF9EE
:103A700020464FF48051FDF7BBF920464FF400611A
:103A8000FDF7B6F9AE20FEF729FF00200024FEF76F
:103A900025FF1020FEF722FF4020FEF71FFFB02079
:103AA000FEF71CFF8120FEF719FFFF20FEF716FF2F
:103AB000A120FEF713FFA620FEF710FFA820FEF7B7
:103AC0000DFF3F20FEF70AFFC820FEF707FFD320B7
:103AD000FEF704FF0020FEF701FFD520FEF7FEFEF3
:103AE0008020FEF7FBFED820FEF7F8FE0520FEF74B
:103AF000F5FED920FEF7F2FEF120FEF7EFFEDA2008
:103B0000FEF7ECFE1220FEF7E9FEDB20FEF7E6FEF4
:103B10003020FEF7E3FE8D20FEF7E0FE1420FEF7D6
:103B2000DDFEAF20FEF7DAFE44F0B000C0B2FEF7D3
:103B3000D5FE00200025FEF7D1FE1020FEF7CEFEB8
:103B40000020FEF77BFF681C45B2B5F1FF3FF7DCB4
:103B5000E0B201340728E7D302B0B0BD2DE9F0414F
:103B60000646A1F15000C0B217468846FEF7B6FEE1
:103B7000300900F110052846FEF7B0FE06F00F06EA
:103B80003046FEF7ABFE44F67470C0F6000000EB62
:103B9000C7174FF0FF3400BF38194078FEF74EFFCB
:103BA00001340F2CF8D1A8F14F00C0B2FEF796FEF9
:103BB0002846FEF793FE3046FEF790FE3F2400BFF6
:103BC00038194078FEF73AFF01344F2CF8D1BDE8A0
:103BD000F0810000002B08BF70472DE9F04F81B045
:103BE00007460A981C4692468B46A3F101094508F0
:103BF00000264FF000080EE04FF0010805FB0671AB
:103C000040F03002C8B2D2B259460A9BFDF74CFED2
:103C10000136A64227D0F0432044010608D00121F6
:103C2000013801EB810102064FEA4101F8D100E0C1
:103C30000121BAFBF1F04CF6CD41CCF6CC41A0FB12
:103C40000112D10801EB8101B8F1000FA0EB410096
:103C5000D4D1B145D2DD0028CED105FB067059463E
:103C6000C0B22022D1E701B0BDE8F04F704700009C
:103C70002DE9F04115461278002A08BFBDE8F08111
:103C800098460E4607460024F8B2F1B2D2B2434637
:103C9000FDF70AFE0837F8B201347828E0B288BF91
:103CA00002362A5C88BF0027002AEDD1BDE8F081EA
:103CB00083B0F0B582B040F2C805064607A8C2F24C
:103CC00000050EC043F6000407AA28463146C4F298
:103CD0000104019200F0B2F82846FCF767FA68B1D7
:103CE00006460027E85DA08020468021FEF7C4FA42
:103CF0000028F9D00137B742F4D100BF2046402157
:103D0000FEF7BAFA0028F9D002B0BDE8F04003B0DF
:103D100070470000F0B581B044F200450446C4F29B
:103D2000000500BF28464021FEF7A6FA0028F9D07A
:103D30002088002100BAB1EB104F13D0012600BF3C
:103D4000771CE15D2846FEF73DFB00BF2846402179
:103D5000FEF792FA0028F9D0208800BAB6EB104F8F
:103D60003E46EDD301B0F0BD83B070B581B040F2F6
:103D7000D056054605A8C2F200060EC044F2004423
:103D800005AA30462946C4F20004009200F056F815
:103D90003046FCF70BFA48B10546013E16F8011F04
:103DA0002046FEF701FB013DF8D100BF204640212F
:103DB000FEF762FA0028F9D001B0BDE8704003B008
:103DC0007047000010B582B010200121FDF7DCFD26
:103DD00044F2000041F20004C1F20300C4F2010405
:103DE000019001A92046FCF79DFF20464FF4804139
:103DF0000022FCF7FFFFFA20FEF700FF20464FF4F9
:103E000080410122FCF7F6FF4FF4FA70FEF7F6FE50
:103E100002B010BD0FB4084B10B504A902AA039854
:103E200000F0F0F8044602A9002000F082FC2046D1
:103E300010BC5DF814FB00003347000837B514468A
:103E40000846064B6A46214600F0DCF804466946FF
:103E5000002000F06EFC20463EBD00003347000805
:103E600002E008C8121F08C1002AFAD17047704743
:103E7000002001E001C1121F002AFBD170470000A1
:103E80002DE9FF5F82B00021DDE90430020DDDF88D
:103E900040B0034318D044F61050A2F2FF32424320
:103EA0001514119801281FD0A5EB0B00401C5FEAE8
:103EB000000A4FF000064E4FDFF83891B0465046EA
:103EC00015D5CAF1000413E0119801244AA3012872
:103ED00001D16FEA0B010298119AC0E90031C0E9E3
:103EE000024206B0BDE8F09FCBF10000DFE70446D8
:103EF0000021404A491842EB0450CDE9001012E07D
:103F0000E00707D032463B4640464946FCF743FAB5
:103F10008046894632463B4610461946FCF73BFA36
:103F200006460F466410002CEAD1DDE90401DDE904
:103F30000023BAF1000F06DAFCF72DFA42464B4691
:103F4000FCF729FA05E0FCF798FA42464B46FCF7E5
:103F500094FA04460E460022284BFCF715FB03D8C2
:103F60004FF0FF30014607E00022254B2046314646
:103F7000FCF76AF9FCF7F0FA102409E0002C0ADBE0
:103F80000A220023FCF72FF9039B30321A55641ED6
:103F900050EA0102F2D1641C039AC4F111031444E3
:103FA000119A012A03D0012208430DD10AE00843E7
:103FB00004D000204FF0110B119072E7A3EB0B051A
:103FC0006D1E0DE05B4504DD4FF0000205F10105BB
:103FD00004E003DA4FF00002A5F10105002AECD05D
:103FE00002981199C0E90231C0E9004579E7000063
:103FF000000014400000F03F300000000000F043DB
:104000000000E03F2DE9FF4F95B09B4689460646EC
:1040100000250FE2252877D100242746F84A012100
:10402000059400E0044316F8013F203B01FA03F039
:104030001042F7D130782A2811D06FF02F03307852
:10404000A0F13002092A16D8059A44F0020402EBC6
:10405000820203EB42021044761C0590EFE759F808
:10406000042B0592002A03DA504244F400540590D0
:1040700044F00204761C30782E2816D116F8010F71
:1040800044F004042A280DD06FF02F023078A0F1FC
:104090003003092B09D807EB870302EB4303C7184A
:1040A000761CF3E759F8047B761C30786C280FD027
:1040B00006DC4C2817D068280DD06A2814D104E0FB
:1040C000742810D07A280FD10DE044F400140AE0CF
:1040D00044F4801401E044F440147278824202D126
:1040E00004F58014761C761C307866280BD013DC1F
:1040F000582877D009DC002875D04528F6D0462806
:10410000F4D047281AD19DE118E0632835D06428FF
:1041100079D0652812D195E1702873D008DC672822
:10412000F1D069286FD06E280DD06F2806D1B5E088
:1041300073282CD0752875D0782874D05A461799D2
:1041400090476D1C75E1C4F30250022809D0032882
:104150000DD0D9F8001004280DD00D6009F1040924
:1041600067E1D9F80010EA17C1E90052F6E7D9F87B
:1041700000100D80F2E70D70F0E719F8041B8DF8C0
:10418000001000208DF80100EA46012003E059F8F4
:1041900004AB4FF0FF3061074FF0000102D40DE097
:1041A00008F101018846B9420FDA8045F8DB1AF8B8
:1041B00008100029F4D108E008F101018846814285
:1041C000FADB1AF808100029F6D105985B46A0EB37
:1041D000080721463846179A00F094FA284400EB65
:1041E000080507E04DE029E10DE01AF8010B5A46F9
:1041F00017999047B8F10108F7D25B462146384637
:10420000179A13E142E00A220092C4F302524FF0DF
:10421000000A022A08D059F804CB032A4FEAEC71AD
:104220000AD00DE029E02AE009F1070121F0070298
:10423000F2E802C1914609E00FFA8CFC4FEAEC71FA
:10424000042A03D14FFA8CFC4FEAEC71002907DAFB
:104250000A460021DCF1000C61EB02012D2202E094
:10426000220504D52B228DF80420012203E0E20769
:1042700001D02022F7E7904659E00A2102E01022FF
:104280000DE010214FF0000A00910BE010224FF0DA
:10429000000A44F004040827009203E008224FF0CB
:1042A000000A0092C4F30252022A05D059F804CB46
:1042B0000021032A08D009E009F1070121F00702D3
:1042C000F2E802C1914605E01FFA8CFC042A01D1F4
:1042D0000CF0FF0C4FF00008220728D5702806D0FC
:1042E000009B83F0100353EA0A0305D00EE040223E
:1042F0008DF80420012208E05CEA010206D0302299
:104300008DF804208DF8050002229046009B83F072
:10431000080353EA0A030AD15CEA010201D16207E9
:1043200005D530228DF804204FF001087F1E582853
:1043300004D034A003900EA802900DE036A0F9E757
:1043400053466046009AFBF74EFF84460398825C12
:104350000298401E029002705CEA0100F0D10298BF
:1043600006A9081A00F1200A600702D524F4803457
:1043700000E00127574502DDA7EB0A0000E000201E
:1043800000EB0A01009005984144401A0590E003B3
:1043900006D45B462146179A059800F0B3F9054408
:1043A000002706E001A85A46C05D179990476D1C8A
:1043B0007F1C4745F6DBE0030CD55B462146179A88
:1043C000059800F09FF9054404E030205A461799FB
:1043D00090476D1C0099481E00900029F5DC08E00C
:1043E000029802995A460078491C02911799904701
:1043F0006D1CBAF10001AAF1010AF1DC65E10000CF
:1044000009280100303132333435363738396162AA
:10441000636465660000000030313233343536376E
:1044200038394142434445460000000000F058F945
:104430000544761C307800287FF4ECAD19B028468E
:10444000BDE8F08F620700D4062709F1070222F0C9
:10445000070CFCE80223E14603F000485FEA080C81
:1044600002D00FF2702C0DE05FEA045C02D50FF26F
:10447000682C07E05FEAC47C02D00FF2602C01E0F8
:10448000AFF2700C4FF0FF3823F00043CDF850C06E
:1044900065280CD006DC452809D046281DD04728C1
:1044A0003DD13DE0662818D067287ED138E0002154
:1044B000112F01DB112000E0781CCDE9000106A9D5
:1044C0000EA8FFF7DDFCDDE90F010E9A0391002134
:1044D000009207F1010A04914DE04FF0004000976F
:1044E000CDE9011006A90EA8FFF7CAFCDDE90F020D
:1044F00003920E9B11990022DDF80CA00093049208
:1045000011B9791C00EB010AB7EB0A0004D4C0F121
:10451000FF3007F1010A0490AAEB0700019044E084
:10452000012F00DA01270021112F01DD112000E009
:104530003846CDE9000106A90EA8FFF7A1FCDDE988
:104540000F010E9A0391002104910092BA462107AF
:104550000CD40399514500DA8A46BAF1010F05DD02
:10456000009AAAF10101515C302908D0B84202DA60
:1045700010F1040F06DA0121CDE9011015E0AAF1CE
:104580000101E9E7002805DC049901440491AAEB44
:10459000000102E0411C514500DD8A460499401AA1
:1045A000401C01904FF000400290200704D4019875
:1045B000504501DBCDF8048000208DF84F000298B3
:1045C0000DF14F07B0F1004F25D02B200E9002982F
:1045D0004FF0020800280CDA404202902D200E9085
:1045E00007E00A210298FBF7E8FD3031029007F856
:1045F000011DB8F10001A8F10108F2DC02980028C1
:10460000EFD1791E0E980870307800F0200040F04D
:10461000450007F8020D12A8C01B00F10708149806
:10462000007800B1012000EB0A01019801EBE07174
:1046300005984144401A401E0590E00306D45B46AD
:104640002146179A059800F05DF805441498007803
:1046500018B15A46179990476D1CE00324D55B4664
:104660002146179A059800F04DF805441CE004987F
:10467000002807DBDDE90301884203DD0098405C88
:10468000179901E0179930205A469047049805F190
:104690000105401C04900198401E019004D12E2079
:1046A0005A46179990476D1CBAF10001AAF1010A08
:1046B000DDDC05E017F8010B5A46179990476D1C91
:1046C000B8F10001A8F10108F4DC5B462146179A15
:1046D0000598ABE62D0000002B0000002000000034
:1046E0002DE9F041044600251E461746880404D4EF
:1046F00005E039462020B0476D1C641EF9D52846D8
:10470000BDE8F0812DE9F041044600251E469046A3
:10471000C80301D5302700E02027880404D505E030
:1047200041463846B0476D1C641EF9D52846BDE8A1
:10473000F0810A68531C0B6010707047B4000020B1
:10474000B5000020B60000200204060800000000AA
:104750000102030401020304060708090000000027
:1047600000000000002F00000000070007000014F8
:104770007F147F1400242A7F2A1200626408132306
:1047800000364955225000000503000000001C229D
:104790004100000041221C000014083E08140008DB
:1047A000083E0808000000A060000008080808088B
:1047B000000060600000002010080402003E514923
:1047C000453E0000427F40000042615149460021C1
:1047D00041454B31001814127F10002745454539DB
:1047E000003C4A4949300001710905030036494936
:1047F000493600064949291E0000363600000000EF
:104800005636000000081422410000141414141439
:1048100000004122140800020151090600324959E2
:10482000513E007C1211127C007F49494936003EFE
:1048300041414122007F4141221C007F49494941B9
:10484000007F09090901003E4149497A007F0808B3
:10485000087F0000417F4100002040413F01007F70
:1048600008142241007F40404040007F020C027F3C
:10487000007F0408107F003E4141413E007F09094E
:104880000906003E4151215E007F09192946004674
:10489000494949310001017F0101003F4040403F4B
:1048A000001F2040201F003F4038403F0063140895
:1048B0001463000708700807006151494543000070
:1048C0007F41410000552A552A55000041417F0093
:1048D0000004020102040040404040400000010288
:1048E0000400002054545478007F48444438003871
:1048F0004444442000384444487F003854545418F9
:1049000000087E0901020018A4A4A47C007F08040A
:1049100004780000447D4000004080847D00007FDA
:10492000102844000000417F4000007C04180478F7
:10493000007C0804047800384444443800FC2424F3
:1049400024180018242418FC007C080404080048DB
:104950005454542000043F444020003C4040207CFC
:10496000001C2040201C003C4030403C00442810EB
:104970002844001CA0A0A07C004464544C4414149F
:1049800014141414000000000000000000000000D7
:1049900000000000000000F80000000000000033EC
:1049A0003000000000100C06100C06000000000093
:1049B0000000000040C07840C0784000043F04047C
:1049C0003F040400007088FC08300000001820FF3D
:1049D000211E0000F008F000E018000000211C0378
:1049E0001E211E0000F00888700000001E212324F4
:1049F0001927211010160E00000000000000000012
:104A000000000000000000E01804020000000007A1
:104A10001820400000020418E000000000402018A8
:104A200007000000404080F0804040000202010F7B
:104A300001020200000000F0000000000101011F5F
:104A400001010100000000000000000080B07000C3
:104A50000000000000000000000000000001010153
:104A600001010101000000000000000000303000E2
:104A700000000000000000008060180400601806BC
:104A80000100000000E010080810E000000F1020F6
:104A900020100F00001010F8000000000020203F40
:104AA00020200000007008080888700000302824CA
:104AB000222130000030088888483000001820206B
:104AC00020110E000000C02010F800000007042490
:104AD000243F240000F808888808080000192120D5
:104AE00020110E0000E0108888180000000F11202F
:104AF00020110E0000380808C83808000000003FE8
:104B0000000000000070880808887000001C222146
:104B100021221C0000E010080810E00000003122F3
:104B200022110F00000000C0C00000000000003093
:104B300030000000000000800000000000008060E5
:104B40000000000000008040201008000001020466
:104B5000081020004040404040404000040404044D
:104B60000404040000081020408000000020100809
:104B700004020100007048080808F000000000303E
:104B800036010000C030C828E810E00007182724CC
:104B900023140B000000C038E0000000203C23027A
:104BA0000227382008F8888888700000203F2020DD
:104BB00020110E00C030080808083800071820200F
:104BC0002010080008F808080810E000203F202006
:104BD00020100F0008F88888E8081000203F2020E7
:104BE0002320180008F88888E8081000203F2000DB
:104BF00003000000C0300808083800000718202013
:104C0000221E020008F808000008F808203F2101D1
:104C100001213F20000808F8080800000020203F7C
:104C20002020000000000808F8080800C0808080EC
:104C30007F00000008F888C028180800203F2001E5
:104C40002638200008F8080000000000203F20203F
:104C50002020300008F8F800F8F80800203F003F56
:104C6000003F200008F830C00008F808203F20006E
:104C700007183F00E01008080810E0000F1020207F
:104C800020100F0008F808080808F000203F210154
:104C900001010000E01008080810E0000F182424AB
:104CA00038504F0008F8888888887000203F20001E
:104CB000030C3020007088080808380000382021D4
:104CC00021221C00180808F8080818000000203FDE
:104CD0002000000008F808000008F808001F202045
:104CE00020201F000878880000C838080000073816
:104CF0000E010000F80800F80008F800033C070067
:104D0000073C0300081868808068180820302C03CE
:104D1000032C30200838C800C83808000000203FA5
:104D20002000000010080808C83808002038262194
:104D300020201800000000FE020202000000007F98
:104D400040404000000C30C00000000000000001A6
:104D50000638C00000020202FE0000000040404091
:104D60007F000000000004020202040000000000B6
:104D70000000000000000000000000008080808033
:104D8000808080800002020400000000000000001B
:104D900000000000000080808080000000192422B4
:104DA00022223F2008F8008080000000003F1120F0
:104DB00020110E000000008080800000000E1120F5
:104DC00020201100000000808088F800000E1120D3
:104DD00020103F200000808080800000001F2222E1
:104DE00022221300008080F0888888180020203F4D
:104DF000202000000000808080808000006B949460
:104E00009493600008F8008080800000203F21001B
:104E100000203F2000809898000000000020203FE4
:104E200020200000000000809898000000C08080D2
:104E3000807F000008F8000080808000203F24026E
:104E40002D302000000808F8000000000020203F5E
:104E5000202000008080808080808000203F200013
:104E60003F20003F8080008080800000203F2100A4
:104E700000203F200000808080800000001F202054
:104E800020201F00808000808000000080FFA12083
:104E900020110E000000008080808000000E112094
:104EA00020A0FF80808080008080800020203F2123
:104EB00020000100000080808080800000332424D6
:104EC00024241900008080E0808000000000001F82
:104ED000202000008080000000808000001F202033
:104EE00020103F20808080000080808000010E30F4
:104EF0000806010080800080008080800F300C0355
:104F00000C300F0000808000808080000020312E57
:104F10000E312000808080000080808080818E7033
:104F20001806010000808080808080000021302CE5
:104F30002221300000000000807C020200000000FE
:104F4000003F404000000000FF00000000000000A3
:104F5000FF0000000002027C800000000040403F93
:104F6000000000000006010102020404000000002D
:104F70000000000000448C1800FCA4A4A4A4A4A475
:104F800024FC000000000000000000000000000001
:104F90000000000000000000000000000000000011
:104FA0000000000000000000000000000000000001
:104FB0000000000000C03887F88484FC8484FC84EE
:104FC00085FC8000000000000000000000000000E0
:104FD00000000000000000000000000000000000D1
:104FE00000000000000000000000000000000000C1
:104FF000000000000040841810FCA4A4A4A4A4A4F1
:10500000A4FC000000000000000000000000000000
:105010000000000000000000000000000000000090
:105020000000000000000000000000000000000080
:105030000000000000C03A85829CA0FF8080FF80B5
:10504000908C8000000000000000000000000000C4
:105050000000000000000000000000000000000050
:105060000000000000000000000000000000000040
:105070000000000000F0082828F828282C2828F82C
:1050800028280800000000000000000000000000C8
:105090000000000000000000000000000000000010
:1050A0000000000000000000000000000000000000
:1050B00000000000807F8084848C556525655595AF
:1050C0008C80800000000000000000000000000054
:1050D00000000000000000000000000000000000D0
:1050E00000000000000000000000000000000000C0
:1050F00000000000000018A8D82010101010103078
:105100007800000000000000000000000000000027
:10511000000000000000000000000000000000008F
:10512000000000000000000000000000000000007F
:1051300000000000000000071F3020202020201069
:105140001800000000000000000000000000000047
:10515000000000000000000000000000000000004F
:10516000000000000000000000000000000000003F
:1051700000000000003840FE403880E098848084C1
:105180009820C08000000000000000000000000027
:10519000000000000000000000000000000000000F
:1051A00000000000000000000000000000000000FF
:1051B0000000000000310DFF05198040300F808095
:1051C000807F0000000000000000000000000000E0
:1051D00000000000000000000000000000000000CF
:1051E00000000000000000000000000000000000BF
:1051F0000000000000008060180000FC00000008B3
:1052000010608000000000000000000000000000AE
:10521000000000000000000000000000000000008E
:10522000000000000000000000000000000000007E
:105230000000000000808888888888FF8888888827
:1052400088888000000000000000000000000000CE
:10525000000000000000000000000000000000004E
:10526000000000000000000000000000000000003E
:105270000000000000808088F08080FE8080C0A058
:105280009884800000000000000000000000000082
:10529000000000000000000000000000000000000E
:1052A00000000000000000000000000000000000FE
:1052B0000000000000808040300F000000FF808070
:1052C000808070000000000000000000000000006E
:1052D00000000000000000000000000000000000CE
:1052E00000000000000000000000000000000000BE
:1052F0000000000000FC4444FC0044243C244444DE
:10530000447C0000000000000000000000000000DD
:10531000000000000000000000000000000000008D
:10532000000000000000000000000000000000007D
:1053300000000000008F78080F20C709097989094B
:10534000196F800000000000000000000000000055
:10535000000000000000000000000000000000004D
:10536000000000000000000000000000000000003D
:105370000000000000004040404040FF40404040EE
:1053800040000000000000000000000000000000DD
:10539000000000000000000000000000000000000D
:1053A00000000000000000000000000000000000FD
:1053B00000000000404040404040407F40404040AE
:1053C000404040000000000000000000000000001D
:1053D00000000000000000000000000000000000CD
:1053E00000000000000000000000000000000000BD
:1053F000000000001010FF100082BAEABA83BAEA77
:10540000BA82000000000000000000000000000060
:10541000000000000000000000000000000000008C
:10542000000000000000000000000000000000007C
:105430000000000008180F04484A2AFF8A4A1A2F61
:105440005A8A8800000000000000000000000000F0
:10545000000000000000000000000000000000004C
:10546000000000000000000000000000000000003C
:10547000000000001060020CC00088884F582454BF
:1054800084E40000000000000000000000000000B4
:10549000000000000000000000000000000000000C
:1054A00000000000000000000000000000000000FC
:1054B0000000000004047C03008242320E02023E1F
:1054C00042427200000000000000000000000000E6
:1054D00000000000000000000000000000000000CC
:1054E00000000000000000000000000000000000BC
:1054F00000000000040404846F040404E4048F44E6
:10550000240404000000000000000000000000006F
:10551000000000000000000000000000000000008B
:10552000000000000000000000000000000000007B
:1055300000000000040201FF001008043F41404049
:105540004040780000000000000000000000000063
:10555000000000000000000000000000000000004B
:10556000000000000000000000000000000000003B
:1055700000000000001010FE101010F000F80808E5
:105580000808F80000000000000000000000000013
:10559000000000000000000000000000000000000B
:1055A00000000000000000000000000000000000FB
:1055B00000000000804038078080807F00FF8080EE
:1055C00080807F000000000000000000000000005C
:1055D00000000000000000000000000000000000CB
:1055E00000000000000000000000000000000000BB
:1055F000000000000040841810FCA4A4A4A4A4A4EB
:10560000A4FC0000000000000000000000000000FA
:10561000000000000000000000000000000000008A
:10562000000000000000000000000000000000007A
:105630000000000000C03A85829CA0FF8080FF80AF
:10564000908C8000000000000000000000000000BE
:10565000000000000000000000000000000000004A
:10566000000000000000000000000000000000003A
:1056700000000000109453321E325210007E42424D
:10568000427E00000000000000000000000000005A
:10569000000000000000000000000000000000000A
:1056A00000000000000000000000000000000000FA
:1056B00000000000000000FF49494949494949FFED
:1056C00000000000000000000000000000000000DA
:1056D00000000000000000000000000000000000CA
:1056E00000000000000000000000000000000000BA
:1056F0000000000008CC4A49484ACC18007F88883E
:105700008482E000000000000000000000000000B3
:105710000000000000000000000000000000000089
:105720000000000000000000000000000000000079
:105730000000000000FF121252927F00007E888855
:105740008482E00000000000000000000000000073
:105750000000000000000000000000000000000049
:105760000000000000000000000000000000000039
:10577000000000001060020CC00088884F582454BC
:1057800084E40000000000000000000000000000B1
:105790000000000000000000000000000000000009
:1057A00000000000000000000000000000000000F9
:1057B0000000000004047C03008242320E02023E1C
:1057C00042427200000000000000000000000000E3
:1057D00000000000000000000000000000000000C9
:1057E00000000000000000000000000000000000B9
:1057F00000000000040404846F040404E4048F44E3
:10580000240404000000000000000000000000006C
:105810000000000000000000000000000000000088
:105820000000000000000000000000000000000078
:1058300000000000040201FF001008043F41404046
:105840004040780000000000000000000000000060
:105850000000000000000000000000000000000048
:105860000000000000000000000000000000000038
:1058700000000000000022322AA6A2622111098144
:105880000100000000000000000000000000000017
:105890000000000000000000000000000000000008
:1058A00000000000000000000000000000000000F8
:1058B00000000000004222130B42827E02020A1204
:1058C000234600000000000000000000000000006F
:1058D00000000000000000000000000000000000C8
:1058E00000000000000000000000000000000000B8
:1058F000000000002030AC63300088C8A8998E8872
:10590000A8C888000000000000000000000000009F
:105910000000000000000000000000000000000087
:105920000000000000000000000000000000000077
:105930000000000022672212128040300F00003F5A
:105940004040710000000000000000000000000066
:105950000000000000000000000000000000000047
:105960000000000000000000000000000000000037
:10597000000000000000484848484858E4444444B7
:10598000444440000000000000000000000000004F
:105990000000000000000000000000000000000007
:1059A00000000000000000000000000000000000F7
:1059B000000000000004040484848484E71C0404C0
:1059C00004040400000000000000000000000000CB
:1059D00000000000000000000000000000000000C7
:1059E00000000000000000000000000000000000B7
:1059F0000000000000808888888888800010FC10E3
:105A00001010E00000000000000000000000000096
:105A10000000000000000000000000000000000086
:105A20000000000000000000000000000000000076
:105A3000000000000000704F40403C60C0300F800C
:105A400080807F00000000000000000000000000D7
:105A50000000000000000000000000000000000046
:105A60000000000000000000000000000000000036
:105A7000000000000020FCE02008E83C2828283C2A
:105A800028E80800000000000000000000000000FE
:105A90000000000000000000000000000000000006
:105AA00000000000000000000000000000000000F6
:105AB0000000000000067F0003909795553D1535C6
:105AC000559790000000000000000000000000005A
:105AD00000000000000000000000000000000000C6
