:020000040800F2
:10000000E021002001010008790F00082109000803
:10001000C10D000851050008211B00080000000068
:100020000000000000000000000000005512000861
:10003000E507000800000000211100087112000807
:100040001B0100081B0100081B0100081B01000820
:100050001B0100081B0100081B0100081B01000810
:100060001B0100081B0100081B0100081B01000800
:100070001B0100081B0100081B0100081B010008F0
:100080001B0100081B0100081B0100081B010008E0
:100090001B0100081B0100081B0100081B010008D0
:1000A0001B010008811300081B0100081B01000848
:1000B000A513000839140008BD1400081B0100082E
:1000C0001B0100081B0100081B0100081B010008A0
:1000D0001B0100081D190008551900081B01000824
:1000E0001B0100081B0100081B010008DFF80CD0F1
:1000F00000F052F800480047BD1E0008E021002033
:100100000648804706480047FEE7FEE7FEE7FEE7B1
:10011000FEE7FEE7FEE7FEE7FEE7FEE775120008F2
:10012000ED00000810B5431A934209D283188818CD
:1001300003E010F8011D03F8011D521EF9D210BD95
:1001400040EA01039B0703D009E008C9121F08C059
:10015000042AFAD203E011F8013B00F8013B521ED9
:10016000F9D210BDD2B201E000F8012B491EFBD23A
:1001700070470022F6E710B513460A4604461946B2
:10018000FFF7F0FF204610BD421C10F8011B0029AC
:10019000FBD1801A704700001CB50948009009483F
:1001A00001900546009C06E0E06840F0010394E8F9
:1001B000070098471034AC42F6D3FFF79BFF0000CE
:1001C000F03F0008104000088268002922F0010278
:1001D00018BF01328260704710B542F20041C4F28C
:1001E0000101884212D043F60041C4F20101884265
:1001F00009D042F60001C4F20101884218BF10BDC7
:100200004FF4806404E04FF4004401E04FF40074C4
:100210002046012100F0A8FF20460021BDE8104043
:1002200000F0A2BF8068C0F380007047C06C80B24D
:10023000704700000068084018BF012070470000A8
:100240008068C0F3C000704780B542684FF6FF6316
:10025000CFF6F07302EA030C0B680A7943EA0C0349
:1002600043EA0222426082684FF2FD73CFF6F173D7
:100270001A40D1E902C391F805E01A4342EA0C02A0
:1002800042EA4E028260C26A097C22F4700201399D
:10029000C9B242EA0151C16280BD0000B0B501EBB4
:1002A000410C4FF0100E092988BFACF11E0C88BF1D
:1002B0004FF00C0E50F80E40072505FA0CF5AC4334
:1002C00003FA0CF323432C256FF0400440F80E3062
:1002D0000D2A38BF302538BF6FF0220402EB8203AD
:1002E000072A3CBF34256FF004041A1943591F2410
:1002F0009440A343914019434151B0BD816841F0FE
:1003000008018160704700008268002922F4A00281
:1003100018BF02F5A002826070470000816841F0BA
:10032000040181607047000070B586B042F200445D
:100330004FF401700121C4F20104012500F008FF0F
:100340004FF4004000F0EEFE8220ADF800000026E1
:10035000A4F5E05069468DF8036000F045FA2046A8
:10036000FFF73AFF4FF46020CDE9030601A92046CC
:100370000196ADF808608DF81450FFF765FF204630
:100380000121FFF721FF2046FFF7B8FF2046FFF7C6
:1003900057FF0028FAD12046FFF7C0FF2046FFF79D
:1003A00041FF0028FAD106B070BD000070B540F2E0
:1003B000C444C2F2000404F10F007121FFF7D9FE1A
:1003C00046F23040C0F23600C4F80B0043F26640FB
:1003D000C3F2380045F6787147F26D12C3F6650135
:1003E000C7F27442A0602046C4E90021FFF7CCFEAA
:1003F00040F2445141F65C54C2F20001C2F20004E2
:100400000860601D7B21FFF7B4FE46F6727600257A
:10041000C7F26F46204625712660FFF7B5FE41F60C
:10042000DC5141F6D844C2F20001C2F20004086077
:10043000601D7B21FFF79DFE204625712660FFF79A
:10044000A3FE41F6585140F22C04C2F20001C2F260
:100450000004086004F10C007421FFF78AFE42F6E4
:100460003960C0F2380043F6301143F23472C3F6FB
:100470002E01C3F22E12A06040F2AC00C4E90021AC
:10048000C2F2000040F25B71016070BD70B540F2D5
:10049000485040F2BA05C2F20000C2F2000580786E
:1004A000697840F60044C4F20104884220464FF4C3
:1004B000007102D200F0FCF901E000F0FBF940F21B
:1004C0001C06C2F200067078E978884208D9053126
:1004D00081420AD220464FF4807100F0E9F904E02D
:1004E00020464FF4807100F0E5F930782978884291
:1004F00007D904F580604FF40051BDE8704000F06A
:10050000D7B904F580604FF40051BDE8704000F0A9
:10051000D1B90000B0B582B041F20300ADF80600D9
:100520000420012100F014FE40F60004C4F201048E
:100530004FF4807501A92046ADF8045000F054F93D
:1005400020464FF4807100F0B5F9656102B0B0BD8E
:10055000FEE7000010B582B00420012100F0F8FD94
:10056000102040F60004C1F20300C4F2010401901F
:1005700001A9204600F038F92046102100F09AF930
:1005800002B010BD2DE9F04383B040F60005C4F27F
:10059000010540F210088146C1F203086946284669
:1005A000CDF8008000F020F928461021102400F03A
:1005B0007FF9122001F046FC2846102100F07AF95C
:1005C0001E2001F05DFC48208DF8070001A9284697
:1005D000ADF8044000F008F92846102100F062F957
:1005E00020B1002003B0BDE8F08300BF28461021F1
:1005F00000F058F90028F9D02846102100F052F9EF
:100600000128F9D000278026002409E026FA04F00A
:1006100080F0FF000740072C04F101041AD200BF4C
:100620002846102100F03EF90028F9D0282001F0DA
:1006300027FC2846102100F035F90128E6D100BF3B
:100640002846102100F02EF90128F9D026FA04F0EE
:100650000743E0E789F8007000278026002409E0BE
:1006600026FA04F080F0FF000740072C04F1010493
:100670001AD200BF2846102100F014F90028F9D042
:10068000282001F0FDFB2846102100F00BF901287D
:10069000E6D100BF2846102100F004F90128F9D066
:1006A00026FA04F00743E0E789F801700027802666
:1006B000002409E026FA04F080F0FF000740072C30
:1006C00004F101041AD200BF2846102100F0EAF814
:1006D0000028F9D0282001F0D3FB2846102100F093
:1006E000E1F80128E6D100BF2846102100F0DAF831
:1006F0000128F9D026FA04F00743E0E789F80270F0
:1007000000278026002409E026FA04F080F0FF008C
:100710000740072C04F101041AD200BF284610211B
:1007200000F0C0F80028F9D0282001F0A9FB2846E5
:10073000102100F0B7F80128E6D100BF28461021AB
:1007400000F0B0F80128F9D026FA04F00743E0E7FA
:1007500089F8037000278026002409E026FA04F0B7
:1007600080F0FF000740072C04F101041AD200BFFB
:100770002846102100F096F80028F9D0282001F032
:100780007FFB2846102100F08DF80128E6D100BF3C
:100790002846102100F086F80128F9D026FA04F046
:1007A0000743E0E702A9284689F80470CDF80880DD
:1007B00000F01AF82846102100F07CF899F8001093
:1007C00099F8012099F8023099F80370114499F8CA
:1007D000040019443944081AB0FA80F0400903B003
:1007E000BDE8F08370470000CA7802F00F0CD30612
:1007F00044BF8B784CEA030C2DE9F04709880B06BF
:1008000024D086465EF8143B00F1100800254FF016
:10081000010A4FF00F09002406E000BF37600134E1
:10082000082C05F1040510D00AFA04F70F42F6D09F
:1008300009FA05F6B3430CFA05F63343282A76463F
:10084000ECD0482AEBD14646E8E70360B1F5807F5B
:1008500038BFBDE8F087436800F1100E00F1140ABC
:1008600000254FF480794FF00F08002706E000BF05
:1008700026600137082F05F1040510D009FA07F6A4
:100880000E42F6D008FA05F4A3430CFA05F423430C
:10089000282A5446ECD0482AEBD17446E8E7436056
:1008A000BDE8F0878068084018BF0120704700004D
:1008B00041617047016170471023002A08BF14236B
:1008C000C15070472DE9F041884611B342F200460D
:1008D00005460027C4F20106002400BF3046294621
:1008E00001220723FFF7DAFC30460121FFF70CFD58
:1008F00030460221FFF79EFC0028F9D03046FFF772
:1009000095FC0444052001F09DFA01374745E5D3E5
:1009100000E00024B4FBF8F080B2BDE8F0810000F4
:10092000FEE70000B0B582B0102000210E22102496
:1009300001F05CFC202000210F2201F057FC302048
:100940000021102201F052FC40200021112201F070
:100950004DFC50200021122201F048FC60200021B3
:10096000132201F043FC00200221002201F03EFC92
:1009700010200221022201F039FC202002213A221B
:10098000102300F075FB00200421082201F02EFC4A
:1009900010200421092201F029FC202004213A2200
:1009A000102300F065FB00200621062201F01EFC4A
:1009B00010200621072201F019FC202006213A22EE
:1009C000102300F055FB40F24850C2F2000082783C
:1009D000302002210223009401F044FC40F21C0567
:1009E000C2F200056A78302004210223009401F04D
:1009F00039FC2A78302006210223009401F032FCD1
:100A000050200221032201F0F1FB50200421252275
:100A1000102300F02DFB502006212522102302B0C8
:100A2000BDE8B04000F024BBB0B582B00C2001217D
:100A300000F08EFB4FF4704040F60044ADF8040027
:100A40004820C4F2010401AD8DF807002046294674
:100A5000FFF7CAFE20462946FFF7C6FE2046294674
:100A6000FFF7C2FE20462946FFF7BEFE02B0B0BD2A
:100A7000B0B540F21105C2F20005287840F60044F6
:100A8000C4F20104F8B120464FF48051FFF70AFF89
:100A9000012868D120464FF40051FFF703FF0128D9
:100AA00018BFB0BD20464FF48041FFF7FBFE012880
:100AB00059D120464FF40041FFF7F4FE012804BF4E
:100AC00000202870B0BD20464FF48051FFF7EAFEA9
:100AD00090B120464FF40051FFF7E4FE60B120468C
:100AE0004FF48041FFF7DEFE30B120464FF4004165
:100AF000FFF7D8FE0028C6D10A2001F0A3F9012093
:100B0000287020464FF48051FFF7CCFED8B1204624
:100B10004FF40051FFF7C6FED0B120464FF480419C
:100B2000FFF7C0FEC8B120464FF40041FFF7BAFE00
:100B300040F25451C2F200010A781043000612D16B
:100B400001200870B0BD40F25150C2F2000008E030
:100B500040F25250C2F2000003E040F25350C2F2A1
:100B60000000017801B1B0BD01210170B0BD0000ED
:100B700080B582B01020012100F0EAFA42F20000B4
:100B8000C1F20300019041F20000C4F2010001A98A
:100B9000FFF72AFE02B080BDF0B581B02020002111
:100BA000142201F023FB30200021152201F01EFB4E
:100BB00040200021162201F019FB502000211722AD
:100BC00001F014FB40F25255C2F20005287840F2C1
:100BD000010440F20006C2F20004C2F20006A8B10D
:100BE0002078411CC8B2042808BF0121C8B20138CE
:100BF0000528217008D8DFE800F0DD0305070305AC
:100C0000022000E0032030700020287040F2535092
:100C1000C2F20000017889B121780139C9B20229F4
:100C20000AD842F2B032C0F6000252F821100A7817
:100C3000B2FA82F252090A7000210170207840F263
:100C4000B0050328C2F200055BD8102002211C2247
:100C500001F0CCFA202002211D2201F0C7FA302039
:100C600002213A22102300F003FA102004210A2264
:100C700001F0BCFA202004210B2201F0B7FA302049
:100C800004213A22102300F0F3F91020062121223A
:100C900001F0ACFA20200621222201F0A7FA302030
:100CA00006213A22102300F0E3F9E87843F6E874CD
:100CB000C0F6000443F6EC77002822464FF04800C7
:100CC0004FF002014FF01003C0F6000708BF3A468C
:100CD00001F016FB2879224600284FF048004FF01B
:100CE00004014FF0100308BF3A4601F009FB687990
:100CF0000621002808BF3C4648202246102301F068
:100D0000FFFA307842F620220138C0B2C00042F229
:100D10002A01C0F22002C0F2200122FA00F642F2BB
:100D20002002C140C0F22A0240F6004422FA00F735
:100D3000CAB2002002211023C4F2010400F098F985
:100D4000F2B200200421102300F092F9FAB2002040
:100D50000621102300F08CF9E87828B120464FF4E2
:100D60000071FFF7A7FD04E020464FF40071FFF784
:100D70009FFD287928B120464FF48071FFF79AFD36
:100D800004E020464FF48071FFF792FD687940B18E
:100D900004F580604FF4005101B0BDE8F040FFF76A
:100DA00089BD04F580604FF4005101B0BDE8F0400A
:100DB000FFF77EBD0120307001F06AF924E70000E2
:100DC000FEE70000B0B540F25150C2F200000178D9
:100DD00040F21204C2F20004B1B140F25451C2F226
:100DE000000100220A7040F25351C2F200010A7061
:100DF00040F25251C2F200010A70027001F048F94B
:100E000020780130207014E040F25251C2F200010B
:100E10000A7872B1227862B940F25452C2F20002EA
:100E20000023137040F25352C2F2000213700B7091
:100E30000370207840F2B005032824BF0020207002
:100E4000C2F20005A87818B101F022F90020A870BC
:100E5000207802280ED0012808D0002818BFB0BD85
:100E6000FFF760FDBDE8B040FFF710BBBDE8B04044
:100E7000FFF792BEBDE8B04000F00ABCF0B585B007
:100E800004200121042700F063F94FF48040012180
:100E900000F05EF943F6000440F20020C4F20104C1
:100EA000C1F60100A4F5405504AE04902846314631
:100EB000FFF79AFC4FF48060ADF8100028463146E9
:100EC0008DF81370FFF790FC4FF4E1300090002094
:100ED0004FF44021ADF80C00CDE9010169462046F0
:100EE00000F0BAFD204640F22551012200F09CFDA1
:100EF0002046012100F074FD05B0F0BDF0B585B0CD
:100F000004200121042700F023F94FF400300121CF
:100F100000F012F944F200440420C4F20004C1F6C7
:100F2000010004F5444504AE049028463146FFF71D
:100F30005BFC0820ADF81000284631468DF8137090
:100F4000FFF752FC4FF4E130009000204FF44021B5
:100F5000ADF80C00CDE901016946204600F07CFDAA
:100F6000204640F22551012200F05EFD204601217D
:100F700000F036FD05B0F0BD7047000010B582B03E
:100F80004FF4A06000F06AF840F22520C0F2021091
:100F900001AC0190204600F031F82620C0F200108C
:100FA0000190204600F02AF840F22620C0F20210FC
:100FB0000190204600F022F82720C0F20010019096
:100FC000204600F01BF840F21E20C0F202100190F3
:100FD000204600F013F840F21D20C0F202100190EC
:100FE000204600F00BF840F21C20C0F202100190E5
:100FF000204600F003F802B010BD000010B5C17823
:1010000000294EF20011CEF200011AD04EF60C5219
:10101000CEF200021268072323EA12220F23C2F144
:10102000040C23FA02F24378847890F800E003FA83
:101030000CF322401A43120101EB0E0383F8002344
:1010400000E080310078012300F01F0203FA02F271
:10105000C0F3421041F8202010BD000040F0806035
:101060004EF60C5140F0FD70CEF200010860704762
:101070002DE9F0411E4643B2C0F3C01001EB400819
:10108000A8F15000C0B2A2F1200723EAE37500F0F6
:1010900049FD102040EA1514204600F043FD05F0FC
:1010A0000F05284600F03EFD102EF8B223D142F283
:1010B000F851C0F6000101EB00164FF0FF3700BFFA
:1010C000F019407800F0DEFD0137072FF8D1A8F1C4
:1010D0004F00C0B200F026FDE0B200F023FD28462C
:1010E00000F020FDF41D082514F8010F00F0CAFDE2
:1010F000013DF9D111E042F2D03100EB4000C0F6E1
:10110000000101EB40044FF0FF3500BF601940784B
:1011100000F0B8FD0135052DF8D1BDE8F0810000E3
:101120007047000041F20401C4F202010A6822F48F
:101130004042104308607047002941F21C01C4F28C
:1011400002010A680CBF22EA0000104308607047E1
:10115000002941F21801C4F202010A680CBF22EA18
:101160000000104308607047002941F20C01C4F2EE
:1011700002010A680CBF22EA0000104308607047B1
:1011800010B541F20404C4F20204226802F00C0219
:10119000082A41F20022C0F27A0212D12368D4F860
:1011A00000C0C3F3834E5FEACC330EF1020C02D5CC
:1011B00023689B0303D540F60012C0F23D020CFBEE
:1011C00002F20260226842F2C033C2F30312C0F698
:1011D00000039A5C0168D14041602268C2F3022298
:1011E0009A5C21FA02F282602268C2F3C2229A5CFF
:1011F00042F2BC33D140C1602268C0F60003C2F3A2
:1012000081329A5CB1FBF2F1016110BD10B582B080
:1012100008200121FFF79CFF40F2803040F6004497
:10122000C1F20300C4F20104019001A92046FFF7B6
:10123000DBFA20464FF40071FFF73AFB20464FF4EB
:101240008071FFF735FB20468021FFF731FB02B0AC
:1012500010BD0000704700004EF21001CEF20001F8
:101260000A68042822F0040208BF04320A607047AA
:101270007047000082B041F20400C4F2020050F84E
:10128000041C002241F0010140F8041C0168CFF663
:10129000FF021140016050F8041C4FF6FF72CFF6B8
:1012A000F662114040F8041C50F8041C21F480211F
:1012B00040F8041C016821F4FE0101604FF41F0195
:1012C000416000210191009150F8041C41F48031EB
:1012D00040F8041C50F8041C01F4003100910199FD
:1012E00001310191009919B90199B1F5A06FF1D1BE
:1012F00050F8041CC1F3404100910099012936D1F6
:1013000042F20001C4F202010A6842F010020A60CF
:101310000A6822F003020A600A6842F002020A60C8
:101320000168016001680160016841F48061016049
:10133000016821F47C110160016841F4E811016049
:1013400050F8041C41F0807140F8041C50F8041C53
:101350008901FBD5016821F003010160016841F0BA
:1013600002010160016801F00C010829FAD14EF672
:101370000850CEF200004FF00061016002B07047EB
:1013800010B542F60044C4F201042046012100F0E9
:1013900013F9002808BF10BD20460121BDE8104008
:1013A00000F0FCB880B54FF08040012100F004F956
:1013B000002808BF80BDFFF75BFB40F2B000C2F21F
:1013C0000000017869B940F2C001C2F200010A7858
:1013D0000132D3B21E2B0A7003D300220A700121FE
:1013E00001704FF080400121BDE8804000F0D6B888
:1013F000B0B584B00C46054601200121FFF79CFEE4
:101400000020ADF80C00ADF808000DF106014FF01A
:101410008040ADF80A50ADF8064000F0E3F84FF018
:1014200080400121012200F0D3F84FF080400121DB
:1014300000F0B8F804B0B0BDB0B540F20044C4F25A
:1014400000042046012100F0B7F8002808BFB0BD15
:1014500040F2C100C2F2000001780131CAB2052A8F
:1014600001700AD340F213050021C2F20005017099
:1014700000F0EAFD28780130287040F21401C2F231
:1014800000010878002840F21300C2F200000CD1DD
:10149000017802290CD30021017040F2100140F2C2
:1014A0001400C2F20001C2F20000002202700A70B1
:1014B00020460121BDE8B04000F070B8F0B581B021
:1014C00040F60004C4F200042046012100F074F844
:1014D000C0B341F24C0640F2C247C2F20006C2F26B
:1014E000000730683D8840F2C2010230C2F20001BC
:1014F0002A46FEF717FE3068290A017038783168ED
:1015000040F25552487041F248013068C2F2000181
:10151000096800F5C870C2F20002884218BF02468E
:101520000020388020460021326000F03BF8204641
:10153000002100F055F82046012101B0BDE8F0403F
:1015400000F02CB801B0F0BDB0B584B00C46054633
:1015500004200121FFF7F0FDADF8064040F600043D
:101560000020C4F20004ADF80C00ADF808000DF145
:1015700006012046ADF80A5000F034F8204601215B
:10158000012200F025F82046012100F007F820464E
:10159000002100F007F804B0B0BD0000C94301828B
:1015A000704700000288002918BF012122F00102C3
:1015B0001144018070470000028A80890A4000EAD5
:1015C000010018BF0122002818BF012010407047F9
:1015D000002A82890CBF22EA0101114381817047F0
:1015E0008184704740F6FF33B0F800C0C4F20003B6
:1015F00098420FDCB0F1804F1ED040F20043C4F29D
:101600000003984218D040F60003C4F20003984249
:1016100012D016E040F60043C4F2000398420BD00B
:1016200043F20043C4F20103984205D042F600435E
:10163000C4F20103984204D14B882CF0700243EAB3
:10164000020C41F2004240F48063C4F20002934273
:1016500004D0CA882CF4407342EA030CA0F800C0FE
:101660008A888285A0F18042A2F596320B884FEAE3
:10167000B222072A038507D8012303FA02F212F0E7
:10168000E50F1CBF097A01860121818270470000A5
:10169000F0B581B020200021182200F0A7FD3020F5
:1016A0000021192200F0A2FD402000211A2200F0A2
:1016B0009DFD502000211B2200F098FD40F2525762
:1016C000C2F20007387840F2090640F2080540F2FD
:1016D000BA04C2F20006C2F20005C2F2000488B1E8
:1016E0003078411CC8B2042808BF0121C8B20138B3
:1016F000052831701FD8DFE800F0EC031C1E031C26
:10170000022017E040F25350C2F200000178002995
:1017100000F0CA80317800220229027000F0DE80D9
:10172000012940F0E180607862289CBF0130607040
:1017300003E003202870002038703078032874D824
:10174000102002210022102600F050FD202002214E
:10175000022200F04BFD30200221252200F046FD40
:1017600040200221272200F041FD502002213A2290
:101770001023FFF77DFC10200421062200F036FD27
:1017800020200421072200F031FD302004212622F0
:1017900000F02CFD40200421272200F027FD5020DE
:1017A00004213A221023FFF763FC102006210822AF
:1017B00000F01CFD20200621092200F017FD30203A
:1017C0000621262200F012FD40200621272200F0EB
:1017D0000DFD502006213A221023FFF749FC6278C4
:1017E0005A2002210223009600F03CFD22785A2064
:1017F00004210223009600F035FDE2785A200621EC
:101800000223009600F02EFD70200221032200F03A
:10181000EDFC7020042125221023FFF729FC702005
:10182000062125221023FFF723FC287842F62022E8
:101830000138C0B2C00042F22A01C0F22002C0F258
:10184000200122FA00F542F22002C140C0F22A0231
:1018500022FA00F6CAB2002002211023FFF708FC8A
:10186000EAB2002004211023FFF702FCF2B20020AC
:1018700006211023FFF7FCFB6078642824BF632057
:1018800060702078652824BF64202070E078642888
:1018900024BF6420E070A088B0F57A7F24BF4FF4A5
:1018A0007A70A08001B0F0BD40F25450C2F2000046
:1018B000017800293FF441AF3178002202290270FB
:1018C0001BD001291FD1607800281CBF013860702F
:1018D00033E70120287000F0DBFB2CE72078632839
:1018E0009CBF0130207028E703297FF426AFE07801
:1018F00063283FF622AF01300DE0207800281CBF9E
:101900000138207019E703297FF417AFE078002829
:101910003FF413AF0138E0700FE7000010B543F655
:101920000004C4F20104204640F2255100F062F8A0
:10193000002808BF10BD204640F2255100F048F8AD
:10194000204600F0E5F8C1B22046BDE8104000F0A6
:10195000E3B80000B0B540F21000C2F20000007819
:1019600044F20044C4F2000440F2C2450028C2F22E
:10197000000520460ED000F0CBF8298840F2C202C4
:10198000C2F200025054A4F57050D1B10021FFF70B
:1019900027FE19E040F2255100F02CF8B8B144F2CE
:1019A0000440C4F200000088002808BFB0BD2046F3
:1019B00000F0AEF8298840F2C202C2F20002505490
:1019C00003E00121FFF7EEFD2988481C2880B0BD07
:1019D000090A012202FA01F1C9430180704700009F
:1019E0008289002918BF012122F4005242EA4131C4
:1019F00081817047C1F342121423022A08BF1023C9
:101A0000012A08BF0C2301F01F02C35A090A4FF034
:101A1000010C00880CFA01F1084023FA02F118BF0A
:101A20000120084070470000C1F3421301F01F0C71
:101A30001421022B08BF1021012B4FF0010308BF16
:101A40000C21002A03FA0CF243580CBF23EA0202CD
:101A50001A4342507047000070B586B00446008AB1
:101A60000D46C98820F4405008432082A0894EF6D4
:101A7000F3110840A9882A896B8908431043184349
:101A8000A081A08AA98920F44070084301AEA082F9
:101A90003046FFF775FB43F6000106F10800C4F27B
:101AA00001018C4208BF06F10C0000681922B4F94C
:101AB0000C1050432A680123B1F1FF3FC8BF022335
:101AC00002FA03F1B0FBF1F048F21F51C5F2EB113D
:101AD000A0FB01235A096FF0630302FB0300B4F972
:101AE0000C300326B3F1FF3FC8BF042600FA06F00E
:101AF00000F13200A0FB01014FF00700C8BF0F202A
:101B000000EA511040EA0210208106B070BD0000CA
:101B100080886FF35F2070476FF35F21818070478B
:101B2000FEE70000F0B581B040F60004C4F2010405
:101B3000054620464FF48051FEF7BCFE20464FF488
:101B40000061FEF7B7FE20464FF40061FEF7B0FEDD
:101B500020464FF48051FEF7ABFE20464FF48051F3
:101B6000FEF7A6FE0027782614E000BF20464FF4BB
:101B70000061FEF79DFE20464FF480517600FEF78F
:101B800099FE20464FF48051FEF792FE072F07F191
:101B9000010709D270B2B0F1FF3FE7DC20464FF4F5
:101BA0000061FEF787FEE6E720464FF48051FEF71E
:101BB00081FE20464FF48051FEF77AFE20464FF416
:101BC0008051FEF775FE002620464FF40061FEF7B7
:101BD0006FFE20464FF48051FEF76CFE20464FF416
:101BE0008051FEF765FE072E06F10106ECD3204674
:101BF0004FF48051FEF75EFE20464FF48051FEF711
:101C000057FE20464FF48051FEF752FE002613E0A7
:101C100020464FF40061FEF74BFE20464FF4805102
:101C20006D00FEF747FE20464FF48051FEF740FE60
:101C3000072E06F1010609D268B2B0F1FF3FE7DCDA
:101C400020464FF40061FEF735FEE6E720464FF4EC
:101C50008051FEF72FFE20464FF48051FEF728FEFC
:101C600020464FF48051FEF725FE20464FF40061D8
:101C7000FEF71EFE20464FF4006101B0BDE8F040C3
:101C8000FEF718BEF0B581B040F60004C4F20104BE
:101C9000054620464FF48051FEF70CFE20464FF4D7
:101CA0000061FEF707FE20464FF40061FEF700FEDC
:101CB00020464FF48051FEF7FBFD20464FF4805143
:101CC000FEF7F6FD0027782614E000BF20464FF40B
:101CD0000061FEF7EDFD20464FF480517600FEF7DF
:101CE000E9FD20464FF48051FEF7E2FD072F07F192
:101CF000010709D270B2B0F1FF3FE7DC20464FF494
:101D00000061FEF7D7FDE6E720464FF48051FEF76D
:101D1000D1FD20464FF48051FEF7CAFD20464FF416
:101D20008051FEF7C5FD0027402613E020464FF402
:101D30000061FEF7BDFD20464FF480517600FEF7AE
:101D4000B9FD20464FF48051FEF7B2FD072F07F191
:101D5000010709D270B2B0F1FF3FE7DC20464FF433
:101D60000061FEF7A7FDE6E720464FF48051FEF73D
:101D7000A1FD20464FF48051FEF79AFD20464FF416
:101D80008051FEF795FD002614E000BF20464FF479
:101D90000061FEF78DFD20464FF480516D00FEF787
:101DA00089FD20464FF48051FEF782FD072E06F193
:101DB000010609D268B2B0F1FF3FE7DC20464FF4DC
:101DC0000061FEF777FDE6E720464FF48051FEF70D
:101DD00071FD20464FF48051FEF76AFD20464FF416
:101DE0008051FEF767FD20464FF40061FEF760FD6D
:101DF00020464FF4006101B0BDE8F040FEF75ABD47
:101E000080B56FF00400FFF727FA40F20400C2F239
:101E1000000000684DF68361C4F21B31A0FB010194
:101E200040F25052480DC2F200021070C1F3475008
:101E30004FF47A71484340F24E51C2F200010880DB
:101E400080BD000040F24E51C2F200010A884EF2FD
:101E50001001CEF2000150434860002088600868FD
:101E600040F00100086000BF086800F00110012880
:101E7000FAD0086820F001000860002088607047F0
:101E800040F25051C2F200010A784EF21001CEF237
:101E900000015043486000208860086840F001005D
:101EA000086000BF086800F001100128FAD0086837
:101EB00020F001000860002088607047FFF7A0FF55
:101EC0004FF47A6041F61F41FFF73EFB40F2F310FA
:101ED00041F61F41FFF78CFAFFF750F84FF4A0606E
:101EE000FFF7BCF8FEF7CAFFFFF708F8FFF78EF917
:101EF000FEF71AFA00F0E8F800F022FAFEF756FAB8
:101F0000FEF708FBFEF734FEFEF724FBFEF78CFD20
:101F100040F2BA0042F23221C2F20000C2F61901C8
:101F2000016040F2B000C2F2000000240470C0F86A
:101F30000240C0F8054000F0ABF840F25450C2F245
:101F40000000047040F25350C2F20000047040F2EE
:101F50005250C2F20000047040F25150C2F2000030
:101F6000047040F2485940F2180640F2160742F257
:101F7000934A40F2190540F21C04C2F20009C2F271
:101F80000006C2F20007C9F2492A4FF0640BC2F200
:101F90000005C2F2000448F69D7823E0C0F57A619E
:101FA00081FB0A2338805818011101EBD070642896
:101FB000A8BF584620EAE070012128703170607097
:101FC00005200521FEF77EFC00FB08F1A0EB114087
:101FD000400800EB114040092070FEF7F3FE32206C
:101FE000FFF730FFFEF744FD4846FEF7CBFA01202D
:101FF0000821FEF767FC31780029CFD0398801EB42
:1020000041010844C0F38F01C1F57A6181FB0A23C5
:1020100082085818011101EBD0706428A8BF5846F7
:10202000297820EAE07081423A8005D2411A0129DC
:10203000C8BF287005E000BF03D9091A022900DBD8
:1020400028702878BBE7000041F64830C2F2000053
:10205000C021018041F64431C2F200010A68002328
:1020600013700A68022353700A68008841F2500313
:10207000508041F640320868C2F20002126800F552
:10208000C870C2F20003904218BF03460B6070474D
:10209000B0B5002444F0B000C0B2FFF743FD00200B
:1020A0000025FFF73FFD1020FFF73CFD0020FFF764
:1020B000E9FD681C45B2B5F1FF3FF7DCE0B2013441
:1020C000072828BFB0BDE5E7B0B582B004200121E4
:1020D000FFF73EF841F2000040F60004C1F20300B1
:1020E000C4F2010401AD019020462946FEF77CFBB5
:1020F0004FF40060ADF8040020462946FEF774FB5B
:1021000020464FF48051FEF7D5FB20464FF4006186
:10211000FEF7D0FBAE20FFF705FD00200024FFF7FF
:1021200001FD1020FFF7FEFC4020FFF7FBFCB02074
:10213000FFF7F8FC8120FFF7F5FCFF20FFF7F2FC2A
:10214000A120FFF7EFFCA620FFF7ECFCA820FFF78B
:10215000E9FC3F20FFF7E6FCC820FFF7E3FCD320B3
:10216000FFF7E0FC0020FFF7DDFCD520FFF7DAFCED
:102170008020FFF7D7FCD820FFF7D4FC0520FFF71D
:10218000D1FCD920FFF7CEFCF120FFF7CBFCDA2001
:10219000FFF7C8FC1220FFF7C5FCDB20FFF7C2FCED
:1021A0003020FFF7BFFC8D20FFF7BCFC1420FFF7A9
:1021B000B9FCAF20FFF7B6FC44F0B000C0B2FFF7A7
:1021C000B1FC00200025FFF7ADFC1020FFF7AAFCB2
:1021D0000020FFF757FD681C45B2B5F1FF3FF7DC63
:1021E000E0B201340728E7D302B0B0BD2DE9F041D9
:1021F0000646A1F15000C0B217468846FFF792FC90
:10220000300900F110052846FFF78CFC06F00F0698
:102210003046FFF787FC42F6E830C0F6000000EBDE
:10222000C7174FF0FF3400BF38194078FFF72AFD79
:1022300001340F2CF8D1A8F14F00C0B2FFF772FCA7
:102240002846FFF76FFC3046FFF76CFC3F2400BFC9
:1022500038194078FFF716FD01344F2CF8D1BDE84E
:10226000F0810000002B08BF70472DE9F04F81B0CE
:1022700007460A981C4692468B46A3F10109450879
:1022800000264FF000080EE04FF0010805FB067134
:1022900040F03002C8B2D2B259460A9BFEF7E8FEBF
:1022A0000136A64227D0F0432044010608D0012180
:1022B000013801EB810102064FEA4101F8D100E04B
:1022C0000121BAFBF1F04CF6CD41CCF6CC41A0FB9C
:1022D0000112D10801EB8101B8F1000FA0EB410020
:1022E000D4D1B145D2DD0028CED105FB06705946C8
:1022F000C0B22022D1E701B0BDE8F04F7047000026
:102300002DE9F04115461278002A08BFBDE8F0819A
:1023100098460E4607460024F8B2F1B2D2B24346C0
:10232000FEF7A6FE0837F8B201347828E0B288BF7D
:1023300002362A5C88BF0027002AEDD1BDE8F08173
:1023400010B582B010200121FEF702FF44F2000018
:1023500041F20004C1F20300C4F20104019001A99A
:102360002046FEF741FA20464FF480410022FEF756
:10237000A3FAFA20FFF766FD20464FF480410122C0
:10238000FEF79AFA4FF4FA70FFF75CFD02B010BD49
:1023900002E008C8121F08C1002AFAD1704770472E
:1023A000002001E001C1121F002AFBD1704700008C
:1023B000B3000020B4000020B5000020020406088D
:1023C00000000000010203040102030406070809DB
:1023D0000000000000000000002F000000000700C7
:1023E000070000147F147F1400242A7F2A12006241
:1023F00064081323003649552250000005030000ED
:1024000000001C224100000041221C000014083E74
:1024100008140008083E0808000000A0600000083A
:10242000080808080000606000000020100804028E
:10243000003E5149453E0000427F4000004261514C
:102440004946002141454B31001814127F100027E6
:1024500045454539003C4A494930000171090503A9
:1024600000364949493600064949291E00003636DA
:10247000000000005636000000081422410000143D
:10248000141414140000412214080002015109061A
:1024900000324959513E007C1211127C007F49499B
:1024A0004936003E41414122007F4141221C007FCC
:1024B00049494941007F09090901003E4149497ADA
:1024C000007F0808087F0000417F41000020404154
:1024D0003F01007F08142241007F40404040007FC0
:1024E000020C027F007F0408107F003E4141413E04
:1024F000007F09090906003E4151215E007F09194C
:1025000029460046494949310001017F0101003F48
:102510004040403F001F2040201F003F4038403FC8
:10252000006314081463000708700807006151492C
:10253000454300007F41410000552A552A550000BF
:1025400041417F000004020102040040404040403D
:10255000000001020400002054545478007F4844D5
:10256000443800384444442000384444487F00380C
:102570005454541800087E0901020018A4A4A47C35
:10258000007F080404780000447D400000408084FF
:102590007D00007F102844000000417F4000007C47
:1025A00004180478007C0804047800384444443853
:1025B00000FC242424180018242418FC007C08049F
:1025C000040800485454542000043F444020003C78
:1025D0004040207C001C2040201C003C4030403CFF
:1025E000004428102844001CA0A0A07C004464548F
:1025F0004C441414141414140000000000000000D3
:102600000000000000000000000000F800000000D2
:10261000000000333000000000100C06100C060013
:10262000000000000000000040C07840C07840007A
:10263000043F04043F040400007088FC08300000DC
:10264000001820FF211E0000F008F000E018000034
:1026500000211C031E211E0000F0088870000000ED
:102660001E2123241927211010160E00000000003F
:102670000000000000000000000000E0180402005C
:10268000000000071820400000020418E0000000CD
:102690000040201807000000404080F080404000CB
:1026A0000202010F01020200000000F00000000021
:1026B0000101011F010101000000000000000000F5
:1026C00080B070000000000000000000000000006A
:1026D00000010101010101010000000000000000F3
:1026E000003030000000000000000000806018048E
:1026F000006018060100000000E010080810E0006B
:10270000000F102020100F00001010F80000000033
:102710000020203F2020000000700808088870007A
:1027200000302824222130000030088888483000FA
:102730000018202020110E000000C02010F800001A
:1027400000070424243F240000F8088888080800B3
:102750000019212020110E0000E0108888180000C8
:10276000000F112020110E0000380808C83808009A
:102770000000003F0000000000708808088870001A
:10278000001C222121221C0000E010080810E0009B
:102790000000312222110F00000000C0C000000024
:1027A0000000003030000000000000800000000049
:1027B0000000806000000000000080402010080041
:1027C000000102040810200040404040404040000A
:1027D00004040404040404000008102040800000E5
:1027E0000020100804020100007048080808F000EA
:1027F0000000003036010000C030C828E810E000BA
:102800000718272423140B000000C038E000000044
:10281000203C23020227382008F8888888700000AE
:10282000203F202020110E00C03008080808380082
:10283000071820202010080008F808080810E000F9
:10284000203F202020100F0008F88888E80810009A
:10285000203F20202320180008F88888E80810006E
:10286000203F200003000000C030080808380000A6
:1028700007182020221E020008F808000008F808A7
:10288000203F210101213F20000808F8080800002E
:102890000020203F2020000000000808F808080061
:1028A000C08080807F00000008F888C028180800D9
:1028B000203F20012638200008F808000000000012
:1028C000203F20202020300008F8F800F8F8080009
:1028D000203F003F003F200008F830C00008F80803
:1028E000203F200007183F00E01008080810E00013
:1028F0000F10202020100F0008F808080808F0002A
:10290000203F210101010000E01008080810E0004C
:102910000F18242438504F0008F8888888887000E1
:10292000203F2000030C3020007088080808380081
:102930000038202121221C00180808F80808180077
:102940000000203F2000000008F808000008F808F8
:10295000001F202020201F000878880000C83808A9
:10296000000007380E010000F80800F80008F80021
:10297000033C0700073C03000818688080681808BB
:1029800020302C03032C30200838C800C838080039
:102990000000203F2000000010080808C838080088
:1029A0002038262120201800000000FE020202002C
:1029B0000000007F40404000000C30C000000000DC
:1029C000000000010638C00000020202FE00000004
:1029D000004040407F0000000000040202020400AA
:1029E00000000000000000000000000000000000E7
:1029F00080808080808080800002020400000000CF
:102A000000000000000000000000808080800000C6
:102A10000019242222223F2008F8008080000000B4
:102A2000003F112020110E00000000808080000077
:102A3000000E112020201100000000808088F80086
:102A4000000E112020103F200000808080800000B8
:102A5000001F222222221300008080F0888888181C
:102A60000020203F20200000000080808080800027
:102A7000006B94949493600008F8008080800000BC
:102A8000203F210000203F20008098980000000097
:102A90000020203F202000000000008098980000C7
:102AA00000C08080807F000008F8000080808000E7
:102AB000203F24022D302000000808F8000000000C
:102AC0000020203F202000008080808080808000C7
:102AD000203F20003F20003F808000808080000059
:102AE000203F210000203F200000808080800000E7
:102AF000001F202020201F00808000808000000018
:102B000080FFA12020110E00000000808080800046
:102B1000000E112020A0FF80808080008080800037
:102B200020203F2120000100000080808080800064
:102B30000033242424241900008080E080800000D9
:102B40000000001F20200000808000000080800026
:102B5000001F202020103F20808080000080808087
:102B600000010E3008060100808000800080808017
:102B70000F300C030C300F0000808000808080003C
:102B80000020312E0E312000808080000080808067
:102B900080818E7018060100008080808080800017
:102BA0000021302C2221300000000000807C020235
:102BB00000000000003F404000000000FF00000057
:102BC00000000000FF0000000002027C8000000006
:102BD0000040403F00000000000601010202040422
:102BE000000000000000000000448C1800FCA4A4B9
:102BF000A4A4A4A424FC0000000000000000000025
:102C000000000000000000000000000000000000C4
:102C100000000000000000000000000000000000B4
:102C2000000000000000000000C03887F88484FC29
:102C30008484FC8485FC800000000000000000000B
:102C40000000000000000000000000000000000084
:102C50000000000000000000000000000000000074
:102C600000000000000000000040841810FCA4A434
:102C7000A4A4A4A4A4FC0000000000000000000024
:102C80000000000000000000000000000000000044
:102C90000000000000000000000000000000000034
:102CA000000000000000000000C03A85829CA0FFE8
:102CB0008080FF80908C80000000000000000000F9
:102CC0000000000000000000000000000000000004
:102CD00000000000000000000000000000000000F4
:102CE000000000000000000000F0082828F8282854
:102CF0002C2828F828280800000000000000000008
:102D000000000000000000000000000000000000C3
:102D100000000000000000000000000000000000B3
:102D20000000000000000000807F8084848C5565D6
:102D3000256555958C808000000000000000000093
:102D40000000000000000000000000000000000083
:102D50000000000000000000000000000000000073
:102D60000000000000000000000018A8D82010108B
:102D7000101010307800000000000000000000007B
:102D80000000000000000000000000000000000043
:102D90000000000000000000000000000000000033
:102DA0000000000000000000000000071F3020208D
:102DB000202020101800000000000000000000008B
:102DC0000000000000000000000000000000000003
:102DD00000000000000000000000000000000000F3
:102DE0000000000000000000003840FE403880E095
:102DF000988480849820C0800000000000000000BB
:102E000000000000000000000000000000000000C2
:102E100000000000000000000000000000000000B2
:102E2000000000000000000000310DFF0519804087
:102E3000300F8080807F0000000000000000000054
:102E40000000000000000000000000000000000082
:102E50000000000000000000000000000000000072
:102E6000000000000000000000008060180000FC6E
:102E7000000000081060800000000000000000005A
:102E80000000000000000000000000000000000042
:102E90000000000000000000000000000000000032
:102EA000000000000000000000808888888888FFFB
:102EB0008888888888888000000000000000000062
:102EC0000000000000000000000000000000000002
:102ED00000000000000000000000000000000000F2
:102EE000000000000000000000808088F08080FE6C
:102EF0008080C0A0988480000000000000000000D6
:102F000000000000000000000000000000000000C1
:102F100000000000000000000000000000000000B1
:102F2000000000000000000000808040300F000022
:102F300000FF808080807000000000000000000022
:102F40000000000000000000000000000000000081
:102F50000000000000000000000000000000000071
:102F6000000000000000000000FC4444FC00442479
:102F70003C244444447C00000000000000000000A9
:102F80000000000000000000000000000000000041
:102F90000000000000000000000000000000000031
:102FA0000000000000000000008F78080F20C70913
:102FB00009798909196F80000000000000000000F5
:102FC0000000000000000000000000000000000001
:102FD00000000000000000000000000000000000F1
:102FE000000000000000000000004040404040FFA2
:102FF0004040404040000000000000000000000091
:1030000000000000000000000000000000000000C0
:1030100000000000000000000000000000000000B0
:103020000000000000000000404040404040407F61
:1030300040404040404040000000000000000000D0
:103040000000000000000000000000000000000080
:103050000000000000000000000000000000000070
:1030600000000000000000001010FF100082BAEA0B
:10307000BA83BAEABA820000000000000000000033
:103080000000000000000000000000000000000040
:103090000000000000000000000000000000000030
:1030A000000000000000000008180F04484A2AFF32
:1030B0008A4A1A2F5A8A8800000000000000000087
:1030C0000000000000000000000000000000000000
:1030D00000000000000000000000000000000000F0
:1030E00000000000000000001060020CC000888892
:1030F0004F58245484E40000000000000000000049
:1031000000000000000000000000000000000000BF
:1031100000000000000000000000000000000000AF
:10312000000000000000000004047C030082423222
:103130000E02023E42427200000000000000000049
:10314000000000000000000000000000000000007F
:10315000000000000000000000000000000000006F
:103160000000000000000000040404846F04040454
:10317000E4048F4424040400000000000000000068
:10318000000000000000000000000000000000003F
:10319000000000000000000000000000000000002F
:1031A0000000000000000000040201FF00100804FD
:1031B0003F41404040407800000000000000000017
:1031C00000000000000000000000000000000000FF
:1031D00000000000000000000000000000000000EF
:1031E0000000000000000000001010FE101010F0A1
:1031F00000F808080808F8000000000000000000BF
:1032000000000000000000000000000000000000BE
:1032100000000000000000000000000000000000AE
:103220000000000000000000804038078080807FA0
:1032300000FF808080807F00000000000000000010
:10324000000000000000000000000000000000007E
:10325000000000000000000000000000000000006E
:1032600000000000000000000040841810FCA4A42E
:10327000A4A4A4A4A4FC000000000000000000001E
:10328000000000000000000000000000000000003E
:10329000000000000000000000000000000000002E
:1032A000000000000000000000C03A85829CA0FFE2
:1032B0008080FF80908C80000000000000000000F3
:1032C00000000000000000000000000000000000FE
:1032D00000000000000000000000000000000000EE
:1032E0000000000000000000109453321E32521003
:1032F000007E4242427E000000000000000000000C
:1033000000000000000000000000000000000000BD
:1033100000000000000000000000000000000000AD
:103320000000000000000000000000FF494949497A
:10333000494949FF000000000000000000000000B3
:10334000000000000000000000000000000000007D
:10335000000000000000000000000000000000006D
:10336000000000000000000008CC4A49484ACC1880
:10337000007F88888482E0000000000000000000D8
:10338000000000000000000000000000000000003D
:10339000000000000000000000000000000000002D
:1033A000000000000000000000FF121252927F0097
:1033B000007E88888482E000000000000000000099
:1033C00000000000000000000000000000000000FD
:1033D00000000000000000000000000000000000ED
:1033E00000000000000000001060020CC00088888F
:1033F0004F58245484E40000000000000000000046
:1034000000000000000000000000000000000000BC
:1034100000000000000000000000000000000000AC
:10342000000000000000000004047C03008242321F
:103430000E02023E42427200000000000000000046
:10344000000000000000000000000000000000007C
:10345000000000000000000000000000000000006C
:103460000000000000000000040404846F04040451
:10347000E4048F4424040400000000000000000065
:10348000000000000000000000000000000000003C
:10349000000000000000000000000000000000002C
:1034A0000000000000000000040201FF00100804FA
:1034B0003F41404040407800000000000000000014
:1034C00000000000000000000000000000000000FC
:1034D00000000000000000000000000000000000EC
:1034E0000000000000000000000022322AA6A262B4
:1034F000211109810100000000000000000000000F
:1035000000000000000000000000000000000000BB
:1035100000000000000000000000000000000000AB
:103520000000000000000000004222130B42827ED7
:1035300002020A1223460000000000000000000002
:10354000000000000000000000000000000000007B
:10355000000000000000000000000000000000006B
:1035600000000000000000002030AC63300088C87C
:10357000A8998E88A8C888000000000000000000FC
:10358000000000000000000000000000000000003B
:10359000000000000000000000000000000000002B
:1035A000000000000000000022672212128040305C
:1035B0000F00003F404071000000000000000000CC
:1035C00000000000000000000000000000000000FB
:1035D00000000000000000000000000000000000EB
:1035E000000000000000000000004848484848581B
:1035F000E444444444444000000000000000000053
:1036000000000000000000000000000000000000BA
:1036100000000000000000000000000000000000AA
:10362000000000000000000000040404848484847E
:10363000E71C040404040400000000000000000073
:10364000000000000000000000000000000000007A
:10365000000000000000000000000000000000006A
:1036600000000000000000000080888888888880B2
:103670000010FC101010E00000000000000000002E
:10368000000000000000000000000000000000003A
:10369000000000000000000000000000000000002A
:1036A00000000000000000000000704F40403C603F
:1036B000C0300F8080807F0000000000000000000C
:1036C00000000000000000000000000000000000FA
:1036D00000000000000000000000000000000000EA
:1036E00000000000000000000020FCE02008E83C92
:1036F0002828283C28E808000000000000000000FE
:1037000000000000000000000000000000000000B9
:1037100000000000000000000000000000000000A9
:10372000000000000000000000067F000390979555
:10373000553D153555979000000000000000000031
:103740000000000000000000000000000000000079
:103750000000000000000000000000000000000069
:1037600000000000000000000010101010101010E9
:1037700010FC14141C1810000000000000000000D1
:103780000000000000000000000000000000000039
:103790000000000000000000000000000000000029
:1037A000000000000000000000818181417F412174
:1037B00021000F304080F0000000000000000000F9
:1037C00000000000000000000000000000000000F9
:1037D00000000000000000000000000000000000E9
:1037E000000000000000000000F000ACA0A4A4A4B1
:1037F0002CF424B46404FC0000000000000000006D
:1038000000000000000000000000000000000000B8
:1038100000000000000000000000000000000000A8
:10382000000000000000000000FF0017141414370F
:10383000301B1CA3BC807F000000000000000000C3
:103840000000000000000000000000000000000078
:103850000000000000000000000000000000000068
:1038600000000000000000000080F80608884848BA
:10387000487E484848C808000000000000000000DA
:103880000000000000000000000000000000000038
:103890000000000000000000000000000000000028
:1038A00000000000000000000201FF0080EA959582
:1038B0009595959595FF80000000000000000000A0
:1038C00000000000000000000000000000000000F8
:1038D00000000000000000000000000000000000E8
:1038E000000000000000000000404CD80000006014
:1038F0001C0404047C804000000000000000000064
:1039000000000000000000000000000000000000B7
:1039100000000000000000000000000000000000A7
:1039200000000000000000000000007F40208081B7
:10393000475921314D838000000000000000000045
:103940000000000000000000000000000000000077
:103950000000000000000000000000000000000067
:10396000000000000000000000586464645C64E42F
:10397000645C6464645C40000000000000000000BF
:103980000000000000000000000000000000000037
:103990000000000000000000000000000000000027
:1039A0000000000000000000808080FFB5B5B5B5C4
:1039B000B5B5B5B5FF8080800000000000000000B4
:1039C00000000000000000000000000000000000F7
:1039D00000000000000000000000000000000000E7
:1039E0000000000000000000101010FF9008888800
:1039F000FF0000FF888808000000000000000000B1
:103A000000000000000000000000000000000000B6
:103A100000000000000000000000000000000000A6
:103A200000000000000000000242817F000808083A
:103A3000FF0000FF08080800000000000000000070
:103A40000000000000000000000000000000000076
:103A50000000000000000000000000000000000066
:103A600000000000000000000000FE021222C2025E
:103A7000C23202FE00000000000000000000000052
:103A80000000000000000000000000000000000036
:103A90000000000000000000000000000000000026
:103AA000000000000000000080601F0020100C03D8
:103AB0000C30000F3040F800000000000000000053
:103AC00000000000000000000000000000000000F6
:103AD00000000000000000000000000000000000E6
:103AE000000000000000000000F0FC10F0009088D2
:103AF0004C54A46454888080000000000000000042
:103B000000000000000000000000000000000000B5
:103B100000000000000000000000000000000000A5
:103B200000000000000000000087BF4857E02A2A7C
:103B30002A2AFF2A2A2A2A0000000000000000008A
:103B40000000000000000000000000000000000075
:103B50000000000000000000000000000000000065
:103B6000000000000000000000F80404F800F8184D
:103B70002C28C808F8000000000000000000000029
:103B80000000000000000000000000000000000035
:103B90000000000000000000000000000000000025
:103BA0000000000000000000003F40403F002724CC
:103BB0002424A4A52404FC00000000000000000050
:103BC00000000000000000000000000000000000F5
:103BD00000000000000000000000000000000000E5
:103BE00000000000000000000080BCA4A4A4BCC031
:103BF00098A4A4E4A4BC8000000000000000000021
:103C000000000000000000000000000000000000B4
:103C100000000000000000000000000000000000A4
:103C200000000000000000000004FC8C8A89F800FD
:103C300070898A8A8CFC04000000000000000000EB
:103C40000000000000000000000000000000000074
:103C50000000000000000000000000000000000064
:103C60000000000000000000807000FF201004042D
:103C70000404FC0404040400000000000000000030
:103C80000000000000000000000000000000000034
:103C90000000000000000000000000000000000024
:103CA00000000000000000008060180708300000DD
:103CB00040807F00000000000000000000000000C5
:103CC00000000000000000000000000000000000F4
:103CD00000000000000000000000000000000000E4
:103CE00000000000000000004040424458C0407FF7
:103CF00040C0504846404000000000000000000066
:103D000000000000000000000000000000000000B3
:103D100000000000000000000000000000000000A3
:103D20000000000000000000808040201807000014
:103D3000003F4040404078000000000000000000CC
:103D40000000000000000000000000000000000073
:103D50000000000000000000000000000000000063
:103D60000000000000000000001010FE101010F015
:103D700000F808080808F800000000000000000033
:103D80000000000000000000000000000000000033
:103D90000000000000000000000000000000000023
:103DA0000000000000000000804038078080807F15
:103DB00000FF808080807F00000000000000000085
:103DC00000000000000000000000000000000000F3
:103DD00000000000000000000000000000000000E3
:103DE0000000000000000000000888FC48280028AF
:103DF000C8FE0808F80000000000000000000000F5
:103E000000000000000000000000000000000000B2
:103E100000000000000000000000000000000000A2
:103E200000000000000000000089680F0000E00CA6
:103E30000333CC00136C8F00000000000000000072
:103E40000000000000000000000000000000000072
:103E50000000000000000000000000000000000062
:103E6000000000000000000000000000000000FC56
:103E70008080808080800000000000000000000042
:103E80000000000000000000000000000000000032
:103E90000000000000000000000000000000000022
:103EA000000000000000000000808080808080FF13
:103EB0008080808080808000000000000000000082
:103EC00000000000000000000000000000000000F2
:103ED00000000000000000000000000000000000E2
:103EE000000000000000000004040404040404FCBA
:103EF00024448404040404000000000000000000C6
:103F000000000000000000000000000000000000B1
:103F100000000000000000000000000000000000A1
:103F2000000000000000000000000000000000FF92
:103F3000000000010200000000000000000000007E
:103F40000000000000000000000000000000000071
:103F50000000000000000000000000000000000061
:103F6000000000000000000000FC0444BC00FC2431
:103F70002424242424FC0000000000000000000091
:103F80000000000000000000000000000000000031
:103F90000000000000000000000000000000000021
:103FA000000000000000000000FF08080F00FF8173
:103FB0008187193149858000000000000000000061
:103FC00000000000000000000000000000000000F1
:103FD00000000000000000000000000000000000E1
:103FE00000000000000000004F4E20004F46460039
:103FF000104000080000002010000000902300087E
:104000002040000810000020D0210000A02300085C
:104010000101000000A24A040101000000000000AC
:04000005080000ED02
:00000001FF
