:020000040800F2
:10000000403000200101000861190008170E0008A7
:1000100031150008E10A0008BF27000800000000B1
:10002000000000000000000000000000351D000876
:100030005D0C0008000000009D1B0008491E000820
:100040001B0100081B0100081B0100081B01000820
:100050001B0100081B0100081B0100081B01000810
:100060001B0100081B0100081B0100081B01000800
:100070001B0100081B0100081B0100081B010008F0
:100080001B0100081B0100081B0100081B010008E0
:100090001B0100081B0100081B0100081B010008D0
:1000A0001B010008AD1E00081B0100081B01000811
:1000B000C91E0008511F00080D2000081B01000880
:1000C0001B0100081B0100081B0100081B010008A0
:1000D0001B0100081D2500084D2500081B01000814
:1000E0001B0100081B0100081B010008DFF80CD0F1
:1000F00000F054FA004800474D3800084030002016
:100100000648804706480047FEE7FEE7FEE7FEE7B1
:10011000FEE7FEE7FEE7FEE7FEE7FEE74D1E00080E
:10012000ED00000840EA01039B0703D009E008C97D
:10013000121F08C0042AFAD203E011F8013B00F8AC
:10014000013B521EF9D27047D2B201E000F8012BF8
:10015000491EFBD270470022F6E710B513460A4647
:1001600004461946FFF7F0FF204610BD30B505469E
:100170002A460B4612F8010B13F8014B08B1A042B6
:10018000F8D01CB1002802D06D1CF1E7284630BD24
:10019000421C10F8011B0029FBD1801A704730B5B2
:1001A0000B46014600202022012409E021FA02F535
:1001B0009D4205D303FA02F5491B04FA02F52844CF
:1001C000151EA2F10102F1DC30BD2DE9F05F0546FC
:1001D000002092469B4688460646814640241BE006
:1001E000284641464746224600F0F9F953465A460A
:1001F000C01A914110D311461846224600F0E0F98A
:100200002D1A67EB01084F4622460120002100F01D
:10021000D7F917EB00094E41201EA4F10104DFDCE1
:10022000484631462A464346BDE8F09F2DE9FE4F39
:10023000804681EA0300C00F0C46009021F0004187
:1002400023F00045B8EB0200A94105D24046214603
:1002500090461C460B46024623F00040104347D010
:10026000270DC7F30A00C3F30A510290401A019008
:1002700040286BDAC3F3130040F4801B00989246C9
:1002800020B10023D2EB030A63EB0B0B0198594614
:10029000C0F14002504600F093F906460D46504624
:1002A0005946019A00F0ABF910EB080061410024B7
:1002B00087EA115284EAE7731A4340D0009A62B386
:1002C000019A012A4FEA075215DC001B61EB02017B
:1002D0004FF0004202EA0752CDE90042001C41F50E
:1002E000801132462B4600F0ABF903B0BDE8F08F29
:1002F00040462146F9E7001B61EB0201001C41F575
:10030000801300185B412018A2F5001747EB03018A
:1003100040EAD570B6196D4111E06D084FEA360616
:1003200045EAC0754FEA0752001B61EB0201001C51
:1003300041F5801149084FEA300000195141324619
:100340002B4603B0BDE8F04F00F06BB900980122D6
:1003500040000023D0EB020263EBE07300982146DB
:100360004FEAE074B8EB000061EB0401E9E783F0C9
:1003700000435BE781F0004158E72DE9FE4F81EA39
:10038000030404F0004421F0004100944FF0000BFE
:1003900023F0004350EA01045ED052EA03045BD02C
:1003A000C3F30A54C1F30A552C44A4F2F334019464
:1003B000A0FB0254C1F3130141F48011C3F31303F2
:1003C00043F4801301FB024400FB034E840A970AA6
:1003D00044EA815447EA8357A4FB076802958D0AD3
:1003E00005FB07854FEA932C04FB0C542705029D5F
:1003F0004FEA065847EA1637B5EB08056EEB070CCF
:10040000870E920E47EA811742EA8312A7FB020188
:10041000B6EB0B0164EB00042B0D43EA0C335E18C2
:1004200044EB1C50DA465146E7FB0201C5F31304C6
:100430004FEA0B3343EA14534FEA0432019C43EA78
:100440000603A4F10C040294009CCDE900B400F072
:10045000F7F803B0BDE8F08F00200146F9E72DE979
:10046000F04D81EA030404F0004B21F000451446EE
:100470004FF0000A23F0004150EA050220D054EA70
:1004800001021DD0C5F30A570246C5F31303C1F399
:100490001300C1F30A5640F4801543F48013A7EB10
:1004A0000608101BD64608F2FD3873EB050002D390
:1004B00008F1010801E092185B41B8F1000F03DA7E
:1004C00000200146BDE8F08D00204FF48011064663
:1004D00084460EE0171B73EB050705D3121B63EB75
:1004E000050306434CEA010C49084FEA3000921814
:1004F0005B4150EA0107EDD152EA030012D082EAD3
:10050000040083EA0501084305D0101BAB4106D265
:100510000122002306E000224FF0004302E06FF0CA
:10052000010253101AEB06004CEB085110EB0A00C5
:1005300041EB0B01BDE8F04D00F073B8C1F30A5276
:10054000C1F3130140F2FF3341F480119A4202DA01
:1005500000200146704740F233439A42A2F23342F0
:1005600002DC524200F03BB800F02AB830B5041E5D
:1005700071F1000404DB4FF00044404264EB0101E0
:10058000141E73F1000405DB1C464FF00043524279
:1005900063EB0403994208BF904230BD064C074DFF
:1005A00006E0E06840F0010394E807009847103443
:1005B000AC42F6D3FFF79EFDF46300081464000814
:1005C000202A04DB203A00FA02F100207047914013
:1005D000C2F1200320FA03F3194390407047202A08
:1005E00004DB203A21FA02F00021704721FA02F3DD
:1005F000D040C2F120029140084319467047202A9A
:1006000006DBCB17203A41FA02F043EAE07306E03A
:1006100041FA02F3D040C2F120029140084319464A
:10062000704710B5141E73F1000408DA401C41F144
:10063000000192185B411A4301D120F0010010BD66
:100640002DE9F04D92469B4611B1B1FA81F202E0DC
:10065000B0FA80F220329046FFF7B2FF04460F4610
:1006600040EA0A0041EA0B0153465A46084313D0B8
:10067000114653EA010019D0C8F140025046FFF775
:10068000AEFF05460E46504659464246FFF798FFD4
:10069000084305D0012004E020463946BDE8F08D2E
:1006A0000020054346EAE0762C4337430A98630569
:1006B000E40AA0EB08000022FD0A44EA47540A308D
:1006C00002D500200146E9E7010510196941DDE97D
:1006D000084500196941BDE8F04DA2E721B18268E3
:1006E00042F00102826003E0826822F0010282602F
:1006F0007047000010B504461248844208D1012119
:10070000401501F079FA0021601501F075FA17E043
:100710000D48844208D10121001501F06DFA002135
:10072000201501F069FA0BE00848844208D1012144
:10073000C80301F061FA00214FF4004001F05CFAB7
:1007400010BD00000024014000280140003C014091
:10075000014600208A6802F004020AB1012000E08C
:10076000002070470146C86C80B2704702460020E6
:1007700013680B400BB1012000E0002070470146D8
:1007800000208A6802F008020AB1012000E000207F
:100790007047000030B502460020002350680F4C1F
:1007A00020400D790C6844EA05242043506090688D
:1007B0000B4C2040D1E902542C434D7944EA4504C6
:1007C00020439060D06A20F470000C7C641EE4B278
:1007D000234340EA0350D06230BD0000FFFEF0FF2B
:1007E000FDF7F1FFF0B504460D4600200021092D6C
:1007F00011DDE068A5F10A0606EB4607072606FAB2
:1008000007F18843A5F10A0606EB460603FA06F14E
:100810000843E0600CE0206905EB4507072606FA6F
:1008200007F1884305EB450603FA06F1084320610A
:10083000072A0FDA606B561E06EB86071F2606FA9C
:1008400007F18843561E06EB860605FA06F10843B3
:10085000606322E00D2A0FDA206BD61F06EB8607B5
:100860001F2606FA07F18843D61F06EB860605FA0F
:1008700006F10843206310E0E06AA2F10D0606EBE2
:1008800086071F2606FA07F18843A2F10D0606EB3C
:10089000860605FA06F10843E062F0BD816841F082
:1008A00008018160704721B1826842F4A002826031
:1008B00003E0826822F4A00282607047816841F000
:1008C000040181607047000000B587B001214FF43A
:1008D000017001F081F94FF4004001F061F98220CC
:1008E000ADF8040000208DF8070001A9174800F0BA
:1008F000C3F91748FFF7FEFE002002908DF80C00A8
:100900008DF80D004FF46020049000200590012028
:100910008DF8180002A90E48FFF73CFF01210C4892
:10092000FFF7DCFE0A48FFF7B9FF00BF0848FFF7F2
:1009300026FF0028FAD10648FFF7C0FF00BF044891
:10094000FFF706FF0028FAD107B000BD00080140FC
:100950000024014010B5802200211D48FFF7F4FB60
:100960001CA220A11A4802F06FFA1948FFF710FCE8
:100970001D490860802200211C48FFF7E5FB1CA2EE
:1009800018A11A4802F060FA1848FFF701FC1A494A
:100990000860802200211948FFF7D6FB14A211A19C
:1009A000164802F051FA1548FFF7F2FB14490860A7
:1009B000802200211348FFF7C7FB13A209A11148A9
:1009C00002F042FA40F25B701249086010BD00006C
:1009D0003C2900206D717474785F65386634383056
:1009E000643600002573000068000020BC2A002047
:1009F000726F6F74000000006C0000203C2B002020
:100A000070000020BC2B002034372E3130392E38B6
:100A1000392E38007400002010B51C4880781C491D
:100A20004978884205DB4FF400711A4800F0BAF9A2
:100A300004E04FF40071174800F0B2F9164840780E
:100A4000C0F164001249C978884205DC4FF4807116
:100A5000104800F0A7F904E04FF480710D4800F051
:100A60009FF90D480078C0F164000949097888426F
:100A700005DC4FF40051094800F094F904E04FF40C
:100A80000051064800F08CF910BD00007E000020E7
:100A900000000020000C0140AC00002000100140CC
:100AA00008B510208DF8030003208DF80200012105
:100AB000042001F091F84FF48070ADF80000694611
:100AC000064800F0D9F84FF48071044800F06AF944
:100AD0004FF4807001491431086008BD00080140DE
:100AE00000BFFEE708B50121042001F075F81020D1
:100AF000ADF800008DF8030003208DF80200694670
:100B0000014800F0B9F808BD0008014010B5FFF732
:100B1000E9FF1021014800F045F910BD000801402F
:100B200008B51020ADF8000048208DF80300694694
:100B3000014800F0A1F808BD0008014008B51020E8
:100B4000ADF800008DF8030003208DF8020069461F
:100B5000014800F091F808BD0008014070B500257B
:100B6000002424E000BF1021134800F010F90028F1
:100B7000F9D0282002F044FE10210F4800F007F9B8
:100B800001280DD100BF10210B4800F000F9012809
:100B9000F9D0C4F1070101208840C0B2054304E048
:100BA000C4F10701012088408543601CC4B2082CB1
:100BB000D8DB284670BD00000008014010B504468F
:100BC000FFF7BCFF1021244800F0EAF8122002F0E1
:100BD000F1FD1021204800F0E5F81E2002F010FE83
:100BE000FFF79EFF10211C4800F0D1F880BB00BF2A
:100BF0001021194800F0CBF80028F9D000BF1021CF
:100C0000154800F0C4F80128F9D0FFF7A7FF2070BD
:100C1000FFF7A4FF6070FFF7A1FFA070FFF79EFF32
:100C2000E070FFF79BFF2071FFF788FF10210A4853
:100C300000F0B8F8207861780844A1780844E17899
:100C400008442179884201D1012010BD0020FCE731
:100C5000FFE70020F9E70000000801407047014667
:100C600005E0002001E0421CD0B27B28FBDB0A1E1D
:100C7000A1F10101F5D170472DE9F04102460025AF
:100C80000026002000230024002791F803C00CF068
:100C90000F0591F803C00CF0100CBCF1000F03D04D
:100CA00091F802C04CEA050591F800C0BCF1000FB4
:100CB00031D0146800202BE04FF0010C0CFA00F347
:100CC000B1F800C00CEA03069E4220D183004FF029
:100CD0000F0C0CFA03F7BC4305FA03FC4CEA0404BE
:100CE00091F803C0BCF1280F06D14FF0010C0CFAAB
:100CF00000FCC2F814C00AE091F803C0BCF1480F30
:100D000005D14FF0010C0CFA00FCC2F810C0401CD9
:100D10000828D1D31460B1F800C0BCF1FF0F34DD56
:100D2000546800202EE000F1080C4FF0010808FA8A
:100D30000CF3B1F800C00CEA03069E4221D18300F7
:100D40004FF00F0C0CFA03F7BC4305FA03FC4CEA16
:100D5000040491F803C0BCF1280F05D100F1080C80
:100D600008FA0CF8C2F8148091F803C0BCF1480FDF
:100D700007D100F1080C4FF0010808FA0CF8C2F88E
:100D80001080401C0828CED35460BDE8F081024694
:100D9000002093680B400BB1012000E00020704759
:100DA00041617047016170470AB1016100E0416132
:100DB0007047000010B50446072301222146094868
:100DC000FFF710FD01210748FFF76DFD00BF02216D
:100DD0000448FFF7CBFC0028F9D00248FFF7C2FC1B
:100DE00010BD0000002401402DE9F04107460C46EB
:100DF0000025002608E03846FFF7DCFF0544052003
:100E000002F0D8FC701CC6B2A642F4DBB5FBF4F0CD
:100E100080B2BDE8F08100BFFEE7000010B54FF4DE
:100E200080510948FFF7BEFF4FF400610648FFF705
:100E3000B9FF4FF400610448FFF7B2FF4FF480514F
:100E40000148FFF7ADFF10BD0008014010B54FF499
:100E500080510748FFF7A6FF4FF400610448FFF7F1
:100E60009FFF4FF400610248FFF79CFF10BD000098
:100E70000008014010B54FF480510448FFF792FF7D
:100E80004FF480510148FFF78BFF10BD000801406F
:100E900008B54348007800287DD10E22002110209B
:100EA00003F03AFB0F220021202003F035FB102233
:100EB0000021302003F030FB11220021402003F0FC
:100EC0002BFB12220021502003F026FB13220021CD
:100ED000602003F021FB00220221104603F01CFBDE
:100EE00002221146102003F017FB10233A220221A0
:100EF000202000F0F5FD08220421002003F00CFB67
:100F000009220421102003F007FB10233A220421B8
:100F1000202000F0E5FD06221146002003F0FCFA37
:100F200007220621102003F0F7FA10233A220621A7
:100F3000202000F0D5FD102000901A48827802236E
:100F40001946302003F01CFB102000901648407812
:100F5000C0F1640202230421302003F011FB1020B1
:100F6000009011480078C0F164020223062130206D
:100F700003F006FB10230DA20221502003F044FBD6
:100F800010230AA20421502003F03EFB102308A2E4
:100F90000621502000E001E003F036FB08BD000010
:100FA000060000207E000020AC000020250000008C
:100FB0006C75780008B501210C2000F00DFE4FF48F
:100FC0007040ADF8000048208DF8030069460A48DB
:100FD000FFF752FE69460848FFF74EFE694606488D
:100FE000FFF74AFE69460448FFF746FE6946024895
:100FF000FFF742FE08BD0000000C014003480078E6
:1010000010B9012001490870704700001800002045
:101010000348007810B901200149087070470000AA
:10102000190000200348007810B901200149087018
:10103000704700001A0000200348007810B9012012
:1010400001490870704700001B00002010B54FF4E4
:1010500080515548FFF79BFEE0B954480068C8B975
:1010600053480068401C524908600846006802283E
:101070000FDD4FF480514C48FFF789FE002808D15E
:101080004A4800680028FAD1FFF7B8FF0120474915
:10109000086088E04FF400514348FFF778FEE0B95C
:1010A00042480068C8B942480068401C404908608E
:1010B00008460068022876DD4FF400513A48FFF7F1
:1010C00066FE00286FD13948006800286BD1FFF711
:1010D0009FFF01203549086065E04FF480413248A8
:1010E000FFF755FEE0B931480068C8B930480068DC
:1010F000401C2F49086008460068022853DD4FF461
:1011000080412948FFF743FE00284CD1274800685A
:10111000002848D1FFF786FF01202449086042E0FB
:101120004FF400412048FFF732FED0B91F48006855
:10113000B8B91F480068401C1D490860084600688F
:10114000022830DD4FF400411748FFF720FE50BB66
:101150001648006838BBFFF76FFF0120134908608D
:1011600021E04FF480511048FFF711FE01281AD1F9
:1011700041030D48FFF70BFE012814D181030A48F3
:10118000FFF705FE01280ED1C1030748FFF7FFFD59
:10119000012808D105480068012804D1002004492D
:1011A00008600249086010BD000C014024000020C6
:1011B0002000002008B50121102000F00DFD4FF4A3
:1011C0000050ADF8000010208DF8030003208DF8CA
:1011D000020069460148FFF74FFD08BD00100140BD
:1011E00010B51248124908600846006811490860A5
:1011F0001148124908601248124908600846006800
:1012000011490860114812490860124812490860E3
:10121000084600681149086011481249086000F04A
:10122000DDF9012110A000F0B3FA10BD580800202C
:101230003C00002040000020B811002044000020A5
:101240005C130020480000204C000020BC1C002043
:10125000500000204C1E00205C0000206000002098
:10126000AC27002064000020536D617274686F6DBC
:10127000655375623200000010B514220021202051
:1012800003F04AF915220021302003F045F9162217
:101290000021402003F040F917220021502003F0E4
:1012A0003BF99A480078002832D099480078401CD1
:1012B0009749087008460078042801D10120087079
:1012C00093480078012803D091480078042805D17C
:1012D00001209049087003F065F816E08C4800780A
:1012E000022803D08A480078052803D102208949C2
:1012F00008700AE086480078032803D08448007804
:10130000062802D103208349087000207F49087015
:101310008148007840B37E480078012808D17F4892
:10132000C07808B9012000E000207C49C87018E0AE
:1013300077480078022808D17848007908B9012058
:1013400000E00020754908710BE07148007803281F
:1013500007D17248407908B9012000E000206F49A8
:10136000487100206C4908706948007803285FDCE8
:101370001C220221102003F0CFF81D220221202080
:1013800003F0CAF810233A220221302000F0A8FB13
:101390000A220421102003F0BFF80B220421202090
:1013A00003F0BAF810233A220421302000F098FB11
:1013B00021220621102003F0AFF82222062120204E
:1013C00003F0AAF810233A220621302000F088FB0F
:1013D0005248C07830B1102351A20221482003F0B6
:1013E00013F905E010234FA20221482003F00CF965
:1013F0004A48007930B1102349A20421482003F063
:1014000003F905E0102347A20421482003F0FCF86B
:101410004248407930B1102341A20621482003F010
:10142000F3F805E010233FA20621482003F0ECF872
:1014300038480078012804D0022815D0032839D173
:1014400025E010232A220221002000F049FB10236E
:1014500020220421002000F043FB1023202206213B
:10146000002000F03DFB25E0102320220221002077
:1014700000F036FB10232A220421002000F030FB6C
:10148000102320220621002000F02AFB12E0102366
:1014900020220221002000F023FB1023202204211F
:1014A000002000F01DFB10232A220621002000F05E
:1014B00017FB00BF00BF1948C07828B14FF4007176
:1014C0001948FFF76FFC04E04FF400711648FFF76E
:1014D00067FC1248007928B14FF480711248FFF779
:1014E00061FC04E04FF480710F48FFF759FC0B4892
:1014F000407928B14FF400510C48FFF753FC04E049
:101500004FF400510948FFF74BFC10BD19000020B3
:1015100008000020090000201A000020BC00002064
:101520004F4E20004F464600000C01400010014085
:1015300000BFFEE710B52348007880B100202249A3
:10154000087022490870224908701E49087002F08C
:1015500029FF20480078401C1E4908700EE01C48F6
:10156000007858B11B48007840B90020164908702F
:101570001649087016490870124908701548007815
:10158000032802DB0020134908701348807820B13B
:1015900002F008FF0020104988700E48007820B142
:1015A000012807D002280BD107E0FFF771FCFFF7F5
:1015B00033FA05E0FFF760FE02E000F017FE00BF1F
:1015C00000BF10BD180000201B0000201A000020E2
:1015D0001900002007000020BC0000202DE9F04188
:1015E00001240A2763480068001D6349096808440C
:1015F000801C6249096800EB010807EB0805102010
:101600005F49087012E02846E91705EB5161C911DE
:10161000A5EBC116E91705EB5161CD11002D01DDD8
:1016200046F080062046641C55490E54002DEADC25
:101630000020534908550421514A601C11544D2182
:10164000A01C11545121E01C11545421201D11548F
:10165000601D11540421A01D1154C221E01D11541C
:101660000021401C11546421401C11544149086858
:10167000C11700EB1161C1F30722414B04F10A01CC
:101680005A543C490868C11700EB11610912A0EBDC
:101690000121CAB204F10B015A541A46491C5018D0
:1016A00034490A683749FEF73DFD33490868C117D8
:1016B00000EB1161C1F3072204F10C012D4B1B68F3
:1016C00019442F4B5A542C490868C11700EB11617B
:1016D0000912A0EB0121CAB204F10D01254B1B68D0
:1016E0001944274B5A5404F10E01224A126811443E
:1016F0001A46881820490A682349FEF713FD1F4936
:101700000868C11700EB1161C1F3072204F10E0153
:10171000184B1B681944184B1B681944184B5A5432
:1017200016490868C11700EB11610912A0EB0121ED
:10173000CAB204F10F010F4B1B6819440E4B1B6812
:1017400019440F4B5A5404F110010A4A126811440B
:10175000094A126811441A46881808490A680B4950
:10176000FEF7E0FCE01900EB0801054802F052FD2D
:10177000BDE8F081680000206C00002070000020AF
:10178000C80600203C290020BC2A00203C2B002059
:101790002DE9F05F06460F4601254FF0020A30465C
:1017A000FEF7F6FC00F103080AEB08048220254945
:1017B000087013E02046E11704EB5161C911A4EB56
:1017C000C119E11704EB5161CC11002C01DD49F086
:1017D000800928466D1C1B4901F80090002CE9DCAB
:1017E0000020184948550A21164A681C11543046F1
:1017F000FEF7CEFCC0F30721124AA81C1154304654
:10180000FEF7C6FCC1B20F4AE81C11543046FEF781
:10181000BFFC83460B4A291D50185A463146FEF735
:1018200081FC3046FEF7B4FC291D084405490F54DD
:1018300005EB0A0000EB0801024802F0EBFCBDE8F2
:10184000F09F0000C806002000B585B001210420EB
:1018500000F0C2F90121880300F0BEF918208DF8CC
:1018600013004FF40070ADF8100001208DF8120045
:1018700004A91648FFF700FA04208DF813000002AF
:10188000ADF8100004A91148FFF7F6F94FF4E13064
:1018900000900020ADF80C000C20ADF80A000020EC
:1018A000ADF80800ADF80600ADF804006946084838
:1018B00000F002FF012240F22551054800F0D6FE5B
:1018C0000121034800F08FFE05B000BD0008014073
:1018D0000038014000B585B00121042000F07CF9FA
:1018E0000121480400F068F918208DF81300042045
:1018F000ADF8100001208DF8120004A91648FFF77A
:10190000BBF904208DF813000820ADF8100004A9DD
:101910001148FFF7B1F94FF4E13000900020ADF825
:101920000C000C20ADF80A000020ADF80800ADF85E
:101930000600ADF804006946084800F0BDFE01222B
:1019400040F22551054800F091FE0121034800F0C6
:101950004AFE05B000BD0000000801400044004000
:10196000704708B54FF4A06000F09CF825208DF872
:10197000000002208DF801008DF8020001208DF892
:101980000300684600F056F826208DF8000000207D
:101990008DF801008DF8020001208DF803006846E3
:1019A00000F048F826208DF8000002208DF8010094
:1019B0008DF8020001208DF80300684600F03AF827
:1019C00027208DF8000000208DF801008DF802001E
:1019D00001208DF80300684600F02CF81E208DF8D9
:1019E000000002208DF801008DF8020001208DF822
:1019F0000300684600F01EF81D208DF8000002204C
:101A00008DF801008DF8020001208DF80300684672
:101A100000F010F81C208DF8000002208DF8010065
:101A20008DF8020001208DF80300684600F002F8EE
:101A300008BD000070B5002100230F22C47804B354
:101A4000154C246804F4E064C4F5E064210AC1F193
:101A50000403CA40447804FA03F184781440214313
:101A600009010E4C0678A155047804F01F050124E5
:101A7000AC4005786D11AD0005F1E025C5F80041D9
:101A800009E0047804F01F050124AC40044D0678F9
:101A9000761145F8264070BD0CED00E000E400E052
:101AA00080E100E002490143024A116070470000F2
:101AB0000000FA050CED00E070B504460D4605F196
:101AC000B000002100F05EF8102141EA141000215E
:101AD00000F058F804F00F00002100F053F870BD3A
:101AE0002DE9F04707460E4690469946002500240A
:101AF000A8F12000C5B27F2F02DD0027B01CC6B2BE
:101B0000B9F1100F24D131463846FFF7D5FF002434
:101B100008E004EB0511194A505C012100F032F88D
:101B2000601CC4B2082CF4DB701CC1B23846FFF74D
:101B3000C3FF002409E004EB051108310F4A505C93
:101B4000012100F01FF8601CC4B2082CF3DB12E086
:101B500031463846FFF7B0FF00240AE005EB4501A7
:101B6000074A02EB4101085D012100F00BF8601CFF
:101B7000C4B2062CF2DBBDE8F0870000B4490008CF
:101B80008C47000870B504460D461DB1E0B201F067
:101B900045F902E0E0B201F02BF970BD704700009A
:101BA00001460020034A506820F44040084350603A
:101BB000704700000010024029B1064AD269024372
:101BC000044BDA6104E0034AD2698243014BDA61D3
:101BD000704700000010024029B1064A9269024392
:101BE000044B9A6104E0034A92698243014B9A6173
:101BF000704700000010024029B1064AD268024333
:101C0000044BDA6004E0034AD2688243014BDA6095
:101C1000704700000010024030B50021002200246F
:101C200000232D4D6D6805F00C0121B1042905D06C
:101C3000082923D105E0294D056022E0274D0560E4
:101C40001FE0254D6D6805F47012234D6D6805F495
:101C50008034022505EB92421CB9214D55430560A5
:101C60000BE01D4D6D6805F400351DB11C4D55434D
:101C7000056002E0194D5543056002E0174D05600F
:101C800000BF00BF144D6D6805F0F0010909154D46
:101C90006B5C0568DD4045600F4D6D6805F4E061E3
:101CA000090A104D6B5C4568DD4085600A4D6D6822
:101CB00005F46051C90A0B4D6B5C4568DD40C56099
:101CC000054D6D6805F44041890B074D6B5CC56897
:101CD000B5FBF3F5056130BD0010024000127A003B
:101CE00000093D0098000020A800002008B501214F
:101CF0000820FFF771FF4FF46070ADF8000010206E
:101D00008DF8030003208DF8020069460848FEF7AD
:101D1000B3FF4FF400710648FFF742F84FF48071AB
:101D20000348FFF73DF880210148FFF739F808BD67
:101D3000000C0140704710B500F002F810BD000023
:101D40000CB50020019000903348006840F48030CA
:101D50003149086000BF3048006800F4003000904E
:101D60000198401C0190009818B90198B0F5A06F37
:101D7000F1D12948006800F4003010B10120009032
:101D800001E0002000900098012843D1234800681A
:101D900040F01000214908600846006820F0030068
:101DA00008600846006840F0020008601A48406871
:101DB000194948600846406848600846406840F451
:101DC000806048600846406820F47C1048600846FF
:101DD000406840F4E81048600846006840F08070B1
:101DE000086000BF0C48006800F000700028F9D0BF
:101DF0000948406820F003000749486008464068E9
:101E000040F00200486000BF0348406800F00C004A
:101E10000828F9D10CBD000000100240002002404B
:101E2000042808D14FF0E021096941F004014FF086
:101E3000E022116107E04FF0E021096921F004017F
:101E40004FF0E022116170477047000010B5134851
:101E5000006840F0010011490860084640681049D8
:101E600008400E494860084600680E4908400B4982
:101E700008600846006820F4802008600846406832
:101E800020F4FE0048604FF41F008860FFF753FF06
:101E90004FF000600449086010BD000000100240CF
:101EA0000000FFF8FFFFF6FE08ED00E010B501218D
:101EB000044800F02CF918B10121024800F018F98B
:101EC00010BD0000002C014010B50121880700F072
:101ED0001EF9B0B1FFF7BAF80A48007868B90A48A5
:101EE0000078401C08490870084600781E2804DB6A
:101EF000002008700120034908700121880700F0C4
:101F0000F7F810BDBC0000200C0000203EB50546CF
:101F10000C4601210846FFF74FFEA8B2ADF80400B9
:101F2000A0B2ADF800000020ADF80600ADF8020048
:101F300069464FF0804000F007F9012211469007F2
:101F400000F0F6F80121880700F0D5F83EBD00004A
:101F500010B50121174800F0DAF848B316480078A8
:101F6000401C1549087008460078052808DB002049
:101F7000087002F0B1F911480078401C0F49087050
:101F80000F48007828B100200C4908700C490870EF
:101F90000AE00A480078022806DB0020074908709A
:101FA00007490870074908700121024800F0A0F8AD
:101FB00010BD0000000400400D0000200E000020B5
:101FC0002D0000202A0000203EB505460C460121C8
:101FD0000220FFF7F1FDA8B2ADF80400A0B2ADF801
:101FE00000000020ADF80600ADF802006946064882
:101FF00000F0AAF801221146034800F099F80121E7
:10200000014800F078F83EBD0004004010B5012101
:102010001F4800F07CF8002839D01E4802881E496D
:102020001E480068801CFEF77DF81A490888C11711
:1020300000EB1161090A194A1268117015490888E4
:10204000C11700EB11610912A0EB0121134A1268BC
:1020500051701248006800F5C870104908600846C1
:1020600000680F490968884202D10E480B49086090
:102070000020084908800021054800F03CF80021B4
:10208000034800F05EF80121014800F031F810BD6E
:102090000008004010000020C80100204800002077
:1020A000500000205C1300203EB505460C4601217F
:1020B0000420FFF781FDADF80450ADF8004000208A
:1020C000ADF80600ADF802006946084800F03CF89B
:1020D00001221146054800F02BF80121034800F0C9
:1020E00007F80021014800F006F83EBD0008004056
:1020F000CA430282704721B1028842F00102028085
:1021000004E002884FF6FE731A400280704730B533
:102110000246002000230024158A05EA0103958960
:1021200005EA010413B10CB1012000E0002030BD2C
:102130001AB183890B43838102E083898B438381B6
:102140007047818470470000002202881D4B98422E
:102150000ED01D4B98420BD0B0F1804F08D01B4BD6
:10216000984205D01A4B984202D01A4B984204D19B
:102170004FF68F731A404B881A43174B984207D07B
:10218000164B984204D04FF6FF431A40CB881A43AF
:1021900002808B8883850B8803850A4B98420BD07D
:1021A000094B984208D00E4B984205D00D4B9842EF
:1021B00002D00D4B984201D10B7A03860123838212
:1021C00070470000002C0140003401400004004032
:1021D00000080040000C00400010004000140040C7
:1021E00000400140004401400048014008B5182269
:1021F0000021202002F090F919220021302002F065
:102200008BF91A220021402002F086F91B220021BE
:10221000502002F081F9AF480078002833D0AE4852
:102220000078401CAC49087008460078042801D1A9
:1022300001200870A8480078012803D0A64800783B
:10224000042805D10120A549087002F0ABF816E07A
:10225000A1480078022803D09F480078052803D1C0
:1022600002209E4908700AE09B480078032803D0AA
:1022700099480078062802D1032098490870002068
:102280009449087046E09648007800B300209449CD
:10229000087091480078012805D192484078401C88
:1022A0009049487036E08C480078022805D18D4866
:1022B000C078401C8B49C8702CE087480078032800
:1022C00028D188480078401C8649087022E086485A
:1022D0000078F8B10020844908707F480078012810
:1022E00005D180484078401E7E49487012E07A4807
:1022F0000078022805D17B48C078401E7949C87013
:1023000008E075480078032804D176480078401E1C
:102310007449087070480078032879DC0022022193
:10232000102002F0F9F802221146202002F0F4F801
:1023300025220221302002F0EFF82722022140203E
:1023400002F0EAF810233A2202215020FFF7C8FBDE
:1023500000220421102002F0DFF8022204212020B4
:1023600002F0DAF826220421302002F0D5F82722E4
:102370000421402002F0D0F810233A2204215020FA
:10238000FFF7AEFB08220621102002F0C5F8092253
:102390000621202002F0C0F826220621302002F07B
:1023A000BBF827220621402002F0B6F810233A227B
:1023B00006215020FFF794FB1020009049484278F6
:1023C000022319465A2002F0DBF8102000904548FD
:1023D000C278022304215A2002F0D2F81020009083
:1023E00040480278022306215A2002F0C9F803224D
:1023F0000221702002F090F8102325220421702081
:10240000FFF76EFB102339A20621702002F0FCF8C2
:1024100032480078012804D0022815D0032839D189
:1024200025E010232A2202210020FFF759FB102368
:10243000202204210020FFF753FB10232022062135
:102440000020FFF74DFB25E0102320220221002071
:10245000FFF746FB10232A2204210020FFF740FB50
:102460001023202206210020FFF73AFB12E0102360
:10247000202202210020FFF733FB10232022042119
:102480000020FFF72DFB10232A2206210020FFF752
:1024900027FB00BF00BF1348C078642802DB64201C
:1024A0001049C8700F48C078002802DC00200D4990
:1024B000C8700C488088B0F57A7F03DB4FF47A70DF
:1024C0000849888007488088002802DC00200549E8
:1024D000888008BD190000200A0000200B000020A1
:1024E0001A000020000000201B0000202500000032
:1024F00022214170192181702821C170322101707F
:102500000021054AD170117151719171D17111720F
:102510001170917070470000BC00002010B540F2AF
:102520002551094800F078F860B140F2255106487D
:1025300000F04AF8044800F02BF9C4B221460248E2
:1025400000F039F910BD00000038014010B51948FD
:102550000078B0B940F22551174800F05DF840B35B
:102560001548001D008820B3134800F011F91349E5
:10257000134A1288885412480088401C1049088069
:1025800017E00D4800F004F90C490D4A12888854F0
:102590000B48008820B901210A48FFF7ACFD03E091
:1025A00000210848FFF7CDFD05480088401C04497C
:1025B000088010BD2A00002000440040C80100200F
:1025C000100000200008004010B50022002340F653
:1025D0006A14A14200D100BF0A1201249440A3B2A0
:1025E000DC43048010BD21B1828942F40052828113
:1025F00004E082894DF6FF731A40828170470246DB
:102600000020B1F5007F00D100BF13880B400BB153
:10261000012000E00020704770B50246002400232E
:102620000025002040F66A16B14200D100BFC1F378
:10263000421501F01F03012606FA03F3012D02D112
:102640009689334006E0022D02D1168A334001E01C
:10265000968A33400C12012606FA04F41688344098
:1026600013B10CB1012000E0002070BDF0B50346AD
:10267000002400260025002040F66A17B94200D148
:1026800000BF1846C1F3421401F01F06012707FAE4
:1026900006F5012C01D10C3004E0022C01D11030E0
:1026A00000E014301AB107682F43076002E00768A2
:1026B000AF430760F0BD00002DE9F04786B0054646
:1026C0000E460024A24600BFA1460027B08900B1F3
:1026D00000BF2F462C8A4CF6FF700440F08804435C
:1026E0002C82AC894EF6F3100440B088318908433F
:1026F000718908430443AC81AC8A4FF6FF40044023
:10270000B0890443AC8201A8FFF786FA1F488742CC
:1027100002D1DDF810A001E0DDF80CA0A88900F4DA
:10272000004040B10AEBCA0000EB0A1031684900D2
:10273000B0FBF1F807E00AEBCA0000EB0A103168C1
:102740008900B0FBF1F86420B8FBF0F00401200927
:10275000642101FB1089A88900F4004040B13220B7
:1027600000EBC900B0FBF1F000F00700044308E003
:10277000322000EB09106421B0FBF1F000F00F00F3
:1027800004432C8106B0BDE8F0870000003801400A
:1027900001468888C0F30800704770B504460D46AE
:1027A000C5F30800A08000BF80212046FFF727FF67
:1027B0000028F9D070BDC1F308028280704700BFC5
:1027C000FEE7000070B504460E4615464FF48061E2
:1027D0001148FDF7C0FC002010490880314610A0C8
:1027E00001F084FF0CE0642000F0E4FF29460A4871
:1027F000FDF7BCFC00B107E021460BA001F02CFF67
:10280000201EA4F10104EED100BF002C01DD002048
:1028100070BD0120FCE70000C8010020100000206E
:1028200025730D0A000000002564200008B501F0A2
:1028300085FF76A001F010FF102001231A46062123
:102840000090602001F09CFE76A277A13220FFF775
:10285000B9FF20B178A001F0FFFE022008BD7BA0E7
:1028600001F0FAFE6EA001F0F7FE7DA001F0F4FE8B
:1028700010200123022206210090602001F080FE3A
:102880007BA27DA13220FFF79DFF20B17DA001F04A
:10289000E3FE0320E2E77EA001F0DEFE60A001F08F
:1028A000DBFE7EA001F0D8FE1020012303220621CA
:1028B0000090602001F064FE5AA27EA13220FFF752
:1028C00081FF20B180A001F0C7FE0420C6E783A0ED
:1028D00001F0C2FE52A001F0BFFE85A001F0BCFED7
:1028E00010200123042206210090602001F048FE00
:1028F000322000F007FA20B182A001F0ADFE0520E1
:10290000ACE785A001F0A8FE45A001F0A5FE87A0D8
:1029100001F0A2FE10200123052206210090602074
:1029200001F02EFE3FA288A13220FFF74BFF20B11D
:1029300089A001F091FE062090E78DA001F08CFEA9
:1029400037A001F089FE90A001F086FE102001233F
:10295000062211460090602001F012FE31A290A1E3
:102960003220FFF72FFF20B191A001F075FE072064
:1029700074E794A001F070FE29A001F06DFE96A00E
:1029800001F06AFE1020012307220621009060203A
:1029900001F0F6FD322000F071F920B194A001F0B1
:1029A0005BFE08205AE797A001F056FE1CA001F03C
:1029B00053FE99A001F050FE1020012308220621A9
:1029C0000090602001F0DCFD99A29CA13220FFF76D
:1029D000F9FE20B19DA001F03FFE09203EE7102343
:1029E0009FA20621602001F00FFE642000F0E2FEAD
:1029F00010239CA20621602001F006FE01F0D2FC0B
:102A000099A001F029FE002028E7000031A1A2D7FB
:102A1000BCB1B8C5E4D6C357494649C4A3CABD2111
:102A20000D0A00004F4B000041542B43574D4F44BB
:102A3000453D310D0A000000C5E4D6C3574946495B
:102A4000C4A3CABDCAA7B0DC210D0A00C5E4D6C321
:102A500057494649C4A3CABDB3C9B9A6210D0A0046
:102A600032A1A2D7BCB1B8B8B4CEBB210D0A0000C8
:102A7000726561647900000041542B5253540D0A71
:102A800000000000B8B4CEBBCAA7B0DC210D0A001C
:102A9000B8B4CEBBB3C9B9A6210D0A0033A1A2D7E1
:102AA000BCB1B8C8A1CFFBD7D4B6AFC1ACBDD30DB4
:102AB0000A00000041542B43574155544F434F4E99
:102AC0004E3D300D0A000000C8A1CFFBD7D4B6AFF1
:102AD000C1ACBDD3CAA7B0DC210D0A00C8A1CFFB91
:102AE000D7D4B6AFC1ACBDD3B3C9B9A6210D0A00C6
:102AF00034A1A2D7BCB1B8C1ACBDD3C2B7D3C9C68B
:102B0000F70D0A00C1ACBDD3C2B7D3C9C6F7CAA777
:102B1000B0DC210D0A000000C1ACBDD3C2B7D3C9DF
:102B2000C6F7B3C9B9A6210D0A00000035A1A2D786
:102B3000BCB1B8C5E4D6C3B5A5C2B7C1ACBDD3C49A
:102B4000A3CABD210D0A000041542B4349504D55E5
:102B5000583D300D0A000000C5E4D6C3B5A5C2B784
:102B6000C1ACBDD3C4A3CABDCAA7B0DC210D0A0045
:102B7000C5E4D6C3B5A5C2B7C1ACBDD3C4A3CABD55
:102B8000B3C9B9A6210D0A0036A1A2D7BCB1B8BFFE
:102B9000AAC6F4CDB8B4ABC4A3CABD0D0A000000E8
:102BA00041542B4349504D4F44453D310D0A0000DF
:102BB000BFAAC6F4CDB8B4ABC4A3CABDCAA7B0DC23
:102BC000210D0A00BFAAC6F4CDB8B4ABC4A3CABDD8
:102BD000B3C9B9A6210D0A0037A1A2D7BCB1B8BDAF
:102BE000A8C1A2544350C1ACBDD30D0A00000000DF
:102BF000BDA8C1A2544350C1ACBDD3CAA7B0DC210B
:102C00000D0A0000BDA8C1A2544350C1ACBDD3B34E
:102C1000C9B9A6210D0A000038A1A2D7BCB1B8BD20
:102C2000F8C8EBCDB8B4ABC4A3CABD0D0A00000010
:102C30000D0A4F4B0D0A0D0A3E00000041542B4374
:102C4000495053454E440D0A00000000BDF8C8EB42
:102C5000CDB8B4ABC4A3CABDCAA7B0DC210D0A006D
:102C60006F6B000020200000BDF8C8EBCDB8B4ABFE
:102C7000C4A3CABDB3C9B9A6210D0A0010B5044644
:102C80004FF480611248FDF766FA00201149088070
:102C900011481249026812A001F028FD0DE04FF41E
:102CA0007A7000F087FD15A10948FDF75FFA00B1C1
:102CB00007E0214612A001F0CFFC201EA4F1010480
:102CC000EDD100BF002C01DD002010BD0120FCE78C
:102CD000C80100201000002074000020BC2B002040
:102CE00041542B43495053544152543D2254435074
:102CF000222C222573222C25640D0A004F4B000044
:102D00002564200010B504464FF480611248FDF799
:102D100022FA00201149088011A214A115A001F087
:102D2000E5FC0DE04FF47A7000F044FD17A10A486D
:102D3000FDF71CFA00B107E0214615A001F08CFC5C
:102D4000201EA4F10104EDD100BF002C01DD002004
:102D500010BD0120FCE70000C80100201000002089
:102D6000363636363636363600000000776C6B6AFB
:102D70000000000041542B43574A41503D22257327
:102D8000222C222573220D0A000000004F4B000068
:102D9000256420002DE9F04105462C464FF4805172
:102DA0001248FDF7FDFF00261CE0274607F08007CC
:102DB000802F04D139010D48FDF7F4FF04E04FF4F2
:102DC00000610A48FDF7ECFF6006040E4FF48051E5
:102DD0000648FDF7E7FF4FF480510448FDF7E0FF98
:102DE000701CC6B2082EE0DBBDE8F081000801408F
:102DF00010B50446FEF712F87820FFF7CBFFFEF778
:102E000039F80020FFF7C6FFFEF734F82046FFF739
:102E1000C1FFFEF72FF8FEF719F810BD10B50446F4
:102E2000FDF7FCFF7820FFF7B5FFFEF723F8402001
:102E3000FFF7B0FFFEF71EF82046FFF7ABFFFEF7E7
:102E400019F8FEF703F810BD0FB4084B10B504A92C
:102E500002AA039800F0F0F8044602A9002000F04E
:102E600082FC204610BC5DF814FB000067370008A8
:102E700037B514460846064B6A46214600F0DCF892
:102E800004466946002000F06EFC20463EBD00006E
:102E90006737000802E008C8121F08C1002AFAD1EB
:102EA00070477047002001E001C1121F002AFBD1CA
:102EB000704700002DE9FF5F82B00021DDE904309A
:102EC000020DDDF840B0034318D044F61050A2F2D2
:102ED000FF3242431514119801281FD0A5EB0B00B7
:102EE000401C5FEA000A4FF000064E4FDFF83891B1
:102EF000B046504615D5CAF1000413E011980124DC
:102F00004AA3012801D16FEA0B010298119AC0E986
:102F10000031C0E9024206B0BDE8F09FCBF10000ED
:102F2000DFE704460021404A491842EB0450CDE94E
:102F3000001012E0E00707D032463B4640464946C3
:102F4000FDF71BFA8046894632463B461046194635
:102F5000FDF713FA06460F466410002CEAD1DDE9AE
:102F60000401DDE90023BAF1000F06DAFDF705FAE6
:102F700042464B46FDF701FA05E0FDF770FA42467E
:102F80004B46FDF76CFA04460E460022284BFDF72F
:102F9000EDFA03D84FF0FF30014607E00022254B41
:102FA00020463146FDF742F9FDF7C8FA102409E042
:102FB000002C0ADB0A220023FDF707F9039B3032BD
:102FC0001A55641E50EA0102F2D1641C039AC4F13E
:102FD00011031444119A012A03D0012208430DD190
:102FE0000AE0084304D000204FF0110B119072E763
:102FF000A3EB0B056D1E0DE05B4504DD4FF00002F9
:1030000005F1010504E003DA4FF00002A5F1010526
:10301000002AECD002981199C0E90231C0E90045BC
:1030200079E70000000014400000F03F300000008D
:103030000000F0430000E03F2DE9FF4F95B09B46B4
:103040008946064600250FE2252877D10024274629
:10305000F84A0121059400E0044316F8013F203BA3
:1030600001FA03F01042F7D130782A2811D06FF01E
:103070002F033078A0F13002092A16D8059A44F0BF
:10308000020402EB820203EB42021044761C05901C
:10309000EFE759F8042B0592002A03DA504244F472
:1030A0000054059044F00204761C30782E2816D186
:1030B00016F8010F44F004042A280DD06FF02F02F7
:1030C0003078A0F13003092B09D807EB870302EB16
:1030D0004303C718761CF3E759F8047B761C307855
:1030E0006C280FD006DC4C2817D068280DD06A2831
:1030F00014D104E0742810D07A280FD10DE044F4E4
:1031000000140AE044F4801401E044F4401472789E
:10311000824202D104F58014761C761C3078662831
:103120000BD013DC582877D009DC002875D045284F
:10313000F6D04628F4D047281AD19DE118E063283C
:1031400035D0642879D0652812D195E1702873D0E4
:1031500008DC6728F1D069286FD06E280DD06F2861
:1031600006D1B5E073282CD0752875D0782874D096
:103170005A46179990476D1C75E1C4F30250022816
:1031800009D003280DD0D9F8001004280DD00D6007
:1031900009F1040967E1D9F80010EA17C1E9005202
:1031A000F6E7D9F800100D80F2E70D70F0E719F896
:1031B000041B8DF8001000208DF80100EA46012064
:1031C00003E059F804AB4FF0FF3061074FF0000106
:1031D00002D40DE008F101018846B9420FDA8045BA
:1031E000F8DB1AF808100029F4D108E008F1010111
:1031F00088468142FADB1AF808100029F6D10598B2
:103200005B46A0EB080721463846179A00F094FA6F
:10321000284400EB080507E04DE029E10DE01AF82D
:10322000010B5A4617999047B8F10108F7D25B464F
:1032300021463846179A13E142E00A220092C4F36D
:1032400002524FF0000A022A08D059F804CB032A90
:103250004FEAEC710AD00DE029E02AE009F10701FC
:1032600021F00702F2E802C1914609E00FFA8CFC56
:103270004FEAEC71042A03D14FFA8CFC4FEAEC714F
:10328000002907DA0A460021DCF1000C61EB02019B
:103290002D2202E0220504D52B228DF804200122E4
:1032A00003E0E20701D02022F7E7904659E00A2127
:1032B00002E010220DE010214FF0000A00910BE017
:1032C00010224FF0000A44F004040827009203E0A3
:1032D00008224FF0000A0092C4F30252022A05D0DD
:1032E00059F804CB0021032A08D009E009F10701AD
:1032F00021F00702F2E802C1914605E01FFA8CFCBA
:10330000042A01D10CF0FF0C4FF00008220728D549
:10331000702806D0009B83F0100353EA0A0305D0FF
:103320000EE040228DF80420012208E05CEA010250
:1033300006D030228DF804208DF805000222904638
:10334000009B83F0080353EA0A030AD15CEA0102F6
:1033500001D1620705D530228DF804204FF0010815
:103360007F1E582804D034A003900EA802900DE0D0
:1033700036A0F9E753466046009AFCF726FF8446DC
:103380000398825C0298401E029002705CEA010081
:10339000F0D1029806A9081A00F1200A600702D5A8
:1033A00024F4803400E00127574502DDA7EB0A0032
:1033B00000E0002000EB0A01009005984144401A0B
:1033C0000590E00306D45B462146179A059800F065
:1033D000B3F90544002706E001A85A46C05D1799D5
:1033E00090476D1C7F1C4745F6DBE0030CD55B4620
:1033F0002146179A059800F09FF9054404E0302013
:103400005A46179990476D1C0099481E0090002954
:10341000F5DC08E0029802995A460078491C0291AE
:10342000179990476D1CBAF10001AAF1010AF1DC6D
:1034300065E1000009280100303132333435363778
:1034400038396162636465660000000030313233F0
:103450003435363738394142434445460000000090
:1034600000F058F90544761C307800287FF4ECAD64
:1034700019B02846BDE8F08F620700D4062709F18D
:10348000070222F0070CFCE80223E14603F00048A3
:103490005FEA080C02D00FF2702C0DE05FEA045CCA
:1034A00002D50FF2682C07E05FEAC47C02D00FF26D
:1034B000602C01E0AFF2700C4FF0FF3823F00043B6
:1034C000CDF850C065280CD006DC452809D0462828
:1034D0001DD047283DD13DE0662818D067287ED111
:1034E00038E00021112F01DB112000E0781CCDE92C
:1034F000000106A90EA8FFF7DDFCDDE90F010E9A19
:1035000003910021009207F1010A04914DE04FF070
:1035100000400097CDE9011006A90EA8FFF7CAFCEC
:10352000DDE90F0203920E9B11990022DDF80CA039
:103530000093049211B9791C00EB010AB7EB0A0061
:1035400004D4C0F1FF3007F1010A0490AAEB070090
:10355000019044E0012F00DA01270021112F01DD45
:10356000112000E03846CDE9000106A90EA8FFF7BA
:10357000A1FCDDE90F010E9A039100210491009254
:10358000BA4621070CD40399514500DA8A46BAF1AC
:10359000010F05DD009AAAF10101515C302908D024
:1035A000B84202DA10F1040F06DA0121CDE9011068
:1035B00015E0AAF10101E9E7002805DC04990144BE
:1035C0000491AAEB000102E0411C514500DD8A464E
:1035D0000499401A401C01904FF0004002902007CF
:1035E00004D40198504501DBCDF8048000208DF80B
:1035F0004F0002980DF14F07B0F1004F25D02B205E
:103600000E9002984FF0020800280CDA4042029017
:103610002D200E9007E00A210298FCF7C0FD303102
:10362000029007F8011DB8F10001A8F10108F2DCD1
:1036300002980028EFD1791E0E980870307800F0BB
:10364000200040F0450007F8020D12A8C01B00F151
:1036500007081498007800B1012000EB0A010198D6
:1036600001EBE07105984144401A401E0590E003CB
:1036700006D45B462146179A059800F05DF805448C
:103680001498007818B15A46179990476D1CE003BA
:1036900024D55B462146179A059800F04DF805445D
:1036A0001CE00498002807DBDDE90301884203DD04
:1036B0000098405C179901E0179930205A469047CE
:1036C000049805F10105401C04900198401E0190EA
:1036D00004D12E205A46179990476D1CBAF100016B
:1036E000AAF1010ADDDC05E017F8010B5A4617992B
:1036F00090476D1CB8F10001A8F10108F4DC5B46AD
:103700002146179A0598ABE62D0000002B0000001B
:10371000200000002DE9F041044600251E46174612
:10372000880404D405E039462020B0476D1C641E8F
:10373000F9D52846BDE8F0812DE9F0410446002581
:103740001E469046C80301D5302700E02027880494
:1037500004D505E041463846B0476D1C641EF9D5D6
:103760002846BDE8F0810A68531C0B601070704752
:1037700010B56FF00400FEF753FB0A4800680A49D1
:10378000B0FBF1F0094908700846007800EB4001F1
:10379000C1EBC0104FF6FF7101EAC0000449088078
:1037A00010BD00008400002000127A0012000020EA
:1037B000140000200146114A12884A434FF0E023CA
:1037C0005A6100229A611A46126942F001021A6196
:1037D00000BF4FF0E022106900F001021AB100F4BE
:1037E0008032002AF5D04FF0E022126922F0010267
:1037F0004FF0E0231A6100229A6170471400002004
:103800000146114A12784A434FF0E0235A610022E0
:103810009A611A46126942F001021A6100BF4FF024
:10382000E022106900F001021AB100F48032002A8F
:10383000F5D04FF0E022126922F001024FF0E023B0
:103840001A6100229A61704712000020FFF790FF72
:1038500041F61F414FF47A60FEF726FC41F61F4106
:1038600040F2F310FEF752FBFEF77BF84FF4A06036
:10387000FEF718F9FDF7E8FFFEF72CF8FEF736FA29
:10388000FDF722F800F0AEFD00F058FFFDF762F8FA
:10389000FDF706F9FDF78EFCFDF738F9FDF78AFB19
:1038A0001948FEF725FE00F07DFD0020174908703D
:1038B00017490870174908701749087022E0FDF78A
:1038C000C5FB00F067F81548FDF778F905210120E0
:1038D000FDF78AFA292190FBF1F011494870052182
:1038E0000846FDF781FA292190FBF1F00C49087098
:1038F000FDF720FE0B48007820B100F015F80020FD
:1039000008490870DBE70000000000201B000020D1
:103910001A00002019000020180000207E0000205E
:10392000AC000020BC00002010B5C4B011480078E5
:103930001049C9780F4A52780F4B1B78C3F16403C2
:10394000CDE90032CDE902100B484078C0F16403A4
:103950000A4882780A4904A8FFF776FA04A8FCF717
:1039600017FC0446224604A906A000F0C3FC44B09C
:1039700010BD000000000020AC0000207E000020F0
:10398000A4630008536D617274686F6D6550756251
:103990003200000010B5F2480078002835D14FF40D
:1039A0008061F048FCF7D7FB0020EF490880002138
:1039B000EE48FEF7A0FB0021ED48FEF79CFBEDA0D2
:1039C00000F04AFE1023F1A20421184600F01CFE6C
:1039D000FEF72CFF002817D10120E1490870EFA065
:1039E00000F03AFE4FF48061DE48FCF7B4FB0020A3
:1039F000DD490880FDF7F4FB0121DC48FEF77BFB85
:103A00000121DB48FEF777FB9CE3EA480068EA49BE
:103A1000096888422AD0E7480068807810280CD0CE
:103A2000E44800688078822803D1E44800780128BF
:103A300003D0E3480078012818D1DE480068817877
:103A4000E0A000F009FEDB48006800F02DFED94838
:103A5000006800F5C870D749086008460068DD496D
:103A60000968884202D1DC48D2490860DB48006816
:103A7000DB490968884277D0D848006880782028D8
:103A80003BD1D6480068407906282ED2DFE800F006
:103A9000030A11181F26D3A000F0DEFD0120C7493C
:103AA000087029E0D5A000F0D7FD0020AC490870CF
:103AB00022E0DEA000F0D0FD0020A94908701BE044
:103AC000E7A000F0C9FD0020A549087014E0EFA0B0
:103AD00000F0C2FD0020A24908700DE0F7A000F040
:103AE000BBFD00209E49087006E0FDA000F0B4FD7B
:103AF00000209B49087000BF43E0B8480068807808
:103B0000902825D1B54800688079012818D1FAA0FD
:103B100000F0A2FD0120AA49087041F61F414EF6AF
:103B20005F20FEF751FA0020F7490870F748FCF7CC
:103B30002FFB04462246F549F5A000F0DBFB06E02A
:103B4000F7A000F089FD00208549087000BF18E04B
:103B5000A24800688078D02807D1F7A000F07CFD4B
:103B60000120E94908700CE01AE09C480068807860
:103B7000302806D1F5A000F06FFD9848006800F0ED
:103B80007BFB9648006800F5C870944908600846B9
:103B90000068F5490968884202D1F4488F490860F5
:103BA000F3480068F3490968884271D0F048016819
:103BB000891CF1A000F050FDF2A1ED480068801CC6
:103BC000FCF7D4FA20B100F0EDFB0120EF490870BA
:103BD000EFA1E7480068801CFCF7C8FA20B100F0AC
:103BE000E1FB0020E9490870ECA1E1480068801C75
:103BF000FCF7BCFA20B100F0D5FB0220E3490870C5
:103C0000E9A1DB480068801CFCF7B0FA38B1E8484D
:103C1000C07808B9012000E00020E549C870E5A19E
:103C2000D3480068801CFCF7A1FA38B1E04800795D
:103C300008B9012000E00020DD490871DFA1CC486F
:103C40000068801CFCF792FA38B1D948407908B96D
:103C5000012000E00020D6494871DAA1C44800687C
:103C6000801CFCF783FA38B1D148807908B901206B
:103C700000E00020CE498871D4A1BD480068801CB6
:103C8000FCF774FA40B1CA48C07910B9012001E0CC
:103C900058E20020C649C871CEA1B5480068801C12
:103CA000FCF764FA70B1B2480068801CFCF770FA47
:103CB0000446CC484078CB49487008464078401EBE
:103CC000487000BFC8A1AA480068801CFCF74EFAE3
:103CD00070B1A7480068801CFCF75AFA0446C14836
:103CE0004078C049487008464078401C487000BF82
:103CF000C1A19F480068801CFCF738FA70B19C484D
:103D00000068801CFCF744FA0446B6488078B54940
:103D1000887008468078401E887000BFBAA1944819
:103D20000068801CFCF722FA70B191480068801C82
:103D3000FCF72EFA0446AB488078AA4988700846FA
:103D40008078401C887000BFB3A189480068801C3F
:103D5000FCF70CFA18B186480068801C64E16FE13A
:103D60002A000020C80100201000002000080040A8
:103D700000040040D5FDD4DAC1ACBDD34D5154543C
:103D8000B7FECEF1C6F70D0A00000000636F6E6E3D
:103D9000656374696E672E2E2E000000D2D1C1AC0F
:103DA000BDD34D515454B7FECEF1C6F70D0A0D0ADE
:103DB00000000000400000203C0000202B000020FC
:103DC0002C000020B7A2CBCDCAFDBEDD3A3078254D
:103DD000780D0A0044000020580800204C00002004
:103DE00048000020434F4E4E454354B1A8CEC4C1B5
:103DF000ACBDD3B3C9B9A60D0A0D0A003078303175
:103E0000C1ACBDD3D2D1BEDCBEF8A3ACB2BBD6A789
:103E1000B3D6B5C4D0ADD2E9B0E6B1BEA3ACD7BC81
:103E2000B1B8D6D8C6F40D0A0000000030783032A0
:103E3000C1ACBDD3D2D1BEDCBEF8A3ACB2BBBACF4D
:103E4000B8F1B5C4BFCDBBA720B6CBB1EACAB6B7EF
:103E5000FBA3ACD7BCB1B8D6D8C6F40D0A0000009D
:103E600030783033C1ACBDD3D2D1BEDCBEF8A3AC08
:103E7000B7FECEF1B6CBB2BBBFC9D3C3A3ACD7BCE0
:103E8000B1B8D6D8C6F40D0A00000000307830343E
:103E9000C1ACBDD3D2D1BEDCBEF8A3ACCEDED0A7C0
:103EA000B5C4D3C3BBA7C3FB20BBF2C3DCC2EBA327
:103EB000ACD7BCB1B8D6D8C6F40D0A0030783035CE
:103EC000C1ACBDD3D2D1BEDCBEF8A3ACCEB4CADA8D
:103ED000C8A8A3ACD7BCB1B8D6D8C6F40D0A0000A8
:103EE000C1ACBDD3D2D1BEDCBEF8A3ACD7BCB1B897
:103EF000D6D8C6F40D0A0000B6A9D4C4B3C9B9A671
:103F00000D0A0D0A000000002D000020BC29002031
:103F1000536D617274686F6D655075623200000098
:103F2000B6A9D4C4CAA7B0DCA3ACD7BCB1B8D6D8A4
:103F3000C6F40D0A0000000050696E67BBD8B8B423
:103F4000D5FDB3A3A3A10D0A000000004D515454A8
:103F5000B7FECEF1C6F7CDC6CBCDB5C4C4DAC8DD49
:103F6000CAC70D0A00000000500000205C130020AA
:103F7000600000205C000020C3FCC1EE3A25730DF8
:103F80000A0000004D616E75616C000007000020A2
:103F90004175746F6D6174696300000054687265E7
:103FA00073686F6C644F6E00537769746368310097
:103FB000BC000020537769746368320053776974DA
:103FC00063683300537769746368340053776974A6
:103FD000636835005468726573686F6C6431446F50
:103FE000776E0000000000205468726573686F6C83
:103FF00064314164640000005468726573686F6CDA
:104000006432446F776E00005468726573686F6C39
:1040100064324164640000005468726573686F6CB8
:104020006433446F776E0000FCF7B2F804464648EC
:10403000C0784549C8700846C078401EC87000BFA7
:1040400042A146480068801CFCF790F870B14348D4
:104050000068801CFCF79CF804463B48C0783A494D
:10406000C8700846C078401CC87000BF3CA13B48DF
:104070000068801CFCF77AF870B138480068801C32
:10408000FCF786F80446304800782F490870084647
:104090000078401E087000BF35A130480068801CC1
:1040A000FCF764F870B12D480068801CFCF770F8CC
:1040B0000446254800782449087008460078401CCA
:1040C000087000BF2EA125480068801CFCF74EF840
:1040D00070B122480068801CFCF75AF804461A4860
:1040E00080881949888008468088401E888000BFE3
:1040F00027A11A480068801CFCF738F870B11748EF
:104100000068801CFCF744F804460F4880880E497C
:10411000888008468088401C888000BF0F4800685F
:104120000021C0F802100D48006800F5C8700B4966
:104130000860084600681A490968884202D119488F
:104140000649086010BD0000000000205468726538
:1041500073686F6C64334164640000006000002089
:104160005468726573686F6C6434446F776E0000D6
:104170005468726573686F6C643441646400000055
:104180005468726573686F6C6435446F776E0000B5
:104190005468726573686F6C643541646400000034
:1041A000640000204C1E002070B505460C462246D7
:1041B000294615480068801CFBF7B4FF2046E1172C
:1041C00004EB1161090A104A12681170E11704EB3F
:1041D00011610912A4EB01210B4A126851700021F0
:1041E00009480268A01C11540748006800F5C8700F
:1041F000054908600846006804490968884202D1F8
:1042000003480149086070BD5C0000206400002084
:104210004C1E002070B505460C462046E11704EB05
:104220001161090A114A126811702046E11704EB66
:1042300011610912A4EB01210C4A12685170224647
:1042400029460A480068801CFBF76CFF0748006895
:1042500000F5C87005490860084600680449096807
:10426000884202D103480149086070BD3C0000202B
:1042700044000020580800202DE9F14FE4B04FF031
:10428000000A0120834604466498851C00BF15F887
:10429000048008F07F0000FB0BAA4FEACB1B641CD4
:1042A00008F080000028F2D1601C295C285D01EB39
:1042B0000020861CAAEB060706EB040905EB0901A2
:1042C0003A466846FBF72EFF39466846FFF76CFF13
:1042D00065B0BDE8F08F000010B5C020044908703B
:1042E0000020487002210248FFF794FF10BD000033
:1042F000C80600202DE9F74F074616460125384627
:10430000FBF746FF00F10208B14608EB0904302034
:104310002349087013E02046E11704EB5161C911ED
:10432000A4EBC11AE11704EB5161CC11002C01DDA3
:104330004AF0800A28466D1C194901F800A0002C9B
:10434000E9DC3846FBF724FFC0F307201449485541
:104350003846FBF71DFFC1B2114A681C115438469C
:10436000FBF716FF83460E4AA91C50185A463946D9
:10437000FBF7D8FE3846FBF70BFFA91C0844084999
:1043800000EB010B324658460199FBF7CBFE05EBDB
:10439000080000EB09010248FFF73CFFBDE8FE8F73
:1043A000C806002070B5002418E004F1B000002118
:1043B000FDF7E8FB00210846FDF7E4FB0021102093
:1043C000FDF7E0FB002505E001210020FDF7DAFB09
:1043D000681CC5B2802DF7DB601CC4B2082CE4DB7E
:1043E00070BD000008B501210420FDF7F5FB102089
:1043F0008DF8030003208DF802004FF48050ADF8D3
:10440000000069464348FCF737FC4FF40060ADF804
:10441000000069463F48FCF72FFC4FF480513D48AF
:10442000FCF7C0FC4FF400613A48FCF7BBFC4FF4CA
:10443000C870FCF714FC0021AE20FDF7A3FB00219F
:104440000846FDF79FFB00211020FDF79BFB002194
:104450004020FDF797FB0021B020FDF793FB0021E2
:104460008120FDF78FFB0021FF20FDF78BFB002152
:10447000A120FDF787FB0021A620FDF783FB00218B
:10448000A820FDF77FFB00213F20FDF77BFB0021EB
:10449000C820FDF777FB0021D320FDF773FB002137
:1044A0000846FDF76FFB0021D520FDF76BFB0021CF
:1044B0008020FDF767FB0021D820FDF763FB00217A
:1044C0000520FDF75FFB0021D920FDF75BFB0021F4
:1044D000F120FDF757FB0021DA20FDF753FB002107
:1044E0001220FDF74FFB0021DB20FDF74BFB0021E5
:1044F0003020FDF747FB00218D20FDF743FB002115
:104500001420FDF73FFB0021AF20FDF73BFBFFF739
:1045100049FF08BD000801402DE9F04180460E46E4
:104520001546002731464046FDF7C6FA00240AE04A
:10453000124A02EBC511085D0121FDF723FB781C2F
:10454000C7B2601CC4B2102CF2DB701CC1B2404672
:10455000FDF7B2FA00240CE06900491C074A02EB9F
:104560008111085D0121FDF70DFB781CC7B2601CAD
:10457000C4B2102CF0DBBDE8F0810000A44F0008AD
:104580002DE9FF5F074691461E460E9D4FF0000A3B
:10459000002435E0301B401EC1B20A2000F051F863
:1045A000B9FBF0F00A21B0FBF1F201FB1208BAF1FD
:1045B000000F14D1701EA04211DDB8F1000F0CD114
:1045C000AB4605EBDB71491001FB0471C8B22B4609
:1045D00020220199FDF784FA10E04FF0010AAB4662
:1045E00005EBDB71491001FB0471C8B208F1300121
:1045F000CAB22B460199FDF773FA00BF601CC4B222
:10460000B442C7DBBDE8FF9F2DE9F04104460F46E9
:104610001546984600260FE0AA5D434639462046D7
:10462000FDF75EFA04F10800C4B2782C02DD002424
:10463000B81CC7B2701CC6B2A85D0028ECD1BDE89A
:10464000F08110B50246012000E050430B1EA1F19D
:104650000104E1B2F9D110BD0FB438B50024002532
:1046600005A800900E48009A0499FEF701FC00206E
:1046700000900B48FBF78CFD054605E00848015DFE
:104680000848FEF78AF8641CAC42F7D300BF40210B
:104690000448FDF7B4FF0028F9D038BC5DF814FBDE
:1046A000C80000200038014070B5044600BF40211A
:1046B0000D48FDF7A4FF0028F9D001250CE0681C87
:1046C000215C0948FEF777F800BF40210648FDF756
:1046D00096FF0028F9D06D1C6178207801EB00204E
:1046E000A842ECDA70BD0000004400400FB438B5B9
:1046F0000024002505A800900E48009A0499FEF7B2
:10470000B7FB002000900B48FBF742FD054605E093
:104710000848015D0848FEF740F8641CAC42F7D336
:1047200000BF40210448FDF76AFF0028F9D038BCDB
:104730005DF814FBC80500200044004008B50121C5
:104740001020FDF749FA4FF48040ADF8000010202A
:104750008DF8030003208DF8020069460A48FCF733
:104760008BFA00224FF480410748FCF71DFBFA202A
:10477000FFF720F8012291030348FCF715FB4FF4E3
:10478000FA70FFF717F808BD0010014000000000A4
:1047900000000000002F00000000070007000014C8
:1047A0007F147F1400242A7F2A12006264081323D6
:1047B00000364955225000000503000000001C226D
:1047C0004100000041221C000014083E08140008AB
:1047D000083E0808000000A060000008080808085B
:1047E000000060600000002010080402003E5149F3
:1047F000453E0000427F4000004261514946002191
:1048000041454B31001814127F10002745454539AA
:10481000003C4A4949300001710905030036494905
:10482000493600064949291E0000363600000000BE
:104830005636000000081422410000141414141409
:1048400000004122140800020151090600324959B2
:10485000513E007C1211127C007F49494936003ECE
:1048600041414122007F4141221C007F4949494189
:10487000007F09090901003E4149497A007F080883
:10488000087F0000417F4100002040413F01007F40
:1048900008142241007F40404040007F020C027F0C
:1048A000007F0408107F003E4141413E007F09091E
:1048B0000906003E4151215E007F09192946004644
:1048C000494949310001017F0101003F4040403F1B
:1048D000001F2040201F003F4038403F0063140865
:1048E0001463000708700807006151494543000040
:1048F0007F41410000552A552A55000041417F0063
:104900000004020102040040404040400000010257
:104910000400002054545478007F48444438003840
:104920004444442000384444487F003854545418C8
:1049300000087E0901020018A4A4A47C007F0804DA
:1049400004780000447D4000004080847D00007FAA
:10495000102844000000417F4000007C04180478C7
:10496000007C0804047800384444443800FC2424C3
:1049700024180018242418FC007C080404080048AB
:104980005454542000043F444020003C4040207CCC
:10499000001C2040201C003C4030403C00442810BB
:1049A0002844001CA0A0A07C004464544C4414146F
:1049B00014141414000000000000000000000000A7
:1049C00000000000000000F80000000000000033BC
:1049D0003000000000100C06100C06000000000063
:1049E0000000000040C07840C0784000043F04044C
:1049F0003F040400007088FC08300000001820FF0D
:104A0000211E0000F008F000E018000000211C0347
:104A10001E211E0000F00888700000001E212324C3
:104A20001927211010160E000000000000000000E1
:104A300000000000000000E0180402000000000771
:104A40001820400000020418E00000000040201878
:104A500007000000404080F0804040000202010F4B
:104A600001020200000000F0000000000101011F2F
:104A700001010100000000000000000080B0700093
:104A80000000000000000000000000000001010123
:104A900001010101000000000000000000303000B2
:104AA000000000000000000080601804006018068C
:104AB0000100000000E010080810E000000F1020C6
:104AC00020100F00001010F8000000000020203F10
:104AD000202000000070080808887000003028249A
:104AE000222130000030088888483000001820203B
:104AF00020110E000000C02010F800000007042460
:104B0000243F240000F808888808080000192120A4
:104B100020110E0000E0108888180000000F1120FE
:104B200020110E0000380808C83808000000003FB7
:104B3000000000000070880808887000001C222116
:104B400021221C0000E010080810E00000003122C3
:104B500022110F00000000C0C00000000000003063
:104B600030000000000000800000000000008060B5
:104B70000000000000008040201008000001020436
:104B8000081020004040404040404000040404041D
:104B900004040400000810204080000000201008D9
:104BA00004020100007048080808F000000000300E
:104BB00036010000C030C828E810E000071827249C
:104BC00023140B000000C038E0000000203C23024A
:104BD0000227382008F8888888700000203F2020AD
:104BE00020110E00C03008080808380007182020DF
:104BF0002010080008F808080810E000203F2020D6
:104C000020100F0008F88888E8081000203F2020B6
:104C10002320180008F88888E8081000203F2000AA
:104C200003000000C03008080838000007182020E2
:104C3000221E020008F808000008F808203F2101A1
:104C400001213F20000808F8080800000020203F4C
:104C50002020000000000808F8080800C0808080BC
:104C60007F00000008F888C028180800203F2001B5
:104C70002638200008F8080000000000203F20200F
:104C80002020300008F8F800F8F80800203F003F26
:104C9000003F200008F830C00008F808203F20003E
:104CA00007183F00E01008080810E0000F1020204F
:104CB00020100F0008F808080808F000203F210124
:104CC00001010000E01008080810E0000F1824247B
:104CD00038504F0008F8888888887000203F2000EE
:104CE000030C3020007088080808380000382021A4
:104CF00021221C00180808F8080818000000203FAE
:104D00002000000008F808000008F808001F202014
:104D100020201F000878880000C8380800000738E5
:104D20000E010000F80800F80008F800033C070036
:104D3000073C0300081868808068180820302C039E
:104D4000032C30200838C800C83808000000203F75
:104D50002000000010080808C83808002038262164
:104D600020201800000000FE020202000000007F68
:104D700040404000000C30C0000000000000000176
:104D80000638C00000020202FE0000000040404061
:104D90007F00000000000402020204000000000086
:104DA0000000000000000000000000008080808003
:104DB00080808080000202040000000000000000EB
:104DC0000000000000008080808000000019242284
:104DD00022223F2008F8008080000000003F1120C0
:104DE00020110E000000008080800000000E1120C5
:104DF00020201100000000808088F800000E1120A3
:104E000020103F200000808080800000001F2222B0
:104E100022221300008080F0888888180020203F1C
:104E2000202000000000808080808000006B94942F
:104E30009493600008F8008080800000203F2100EB
:104E400000203F2000809898000000000020203FB4
:104E500020200000000000809898000000C08080A2
:104E6000807F000008F8000080808000203F24023E
:104E70002D302000000808F8000000000020203F2E
:104E8000202000008080808080808000203F2000E3
:104E90003F20003F8080008080800000203F210074
:104EA00000203F200000808080800000001F202024
:104EB00020201F00808000808000000080FFA12053
:104EC00020110E000000008080808000000E112064
:104ED00020A0FF80808080008080800020203F21F3
:104EE00020000100000080808080800000332424A6
:104EF00024241900008080E0808000000000001F52
:104F0000202000008080000000808000001F202002
:104F100020103F20808080000080808000010E30C3
:104F20000806010080800080008080800F300C0324
:104F30000C300F0000808000808080000020312E27
:104F40000E312000808080000080808080818E7003
:104F50001806010000808080808080000021302CB5
:104F60002221300000000000807C020200000000CE
:104F7000003F404000000000FF0000000000000073
:104F8000FF0000000002027C800000000040403F63
:104F900000000000000601010202040400000000FD
:104FA0000000000000448C1800FCA4A4A4A4A4A445
:104FB00024FC0000000000000000000000000000D1
:104FC00000000000000000000000000000000000E1
:104FD00000000000000000000000000000000000D1
:104FE0000000000000C03887F88484FC8484FC84BE
:104FF00085FC8000000000000000000000000000B0
:1050000000000000000000000000000000000000A0
:105010000000000000000000000000000000000090
:10502000000000000040841810FCA4A4A4A4A4A4C0
:10503000A4FC0000000000000000000000000000D0
:105040000000000000000000000000000000000060
:105050000000000000000000000000000000000050
:105060000000000000C03A85829CA0FF8080FF8085
:10507000908C800000000000000000000000000094
:105080000000000000000000000000000000000020
:105090000000000000000000000000000000000010
:1050A0000000000000F0082828F828282C2828F8FC
:1050B0002828080000000000000000000000000098
:1050C00000000000000000000000000000000000E0
:1050D00000000000000000000000000000000000D0
:1050E00000000000807F8084848C5565256555957F
:1050F0008C80800000000000000000000000000024
:10510000000000000000000000000000000000009F
:10511000000000000000000000000000000000008F
:1051200000000000000018A8D82010101010103047
:1051300078000000000000000000000000000000F7
:10514000000000000000000000000000000000005F
:10515000000000000000000000000000000000004F
:1051600000000000000000071F3020202020201039
:105170001800000000000000000000000000000017
:10518000000000000000000000000000000000001F
:10519000000000000000000000000000000000000F
:1051A00000000000003840FE403880E09884808491
:1051B0009820C080000000000000000000000000F7
:1051C00000000000000000000000000000000000DF
:1051D00000000000000000000000000000000000CF
:1051E0000000000000310DFF05198040300F808065
:1051F000807F0000000000000000000000000000B0
:10520000000000000000000000000000000000009E
:10521000000000000000000000000000000000008E
:105220000000000000008060180000FC0000000882
:10523000106080000000000000000000000000007E
:10524000000000000000000000000000000000005E
:10525000000000000000000000000000000000004E
:105260000000000000808888888888FF88888888F7
:10527000888880000000000000000000000000009E
:10528000000000000000000000000000000000001E
:10529000000000000000000000000000000000000E
:1052A0000000000000808088F08080FE8080C0A028
:1052B0009884800000000000000000000000000052
:1052C00000000000000000000000000000000000DE
:1052D00000000000000000000000000000000000CE
:1052E0000000000000808040300F000000FF808040
:1052F000808070000000000000000000000000003E
:10530000000000000000000000000000000000009D
:10531000000000000000000000000000000000008D
:105320000000000000FC4444FC0044243C244444AD
:10533000447C0000000000000000000000000000AD
:10534000000000000000000000000000000000005D
:10535000000000000000000000000000000000004D
:1053600000000000008F78080F20C709097989091B
:10537000196F800000000000000000000000000025
:10538000000000000000000000000000000000001D
:10539000000000000000000000000000000000000D
:1053A0000000000000004040404040FF40404040BE
:1053B00040000000000000000000000000000000AD
:1053C00000000000000000000000000000000000DD
:1053D00000000000000000000000000000000000CD
:1053E00000000000404040404040407F404040407E
:1053F00040404000000000000000000000000000ED
:10540000000000000000000000000000000000009C
:10541000000000000000000000000000000000008C
:10542000000000001010FF100082BAEABA83BAEA46
:10543000BA82000000000000000000000000000030
:10544000000000000000000000000000000000005C
:10545000000000000000000000000000000000004C
:105460000000000008180F04484A2AFF8A4A1A2F31
:105470005A8A8800000000000000000000000000C0
:10548000000000000000000000000000000000001C
:10549000000000000000000000000000000000000C
:1054A000000000001060020CC00088884F5824548F
:1054B00084E4000000000000000000000000000084
:1054C00000000000000000000000000000000000DC
:1054D00000000000000000000000000000000000CC
:1054E0000000000004047C03008242320E02023EEF
:1054F00042427200000000000000000000000000B6
:10550000000000000000000000000000000000009B
:10551000000000000000000000000000000000008B
:1055200000000000040404846F040404E4048F44B5
:10553000240404000000000000000000000000003F
:10554000000000000000000000000000000000005B
:10555000000000000000000000000000000000004B
:1055600000000000040201FF001008043F41404019
:105570004040780000000000000000000000000033
:10558000000000000000000000000000000000001B
:10559000000000000000000000000000000000000B
:1055A00000000000001010FE101010F000F80808B5
:1055B0000808F800000000000000000000000000E3
:1055C00000000000000000000000000000000000DB
:1055D00000000000000000000000000000000000CB
:1055E00000000000804038078080807F00FF8080BE
:1055F00080807F000000000000000000000000002C
:10560000000000000000000000000000000000009A
:10561000000000000000000000000000000000008A
:10562000000000000040841810FCA4A4A4A4A4A4BA
:10563000A4FC0000000000000000000000000000CA
:10564000000000000000000000000000000000005A
:10565000000000000000000000000000000000004A
:105660000000000000C03A85829CA0FF8080FF807F
:10567000908C80000000000000000000000000008E
:10568000000000000000000000000000000000001A
:10569000000000000000000000000000000000000A
:1056A00000000000109453321E325210007E42421D
:1056B000427E00000000000000000000000000002A
:1056C00000000000000000000000000000000000DA
:1056D00000000000000000000000000000000000CA
:1056E00000000000000000FF49494949494949FFBD
:1056F00000000000000000000000000000000000AA
:105700000000000000000000000000000000000099
:105710000000000000000000000000000000000089
:105720000000000008CC4A49484ACC18007F88880D
:105730008482E00000000000000000000000000083
:105740000000000000000000000000000000000059
:105750000000000000000000000000000000000049
:105760000000000000FF121252927F00007E888825
:105770008482E00000000000000000000000000043
:105780000000000000000000000000000000000019
:105790000000000000000000000000000000000009
:1057A000000000001060020CC00088884F5824548C
:1057B00084E4000000000000000000000000000081
:1057C00000000000000000000000000000000000D9
:1057D00000000000000000000000000000000000C9
:1057E0000000000004047C03008242320E02023EEC
:1057F00042427200000000000000000000000000B3
:105800000000000000000000000000000000000098
:105810000000000000000000000000000000000088
:1058200000000000040404846F040404E4048F44B2
:10583000240404000000000000000000000000003C
:105840000000000000000000000000000000000058
:105850000000000000000000000000000000000048
:1058600000000000040201FF001008043F41404016
:105870004040780000000000000000000000000030
:105880000000000000000000000000000000000018
:105890000000000000000000000000000000000008
:1058A00000000000000022322AA6A2622111098114
:1058B00001000000000000000000000000000000E7
:1058C00000000000000000000000000000000000D8
:1058D00000000000000000000000000000000000C8
:1058E00000000000004222130B42827E02020A12D4
:1058F000234600000000000000000000000000003F
:105900000000000000000000000000000000000097
:105910000000000000000000000000000000000087
:10592000000000002030AC63300088C8A8998E8841
:10593000A8C888000000000000000000000000006F
:105940000000000000000000000000000000000057
:105950000000000000000000000000000000000047
:105960000000000022672212128040300F00003F2A
:105970004040710000000000000000000000000036
:105980000000000000000000000000000000000017
:105990000000000000000000000000000000000007
:1059A000000000000000484848484858E444444487
:1059B000444440000000000000000000000000001F
:1059C00000000000000000000000000000000000D7
:1059D00000000000000000000000000000000000C7
:1059E000000000000004040484848484E71C040490
:1059F000040404000000000000000000000000009B
:105A00000000000000000000000000000000000096
:105A10000000000000000000000000000000000086
:105A20000000000000808888888888800010FC10B2
:105A30001010E00000000000000000000000000066
:105A40000000000000000000000000000000000056
:105A50000000000000000000000000000000000046
:105A6000000000000000704F40403C60C0300F80DC
:105A700080807F00000000000000000000000000A7
:105A80000000000000000000000000000000000016
:105A90000000000000000000000000000000000006
:105AA000000000000020FCE02008E83C2828283CFA
:105AB00028E80800000000000000000000000000CE
:105AC00000000000000000000000000000000000D6
:105AD00000000000000000000000000000000000C6
